{
  "_format": "hh-sol-artifact-1",
  "contractName": "CometModified",
  "sourceName": "contracts/test/CometModified.sol",
  "abi": [
    {
      "inputs": [
        {
          "components": [
            {
              "internalType": "address",
              "name": "governor",
              "type": "address"
            },
            {
              "internalType": "address",
              "name": "pauseGuardian",
              "type": "address"
            },
            {
              "internalType": "address",
              "name": "baseToken",
              "type": "address"
            },
            {
              "internalType": "address",
              "name": "baseTokenPriceFeed",
              "type": "address"
            },
            {
              "internalType": "address",
              "name": "extensionDelegate",
              "type": "address"
            },
            {
              "internalType": "uint64",
              "name": "supplyKink",
              "type": "uint64"
            },
            {
              "internalType": "uint64",
              "name": "supplyPerYearInterestRateSlopeLow",
              "type": "uint64"
            },
            {
              "internalType": "uint64",
              "name": "supplyPerYearInterestRateSlopeHigh",
              "type": "uint64"
            },
            {
              "internalType": "uint64",
              "name": "supplyPerYearInterestRateBase",
              "type": "uint64"
            },
            {
              "internalType": "uint64",
              "name": "borrowKink",
              "type": "uint64"
            },
            {
              "internalType": "uint64",
              "name": "borrowPerYearInterestRateSlopeLow",
              "type": "uint64"
            },
            {
              "internalType": "uint64",
              "name": "borrowPerYearInterestRateSlopeHigh",
              "type": "uint64"
            },
            {
              "internalType": "uint64",
              "name": "borrowPerYearInterestRateBase",
              "type": "uint64"
            },
            {
              "internalType": "uint64",
              "name": "storeFrontPriceFactor",
              "type": "uint64"
            },
            {
              "internalType": "uint64",
              "name": "trackingIndexScale",
              "type": "uint64"
            },
            {
              "internalType": "uint64",
              "name": "baseTrackingSupplySpeed",
              "type": "uint64"
            },
            {
              "internalType": "uint64",
              "name": "baseTrackingBorrowSpeed",
              "type": "uint64"
            },
            {
              "internalType": "uint104",
              "name": "baseMinForRewards",
              "type": "uint104"
            },
            {
              "internalType": "uint104",
              "name": "baseBorrowMin",
              "type": "uint104"
            },
            {
              "internalType": "uint104",
              "name": "targetReserves",
              "type": "uint104"
            },
            {
              "components": [
                {
                  "internalType": "address",
                  "name": "asset",
                  "type": "address"
                },
                {
                  "internalType": "address",
                  "name": "priceFeed",
                  "type": "address"
                },
                {
                  "internalType": "uint8",
                  "name": "decimals",
                  "type": "uint8"
                },
                {
                  "internalType": "uint64",
                  "name": "borrowCollateralFactor",
                  "type": "uint64"
                },
                {
                  "internalType": "uint64",
                  "name": "liquidateCollateralFactor",
                  "type": "uint64"
                },
                {
                  "internalType": "uint64",
                  "name": "liquidationFactor",
                  "type": "uint64"
                },
                {
                  "internalType": "uint128",
                  "name": "supplyCap",
                  "type": "uint128"
                }
              ],
              "internalType": "struct CometConfiguration.AssetConfig[]",
              "name": "assetConfigs",
              "type": "tuple[]"
            }
          ],
          "internalType": "struct CometConfiguration.Configuration",
          "name": "config",
          "type": "tuple"
        }
      ],
      "stateMutability": "nonpayable",
      "type": "constructor"
    },
    {
      "inputs": [],
      "name": "Absurd",
      "type": "error"
    },
    {
      "inputs": [],
      "name": "AlreadyInitialized",
      "type": "error"
    },
    {
      "inputs": [],
      "name": "BadAsset",
      "type": "error"
    },
    {
      "inputs": [],
      "name": "BadDecimals",
      "type": "error"
    },
    {
      "inputs": [],
      "name": "BadDiscount",
      "type": "error"
    },
    {
      "inputs": [],
      "name": "BadMinimum",
      "type": "error"
    },
    {
      "inputs": [],
      "name": "BadPrice",
      "type": "error"
    },
    {
      "inputs": [],
      "name": "BorrowCFTooLarge",
      "type": "error"
    },
    {
      "inputs": [],
      "name": "BorrowTooSmall",
      "type": "error"
    },
    {
      "inputs": [],
      "name": "InsufficientReserves",
      "type": "error"
    },
    {
      "inputs": [],
      "name": "InvalidInt104",
      "type": "error"
    },
    {
      "inputs": [],
      "name": "InvalidInt256",
      "type": "error"
    },
    {
      "inputs": [],
      "name": "InvalidUInt104",
      "type": "error"
    },
    {
      "inputs": [],
      "name": "InvalidUInt128",
      "type": "error"
    },
    {
      "inputs": [],
      "name": "InvalidUInt64",
      "type": "error"
    },
    {
      "inputs": [],
      "name": "LiquidateCFTooLarge",
      "type": "error"
    },
    {
      "inputs": [],
      "name": "NegativeNumber",
      "type": "error"
    },
    {
      "inputs": [],
      "name": "NoSelfTransfer",
      "type": "error"
    },
    {
      "inputs": [],
      "name": "NotCollateralized",
      "type": "error"
    },
    {
      "inputs": [],
      "name": "NotForSale",
      "type": "error"
    },
    {
      "inputs": [],
      "name": "NotLiquidatable",
      "type": "error"
    },
    {
      "inputs": [],
      "name": "Paused",
      "type": "error"
    },
    {
      "inputs": [],
      "name": "SupplyCapExceeded",
      "type": "error"
    },
    {
      "inputs": [],
      "name": "TimestampTooLarge",
      "type": "error"
    },
    {
      "inputs": [],
      "name": "TooManyAssets",
      "type": "error"
    },
    {
      "inputs": [],
      "name": "TooMuchSlippage",
      "type": "error"
    },
    {
      "inputs": [],
      "name": "TransferInFailed",
      "type": "error"
    },
    {
      "inputs": [],
      "name": "TransferOutFailed",
      "type": "error"
    },
    {
      "inputs": [],
      "name": "Unauthorized",
      "type": "error"
    },
    {
      "anonymous": false,
      "inputs": [
        {
          "indexed": true,
          "internalType": "address",
          "name": "absorber",
          "type": "address"
        },
        {
          "indexed": true,
          "internalType": "address",
          "name": "borrower",
          "type": "address"
        },
        {
          "indexed": true,
          "internalType": "address",
          "name": "asset",
          "type": "address"
        },
        {
          "indexed": false,
          "internalType": "uint256",
          "name": "collateralAbsorbed",
          "type": "uint256"
        },
        {
          "indexed": false,
          "internalType": "uint256",
          "name": "usdValue",
          "type": "uint256"
        }
      ],
      "name": "AbsorbCollateral",
      "type": "event"
    },
    {
      "anonymous": false,
      "inputs": [
        {
          "indexed": true,
          "internalType": "address",
          "name": "absorber",
          "type": "address"
        },
        {
          "indexed": true,
          "internalType": "address",
          "name": "borrower",
          "type": "address"
        },
        {
          "indexed": false,
          "internalType": "uint256",
          "name": "basePaidOut",
          "type": "uint256"
        },
        {
          "indexed": false,
          "internalType": "uint256",
          "name": "usdValue",
          "type": "uint256"
        }
      ],
      "name": "AbsorbDebt",
      "type": "event"
    },
    {
      "anonymous": false,
      "inputs": [
        {
          "indexed": true,
          "internalType": "address",
          "name": "buyer",
          "type": "address"
        },
        {
          "indexed": true,
          "internalType": "address",
          "name": "asset",
          "type": "address"
        },
        {
          "indexed": false,
          "internalType": "uint256",
          "name": "baseAmount",
          "type": "uint256"
        },
        {
          "indexed": false,
          "internalType": "uint256",
          "name": "collateralAmount",
          "type": "uint256"
        }
      ],
      "name": "BuyCollateral",
      "type": "event"
    },
    {
      "anonymous": false,
      "inputs": [
        {
          "indexed": false,
          "internalType": "bool",
          "name": "supplyPaused",
          "type": "bool"
        },
        {
          "indexed": false,
          "internalType": "bool",
          "name": "transferPaused",
          "type": "bool"
        },
        {
          "indexed": false,
          "internalType": "bool",
          "name": "withdrawPaused",
          "type": "bool"
        },
        {
          "indexed": false,
          "internalType": "bool",
          "name": "absorbPaused",
          "type": "bool"
        },
        {
          "indexed": false,
          "internalType": "bool",
          "name": "buyPaused",
          "type": "bool"
        }
      ],
      "name": "PauseAction",
      "type": "event"
    },
    {
      "anonymous": false,
      "inputs": [
        {
          "indexed": true,
          "internalType": "address",
          "name": "from",
          "type": "address"
        },
        {
          "indexed": true,
          "internalType": "address",
          "name": "dst",
          "type": "address"
        },
        {
          "indexed": false,
          "internalType": "uint256",
          "name": "amount",
          "type": "uint256"
        }
      ],
      "name": "Supply",
      "type": "event"
    },
    {
      "anonymous": false,
      "inputs": [
        {
          "indexed": true,
          "internalType": "address",
          "name": "from",
          "type": "address"
        },
        {
          "indexed": true,
          "internalType": "address",
          "name": "dst",
          "type": "address"
        },
        {
          "indexed": true,
          "internalType": "address",
          "name": "asset",
          "type": "address"
        },
        {
          "indexed": false,
          "internalType": "uint256",
          "name": "amount",
          "type": "uint256"
        }
      ],
      "name": "SupplyCollateral",
      "type": "event"
    },
    {
      "anonymous": false,
      "inputs": [
        {
          "indexed": true,
          "internalType": "address",
          "name": "from",
          "type": "address"
        },
        {
          "indexed": true,
          "internalType": "address",
          "name": "to",
          "type": "address"
        },
        {
          "indexed": false,
          "internalType": "uint256",
          "name": "amount",
          "type": "uint256"
        }
      ],
      "name": "Transfer",
      "type": "event"
    },
    {
      "anonymous": false,
      "inputs": [
        {
          "indexed": true,
          "internalType": "address",
          "name": "from",
          "type": "address"
        },
        {
          "indexed": true,
          "internalType": "address",
          "name": "to",
          "type": "address"
        },
        {
          "indexed": true,
          "internalType": "address",
          "name": "asset",
          "type": "address"
        },
        {
          "indexed": false,
          "internalType": "uint256",
          "name": "amount",
          "type": "uint256"
        }
      ],
      "name": "TransferCollateral",
      "type": "event"
    },
    {
      "anonymous": false,
      "inputs": [
        {
          "indexed": true,
          "internalType": "address",
          "name": "src",
          "type": "address"
        },
        {
          "indexed": true,
          "internalType": "address",
          "name": "to",
          "type": "address"
        },
        {
          "indexed": false,
          "internalType": "uint256",
          "name": "amount",
          "type": "uint256"
        }
      ],
      "name": "Withdraw",
      "type": "event"
    },
    {
      "anonymous": false,
      "inputs": [
        {
          "indexed": true,
          "internalType": "address",
          "name": "src",
          "type": "address"
        },
        {
          "indexed": true,
          "internalType": "address",
          "name": "to",
          "type": "address"
        },
        {
          "indexed": true,
          "internalType": "address",
          "name": "asset",
          "type": "address"
        },
        {
          "indexed": false,
          "internalType": "uint256",
          "name": "amount",
          "type": "uint256"
        }
      ],
      "name": "WithdrawCollateral",
      "type": "event"
    },
    {
      "anonymous": false,
      "inputs": [
        {
          "indexed": true,
          "internalType": "address",
          "name": "to",
          "type": "address"
        },
        {
          "indexed": false,
          "internalType": "uint256",
          "name": "amount",
          "type": "uint256"
        }
      ],
      "name": "WithdrawReserves",
      "type": "event"
    },
    {
      "stateMutability": "payable",
      "type": "fallback"
    },
    {
      "inputs": [
        {
          "internalType": "address",
          "name": "absorber",
          "type": "address"
        },
        {
          "internalType": "address[]",
          "name": "accounts",
          "type": "address[]"
        }
      ],
      "name": "absorb",
      "outputs": [],
      "stateMutability": "nonpayable",
      "type": "function"
    },
    {
      "inputs": [
        {
          "internalType": "address",
          "name": "account",
          "type": "address"
        }
      ],
      "name": "accrueAccount",
      "outputs": [],
      "stateMutability": "nonpayable",
      "type": "function"
    },
    {
      "inputs": [
        {
          "internalType": "address",
          "name": "manager",
          "type": "address"
        },
        {
          "internalType": "address",
          "name": "asset",
          "type": "address"
        },
        {
          "internalType": "uint256",
          "name": "amount",
          "type": "uint256"
        }
      ],
      "name": "approveThis",
      "outputs": [],
      "stateMutability": "nonpayable",
      "type": "function"
    },
    {
      "inputs": [
        {
          "internalType": "address",
          "name": "account",
          "type": "address"
        }
      ],
      "name": "balanceOf",
      "outputs": [
        {
          "internalType": "uint256",
          "name": "",
          "type": "uint256"
        }
      ],
      "stateMutability": "view",
      "type": "function"
    },
    {
      "inputs": [],
      "name": "baseBorrowMin",
      "outputs": [
        {
          "internalType": "uint256",
          "name": "",
          "type": "uint256"
        }
      ],
      "stateMutability": "view",
      "type": "function"
    },
    {
      "inputs": [],
      "name": "baseMinForRewards",
      "outputs": [
        {
          "internalType": "uint256",
          "name": "",
          "type": "uint256"
        }
      ],
      "stateMutability": "view",
      "type": "function"
    },
    {
      "inputs": [],
      "name": "baseScale",
      "outputs": [
        {
          "internalType": "uint256",
          "name": "",
          "type": "uint256"
        }
      ],
      "stateMutability": "view",
      "type": "function"
    },
    {
      "inputs": [],
      "name": "baseToken",
      "outputs": [
        {
          "internalType": "address",
          "name": "",
          "type": "address"
        }
      ],
      "stateMutability": "view",
      "type": "function"
    },
    {
      "inputs": [],
      "name": "baseTokenPriceFeed",
      "outputs": [
        {
          "internalType": "address",
          "name": "",
          "type": "address"
        }
      ],
      "stateMutability": "view",
      "type": "function"
    },
    {
      "inputs": [],
      "name": "baseTrackingBorrowSpeed",
      "outputs": [
        {
          "internalType": "uint256",
          "name": "",
          "type": "uint256"
        }
      ],
      "stateMutability": "view",
      "type": "function"
    },
    {
      "inputs": [],
      "name": "baseTrackingSupplySpeed",
      "outputs": [
        {
          "internalType": "uint256",
          "name": "",
          "type": "uint256"
        }
      ],
      "stateMutability": "view",
      "type": "function"
    },
    {
      "inputs": [
        {
          "internalType": "address",
          "name": "account",
          "type": "address"
        }
      ],
      "name": "borrowBalanceOf",
      "outputs": [
        {
          "internalType": "uint256",
          "name": "",
          "type": "uint256"
        }
      ],
      "stateMutability": "view",
      "type": "function"
    },
    {
      "inputs": [],
      "name": "borrowKink",
      "outputs": [
        {
          "internalType": "uint256",
          "name": "",
          "type": "uint256"
        }
      ],
      "stateMutability": "view",
      "type": "function"
    },
    {
      "inputs": [],
      "name": "borrowPerSecondInterestRateBase",
      "outputs": [
        {
          "internalType": "uint256",
          "name": "",
          "type": "uint256"
        }
      ],
      "stateMutability": "view",
      "type": "function"
    },
    {
      "inputs": [],
      "name": "borrowPerSecondInterestRateSlopeHigh",
      "outputs": [
        {
          "internalType": "uint256",
          "name": "",
          "type": "uint256"
        }
      ],
      "stateMutability": "view",
      "type": "function"
    },
    {
      "inputs": [],
      "name": "borrowPerSecondInterestRateSlopeLow",
      "outputs": [
        {
          "internalType": "uint256",
          "name": "",
          "type": "uint256"
        }
      ],
      "stateMutability": "view",
      "type": "function"
    },
    {
      "inputs": [
        {
          "internalType": "address",
          "name": "asset",
          "type": "address"
        },
        {
          "internalType": "uint256",
          "name": "minAmount",
          "type": "uint256"
        },
        {
          "internalType": "uint256",
          "name": "baseAmount",
          "type": "uint256"
        },
        {
          "internalType": "address",
          "name": "recipient",
          "type": "address"
        }
      ],
      "name": "buyCollateral",
      "outputs": [],
      "stateMutability": "nonpayable",
      "type": "function"
    },
    {
      "inputs": [],
      "name": "decimals",
      "outputs": [
        {
          "internalType": "uint8",
          "name": "",
          "type": "uint8"
        }
      ],
      "stateMutability": "view",
      "type": "function"
    },
    {
      "inputs": [],
      "name": "extensionDelegate",
      "outputs": [
        {
          "internalType": "address",
          "name": "",
          "type": "address"
        }
      ],
      "stateMutability": "view",
      "type": "function"
    },
    {
      "inputs": [
        {
          "internalType": "uint8",
          "name": "i",
          "type": "uint8"
        }
      ],
      "name": "getAssetInfo",
      "outputs": [
        {
          "components": [
            {
              "internalType": "uint8",
              "name": "offset",
              "type": "uint8"
            },
            {
              "internalType": "address",
              "name": "asset",
              "type": "address"
            },
            {
              "internalType": "address",
              "name": "priceFeed",
              "type": "address"
            },
            {
              "internalType": "uint64",
              "name": "scale",
              "type": "uint64"
            },
            {
              "internalType": "uint64",
              "name": "borrowCollateralFactor",
              "type": "uint64"
            },
            {
              "internalType": "uint64",
              "name": "liquidateCollateralFactor",
              "type": "uint64"
            },
            {
              "internalType": "uint64",
              "name": "liquidationFactor",
              "type": "uint64"
            },
            {
              "internalType": "uint128",
              "name": "supplyCap",
              "type": "uint128"
            }
          ],
          "internalType": "struct CometCore.AssetInfo",
          "name": "",
          "type": "tuple"
        }
      ],
      "stateMutability": "view",
      "type": "function"
    },
    {
      "inputs": [
        {
          "internalType": "address",
          "name": "asset",
          "type": "address"
        }
      ],
      "name": "getAssetInfoByAddress",
      "outputs": [
        {
          "components": [
            {
              "internalType": "uint8",
              "name": "offset",
              "type": "uint8"
            },
            {
              "internalType": "address",
              "name": "asset",
              "type": "address"
            },
            {
              "internalType": "address",
              "name": "priceFeed",
              "type": "address"
            },
            {
              "internalType": "uint64",
              "name": "scale",
              "type": "uint64"
            },
            {
              "internalType": "uint64",
              "name": "borrowCollateralFactor",
              "type": "uint64"
            },
            {
              "internalType": "uint64",
              "name": "liquidateCollateralFactor",
              "type": "uint64"
            },
            {
              "internalType": "uint64",
              "name": "liquidationFactor",
              "type": "uint64"
            },
            {
              "internalType": "uint128",
              "name": "supplyCap",
              "type": "uint128"
            }
          ],
          "internalType": "struct CometCore.AssetInfo",
          "name": "",
          "type": "tuple"
        }
      ],
      "stateMutability": "view",
      "type": "function"
    },
    {
      "inputs": [
        {
          "internalType": "uint256",
          "name": "utilization",
          "type": "uint256"
        }
      ],
      "name": "getBorrowRate",
      "outputs": [
        {
          "internalType": "uint64",
          "name": "",
          "type": "uint64"
        }
      ],
      "stateMutability": "view",
      "type": "function"
    },
    {
      "inputs": [
        {
          "internalType": "address",
          "name": "priceFeed",
          "type": "address"
        }
      ],
      "name": "getPrice",
      "outputs": [
        {
          "internalType": "uint256",
          "name": "",
          "type": "uint256"
        }
      ],
      "stateMutability": "view",
      "type": "function"
    },
    {
      "inputs": [],
      "name": "getReserves",
      "outputs": [
        {
          "internalType": "int256",
          "name": "",
          "type": "int256"
        }
      ],
      "stateMutability": "view",
      "type": "function"
    },
    {
      "inputs": [
        {
          "internalType": "uint256",
          "name": "utilization",
          "type": "uint256"
        }
      ],
      "name": "getSupplyRate",
      "outputs": [
        {
          "internalType": "uint64",
          "name": "",
          "type": "uint64"
        }
      ],
      "stateMutability": "view",
      "type": "function"
    },
    {
      "inputs": [],
      "name": "getUtilization",
      "outputs": [
        {
          "internalType": "uint256",
          "name": "",
          "type": "uint256"
        }
      ],
      "stateMutability": "view",
      "type": "function"
    },
    {
      "inputs": [],
      "name": "governor",
      "outputs": [
        {
          "internalType": "address",
          "name": "",
          "type": "address"
        }
      ],
      "stateMutability": "view",
      "type": "function"
    },
    {
      "inputs": [
        {
          "internalType": "address",
          "name": "owner",
          "type": "address"
        },
        {
          "internalType": "address",
          "name": "manager",
          "type": "address"
        }
      ],
      "name": "hasPermission",
      "outputs": [
        {
          "internalType": "bool",
          "name": "",
          "type": "bool"
        }
      ],
      "stateMutability": "view",
      "type": "function"
    },
    {
      "inputs": [
        {
          "internalType": "address",
          "name": "liquidator",
          "type": "address"
        }
      ],
      "name": "initialize",
      "outputs": [],
      "stateMutability": "nonpayable",
      "type": "function"
    },
    {
      "inputs": [],
      "name": "initializeStorage",
      "outputs": [],
      "stateMutability": "nonpayable",
      "type": "function"
    },
    {
      "inputs": [],
      "name": "isAbsorbPaused",
      "outputs": [
        {
          "internalType": "bool",
          "name": "",
          "type": "bool"
        }
      ],
      "stateMutability": "view",
      "type": "function"
    },
    {
      "inputs": [
        {
          "internalType": "address",
          "name": "",
          "type": "address"
        },
        {
          "internalType": "address",
          "name": "",
          "type": "address"
        }
      ],
      "name": "isAllowed",
      "outputs": [
        {
          "internalType": "bool",
          "name": "",
          "type": "bool"
        }
      ],
      "stateMutability": "view",
      "type": "function"
    },
    {
      "inputs": [
        {
          "internalType": "address",
          "name": "account",
          "type": "address"
        }
      ],
      "name": "isBorrowCollateralized",
      "outputs": [
        {
          "internalType": "bool",
          "name": "",
          "type": "bool"
        }
      ],
      "stateMutability": "view",
      "type": "function"
    },
    {
      "inputs": [],
      "name": "isBuyPaused",
      "outputs": [
        {
          "internalType": "bool",
          "name": "",
          "type": "bool"
        }
      ],
      "stateMutability": "view",
      "type": "function"
    },
    {
      "inputs": [
        {
          "internalType": "address",
          "name": "account",
          "type": "address"
        }
      ],
      "name": "isLiquidatable",
      "outputs": [
        {
          "internalType": "bool",
          "name": "",
          "type": "bool"
        }
      ],
      "stateMutability": "view",
      "type": "function"
    },
    {
      "inputs": [],
      "name": "isSupplyPaused",
      "outputs": [
        {
          "internalType": "bool",
          "name": "",
          "type": "bool"
        }
      ],
      "stateMutability": "view",
      "type": "function"
    },
    {
      "inputs": [],
      "name": "isTransferPaused",
      "outputs": [
        {
          "internalType": "bool",
          "name": "",
          "type": "bool"
        }
      ],
      "stateMutability": "view",
      "type": "function"
    },
    {
      "inputs": [],
      "name": "isWithdrawPaused",
      "outputs": [
        {
          "internalType": "bool",
          "name": "",
          "type": "bool"
        }
      ],
      "stateMutability": "view",
      "type": "function"
    },
    {
      "inputs": [
        {
          "internalType": "address",
          "name": "",
          "type": "address"
        }
      ],
      "name": "liquidatorPoints",
      "outputs": [
        {
          "internalType": "uint32",
          "name": "numAbsorbs",
          "type": "uint32"
        },
        {
          "internalType": "uint64",
          "name": "numAbsorbed",
          "type": "uint64"
        },
        {
          "internalType": "uint128",
          "name": "approxSpend",
          "type": "uint128"
        },
        {
          "internalType": "uint32",
          "name": "_reserved",
          "type": "uint32"
        }
      ],
      "stateMutability": "view",
      "type": "function"
    },
    {
      "inputs": [],
      "name": "newFunction",
      "outputs": [
        {
          "internalType": "int256",
          "name": "",
          "type": "int256"
        }
      ],
      "stateMutability": "pure",
      "type": "function"
    },
    {
      "inputs": [],
      "name": "numAssets",
      "outputs": [
        {
          "internalType": "uint8",
          "name": "",
          "type": "uint8"
        }
      ],
      "stateMutability": "view",
      "type": "function"
    },
    {
      "inputs": [
        {
          "internalType": "bool",
          "name": "supplyPaused",
          "type": "bool"
        },
        {
          "internalType": "bool",
          "name": "transferPaused",
          "type": "bool"
        },
        {
          "internalType": "bool",
          "name": "withdrawPaused",
          "type": "bool"
        },
        {
          "internalType": "bool",
          "name": "absorbPaused",
          "type": "bool"
        },
        {
          "internalType": "bool",
          "name": "buyPaused",
          "type": "bool"
        }
      ],
      "name": "pause",
      "outputs": [],
      "stateMutability": "nonpayable",
      "type": "function"
    },
    {
      "inputs": [],
      "name": "pauseGuardian",
      "outputs": [
        {
          "internalType": "address",
          "name": "",
          "type": "address"
        }
      ],
      "stateMutability": "view",
      "type": "function"
    },
    {
      "inputs": [
        {
          "internalType": "address",
          "name": "asset",
          "type": "address"
        },
        {
          "internalType": "uint256",
          "name": "baseAmount",
          "type": "uint256"
        }
      ],
      "name": "quoteCollateral",
      "outputs": [
        {
          "internalType": "uint256",
          "name": "",
          "type": "uint256"
        }
      ],
      "stateMutability": "view",
      "type": "function"
    },
    {
      "inputs": [],
      "name": "storeFrontPriceFactor",
      "outputs": [
        {
          "internalType": "uint256",
          "name": "",
          "type": "uint256"
        }
      ],
      "stateMutability": "view",
      "type": "function"
    },
    {
      "inputs": [
        {
          "internalType": "address",
          "name": "asset",
          "type": "address"
        },
        {
          "internalType": "uint256",
          "name": "amount",
          "type": "uint256"
        }
      ],
      "name": "supply",
      "outputs": [],
      "stateMutability": "nonpayable",
      "type": "function"
    },
    {
      "inputs": [
        {
          "internalType": "address",
          "name": "from",
          "type": "address"
        },
        {
          "internalType": "address",
          "name": "dst",
          "type": "address"
        },
        {
          "internalType": "address",
          "name": "asset",
          "type": "address"
        },
        {
          "internalType": "uint256",
          "name": "amount",
          "type": "uint256"
        }
      ],
      "name": "supplyFrom",
      "outputs": [],
      "stateMutability": "nonpayable",
      "type": "function"
    },
    {
      "inputs": [],
      "name": "supplyKink",
      "outputs": [
        {
          "internalType": "uint256",
          "name": "",
          "type": "uint256"
        }
      ],
      "stateMutability": "view",
      "type": "function"
    },
    {
      "inputs": [],
      "name": "supplyPerSecondInterestRateBase",
      "outputs": [
        {
          "internalType": "uint256",
          "name": "",
          "type": "uint256"
        }
      ],
      "stateMutability": "view",
      "type": "function"
    },
    {
      "inputs": [],
      "name": "supplyPerSecondInterestRateSlopeHigh",
      "outputs": [
        {
          "internalType": "uint256",
          "name": "",
          "type": "uint256"
        }
      ],
      "stateMutability": "view",
      "type": "function"
    },
    {
      "inputs": [],
      "name": "supplyPerSecondInterestRateSlopeLow",
      "outputs": [
        {
          "internalType": "uint256",
          "name": "",
          "type": "uint256"
        }
      ],
      "stateMutability": "view",
      "type": "function"
    },
    {
      "inputs": [
        {
          "internalType": "address",
          "name": "dst",
          "type": "address"
        },
        {
          "internalType": "address",
          "name": "asset",
          "type": "address"
        },
        {
          "internalType": "uint256",
          "name": "amount",
          "type": "uint256"
        }
      ],
      "name": "supplyTo",
      "outputs": [],
      "stateMutability": "nonpayable",
      "type": "function"
    },
    {
      "inputs": [],
      "name": "targetReserves",
      "outputs": [
        {
          "internalType": "uint256",
          "name": "",
          "type": "uint256"
        }
      ],
      "stateMutability": "view",
      "type": "function"
    },
    {
      "inputs": [],
      "name": "totalBorrow",
      "outputs": [
        {
          "internalType": "uint256",
          "name": "",
          "type": "uint256"
        }
      ],
      "stateMutability": "view",
      "type": "function"
    },
    {
      "inputs": [],
      "name": "totalSupply",
      "outputs": [
        {
          "internalType": "uint256",
          "name": "",
          "type": "uint256"
        }
      ],
      "stateMutability": "view",
      "type": "function"
    },
    {
      "inputs": [
        {
          "internalType": "address",
          "name": "",
          "type": "address"
        }
      ],
      "name": "totalsCollateral",
      "outputs": [
        {
          "internalType": "uint128",
          "name": "totalSupplyAsset",
          "type": "uint128"
        },
        {
          "internalType": "uint128",
          "name": "_reserved",
          "type": "uint128"
        }
      ],
      "stateMutability": "view",
      "type": "function"
    },
    {
      "inputs": [],
      "name": "trackingIndexScale",
      "outputs": [
        {
          "internalType": "uint256",
          "name": "",
          "type": "uint256"
        }
      ],
      "stateMutability": "view",
      "type": "function"
    },
    {
      "inputs": [
        {
          "internalType": "address",
          "name": "dst",
          "type": "address"
        },
        {
          "internalType": "uint256",
          "name": "amount",
          "type": "uint256"
        }
      ],
      "name": "transfer",
      "outputs": [
        {
          "internalType": "bool",
          "name": "",
          "type": "bool"
        }
      ],
      "stateMutability": "nonpayable",
      "type": "function"
    },
    {
      "inputs": [
        {
          "internalType": "address",
          "name": "dst",
          "type": "address"
        },
        {
          "internalType": "address",
          "name": "asset",
          "type": "address"
        },
        {
          "internalType": "uint256",
          "name": "amount",
          "type": "uint256"
        }
      ],
      "name": "transferAsset",
      "outputs": [],
      "stateMutability": "nonpayable",
      "type": "function"
    },
    {
      "inputs": [
        {
          "internalType": "address",
          "name": "src",
          "type": "address"
        },
        {
          "internalType": "address",
          "name": "dst",
          "type": "address"
        },
        {
          "internalType": "address",
          "name": "asset",
          "type": "address"
        },
        {
          "internalType": "uint256",
          "name": "amount",
          "type": "uint256"
        }
      ],
      "name": "transferAssetFrom",
      "outputs": [],
      "stateMutability": "nonpayable",
      "type": "function"
    },
    {
      "inputs": [
        {
          "internalType": "address",
          "name": "src",
          "type": "address"
        },
        {
          "internalType": "address",
          "name": "dst",
          "type": "address"
        },
        {
          "internalType": "uint256",
          "name": "amount",
          "type": "uint256"
        }
      ],
      "name": "transferFrom",
      "outputs": [
        {
          "internalType": "bool",
          "name": "",
          "type": "bool"
        }
      ],
      "stateMutability": "nonpayable",
      "type": "function"
    },
    {
      "inputs": [
        {
          "internalType": "address",
          "name": "",
          "type": "address"
        }
      ],
      "name": "userBasic",
      "outputs": [
        {
          "internalType": "int104",
          "name": "principal",
          "type": "int104"
        },
        {
          "internalType": "uint64",
          "name": "baseTrackingIndex",
          "type": "uint64"
        },
        {
          "internalType": "uint64",
          "name": "baseTrackingAccrued",
          "type": "uint64"
        },
        {
          "internalType": "uint16",
          "name": "assetsIn",
          "type": "uint16"
        },
        {
          "internalType": "uint8",
          "name": "_reserved",
          "type": "uint8"
        }
      ],
      "stateMutability": "view",
      "type": "function"
    },
    {
      "inputs": [
        {
          "internalType": "address",
          "name": "",
          "type": "address"
        },
        {
          "internalType": "address",
          "name": "",
          "type": "address"
        }
      ],
      "name": "userCollateral",
      "outputs": [
        {
          "internalType": "uint128",
          "name": "balance",
          "type": "uint128"
        },
        {
          "internalType": "uint128",
          "name": "_reserved",
          "type": "uint128"
        }
      ],
      "stateMutability": "view",
      "type": "function"
    },
    {
      "inputs": [
        {
          "internalType": "address",
          "name": "",
          "type": "address"
        }
      ],
      "name": "userNonce",
      "outputs": [
        {
          "internalType": "uint256",
          "name": "",
          "type": "uint256"
        }
      ],
      "stateMutability": "view",
      "type": "function"
    },
    {
      "inputs": [
        {
          "internalType": "address",
          "name": "asset",
          "type": "address"
        },
        {
          "internalType": "uint256",
          "name": "amount",
          "type": "uint256"
        }
      ],
      "name": "withdraw",
      "outputs": [],
      "stateMutability": "nonpayable",
      "type": "function"
    },
    {
      "inputs": [
        {
          "internalType": "address",
          "name": "src",
          "type": "address"
        },
        {
          "internalType": "address",
          "name": "to",
          "type": "address"
        },
        {
          "internalType": "address",
          "name": "asset",
          "type": "address"
        },
        {
          "internalType": "uint256",
          "name": "amount",
          "type": "uint256"
        }
      ],
      "name": "withdrawFrom",
      "outputs": [],
      "stateMutability": "nonpayable",
      "type": "function"
    },
    {
      "inputs": [
        {
          "internalType": "address",
          "name": "to",
          "type": "address"
        },
        {
          "internalType": "uint256",
          "name": "amount",
          "type": "uint256"
        }
      ],
      "name": "withdrawReserves",
      "outputs": [],
      "stateMutability": "nonpayable",
      "type": "function"
    },
    {
      "inputs": [
        {
          "internalType": "address",
          "name": "to",
          "type": "address"
        },
        {
          "internalType": "address",
          "name": "asset",
          "type": "address"
        },
        {
          "internalType": "uint256",
          "name": "amount",
          "type": "uint256"
        }
      ],
      "name": "withdrawTo",
      "outputs": [],
      "stateMutability": "nonpayable",
      "type": "function"
    }
  ],
  "bytecode": "0x6107406040523462000382576200001f6200001962000563565b620007dc565b6040516149b090816200109d823960805181818161061a01528181610d3101528181611397015261178b015260a05181818161085d0152610e37015260c05181818161081501528181611318015281816115c2015281816117f4015281816118a5015281816129d90152818161315b0152818161323e015281816137bf01528181613c140152613cf5015260e0518181816119b701528181612b110152818161417c015261450e015261010051818181610e77015261464c0152610120518181816112ce0152612592015261014051818181610f15015281816125ce0152612638015261016051818181611024015261266801526101805181818161117e01526125f501526101a05181818161110601526126a201526101c0518181816109f0015281816126de015261274801526101e0518181816108fa0152612778015261020051818181610fa001526127050152610220518181816107ad01526144d2015261024051818181610caa01528181612b3701528181612dd80152818161439c015261454601526102605181818161135801526130440152610280518181816106ce015261248401526102a0518181816111ba015261240c01526102c051818181611142015261237e01526102e051818181610a6a01528181613a160152613d94015261030051818181610ae5015261196701526103205181610aa801526103405181818161129101528181611b790152818161219301528181612b6e01528181612cc601526141ac0152610360518161306b01526103805181611bc901526103a05181611ba801526103c05181611d2a01526103e05181611d0901526104005181611d7a01526104205181611d5901526104405181611dca01526104605181611da901526104805181611e1a01526104a05181611df901526104c05181611e6a01526104e05181611e4901526105005181611eba01526105205181611e9901526105405181611f0a01526105605181611ee901526105805181611f5a01526105a05181611f3901526105c05181611faa01526105e05181611f8901526106005181611ffa01526106205181611fd90152610640518161204a015261066051816120290152610680518161209a01526106a0518161207901526106c051816120ea01526106e051816120c901526107005181612138015261072051816121170152f35b600080fd5b50634e487b7160e01b600052604160045260246000fd5b601f909101601f19168101906001600160401b03821190821017620003c257604052565b620003cc62000387565b604052565b90620003e160405192836200039e565b565b51906001600160a01b03821682036200038257565b6001600160401b031690565b51906001600160401b03821682036200038257565b51906001600160681b03821682036200038257565b519060ff821682036200038257565b81601f8201121562000382578051906001600160401b03821162000553575b604080519360209162000475838660051b01876200039e565b848652828601918360e08097028601019481861162000382578401925b858410620004a4575050505050505090565b86848303126200038257825190620004bd88836200039e565b620004c885620003e3565b8252620004d7868601620003e3565b86830152620004e88486016200042e565b848301526060620004fb81870162000404565b9083015260806200050e81870162000404565b9083015260a06200052181870162000404565b9083015260c085810151929091906001600160801b038416840362000382578993889382015281520193019262000492565b6200055d62000387565b6200045c565b62005a4d80380380604051926200057b82856200039e565b8339810190602081830312620003825780516001600160401b03918282116200038257016102a080828503126200038257620005b790620003d1565b92620005c382620003e3565b8452620005d360208301620003e3565b6020850152620005e660408301620003e3565b6040850152620005f960608301620003e3565b60608501526200060c60808301620003e3565b60808501526200061f60a0830162000404565b60a08501526200063260c0830162000404565b60c08501526200064560e0830162000404565b60e08501526101006200065a81840162000404565b908501526101206200066e81840162000404565b908501526101406200068281840162000404565b908501526101606200069681840162000404565b90850152610180620006aa81840162000404565b908501526101a0620006be81840162000404565b908501526101c0620006d281840162000404565b908501526101e0620006e681840162000404565b90850152610200620006fa81840162000404565b908501526102206200070e81840162000419565b908501526102406200072281840162000419565b908501526102606200073681840162000419565b90850152610280928383015190811162000382576200075692016200043d565b9082015290565b90816020910312620003825762000774906200042e565b90565b506040513d6000823e3d90fd5b50634e487b7160e01b600052601260045260246000fd5b8115620007a6570490565b620007b062000784565b0490565b6001600160401b0391821691908215620007cd57160490565b620007d762000784565b160490565b60408181018051909291906200080990620007fd906001600160a01b031681565b6001600160a01b031690565b90805180938163313ce56760e01b94858252602091829160049889915afa92831562000d75575b60009362000d51575b5060ff8316926012841162000d41576101a0908184019460018060401b0391670de0b6b3a7640000836200086e8951620003f8565b161162000d3157610280948587019b600f8d51511162000d21576102208881018051909c919391906001600160681b03161562000d115790600860ff8f9493838f9160608f0197620008ce620007fd620007fd8b5160018060a01b031690565b93518094819382525afa90811562000d01575b60009162000ccd575b50160362000cbd5789516001600160a01b03908116608052908a0151811660a0529051811660c05290511660e052608087015162000944906200093e906001600160a01b0316996101009a8b5251620003f8565b620003f8565b905261032052600a0a1694610240968688526101c0966200096c6200093e89880151620003f8565b92610260938452620f424080921062000cae57508851906200098e916200079b565b61036052516001600160681b03166001600160681b03166102c0526101e09283850151620009bc90620003f8565b620009c790620003f8565b90526102009687850151620009dc90620003f8565b620009e790620003f8565b6102a0528401516001600160681b039081166102e05290840151166103005260a083015162000a1690620003f8565b62000a2190620003f8565b936101209485526301e13380958680938160c088015162000a4290620003f8565b9062000a4e91620007b4565b62000a5990620003f8565b90610140918252828060e08a015162000a7290620003f8565b9062000a7e91620007b4565b62000a8990620003f8565b9561016096875289015162000a9e90620003f8565b9062000aaa91620007b4565b62000ab590620003f8565b98610180998a5288015162000aca90620003f8565b62000ad590620003f8565b905286015162000ae590620003f8565b9062000af191620007b4565b62000afc90620003f8565b905283015162000b0c90620003f8565b9062000b1891620007b4565b62000b2390620003f8565b9052015162000b3290620003f8565b9062000b3e91620007b4565b62000b4990620003f8565b905281515160ff16610340528151600062000b649162000dc1565b6103a052610380528151600162000b7b9162000dc1565b6103e0526103c0528151600262000b929162000dc1565b61042052610400528151600362000ba99162000dc1565b610460526104405281519062000bbf9162000dc1565b6104a052610480528051600562000bd69162000dc1565b6104e0526104c0528051600662000bed9162000dc1565b61052052610500528051600762000c049162000dc1565b61056052610540528051600862000c1b9162000dc1565b6105a052610580528051600962000c329162000dc1565b6105e0526105c0528051600a62000c499162000dc1565b61062052610600528051600b62000c609162000dc1565b61066052610640528051600c62000c779162000dc1565b6106a052610680528051600d62000c8e9162000dc1565b6106e0526106c05251600e62000ca49162000dc1565b6107205261070052565b51630456c65960e51b81528a90fd5b8b51630456c65960e51b81528e90fd5b62000cf29150843d861162000cf9575b62000ce981836200039e565b8101906200075d565b38620008ea565b503d62000cdd565b62000d0b62000777565b620008e1565b8b51636e77247560e01b81528e90fd5b895163df8153c760e01b81528c90fd5b87516324dc918f60e11b81528a90fd5b8451630456c65960e51b81528790fd5b8162000d6d9294503d851162000cf95762000ce981836200039e565b913862000839565b62000d7f62000777565b62000830565b6040519062000d9660e0836200039e565b8160c06000918281528260208201528260408201528260608201528260808201528260a08201520152565b62000dcb62000d85565b508051821015620010925760059190911b016020015180516001600160a01b0316602082810151909391906001600160a01b031660409362000e108582015160ff1690565b926001600160a01b039081169283156200108457169185519663313ce56760e01b90818952600860ff60049a83818d818b5afa90811562001074575b60009162001052575b501603620010425760ff91885190815281818b81875afa91821562001032575b60009262001010575b505081861691829116036200100057606083019262000e9e8451620003f8565b93608082019462000eb46200093e8751620003f8565b6001600160401b03918216101562000ff057670de0b6b3a7640000809162000edd8851620003f8565b161162000fe05762000f2962000f3862000f2962000f23999a9b9c9d9462000f2362000f3062000f2962000f1861271062000f4899620007b4565b809e819551620003f8565b620007b4565b61ffff1690565b9a51620003f8565b9762000f2360a0860151620003f8565b9961ffff808816908716101562000fd357505060c0015162000f7f916200093e91600a9190910a906001600160801b03166200079b565b60a092831b61ffff60a01b169190911760b09390931b61ffff60b01b169290921760c09690961b61ffff60c01b1695909517949290921b60ff60a01b161760a89190911b600160a81b600160e81b03161790565b5163327d763960e21b8152fd5b89516304d6b32560e41b81528b90fd5b895163327d763960e21b81528b90fd5b8651630456c65960e51b81528890fd5b6200102a9250803d1062000cf95762000ce981836200039e565b388062000e7e565b6200103c62000777565b62000e75565b8751630456c65960e51b81528990fd5b6200106d9150843d861162000cf95762000ce981836200039e565b3862000e55565b6200107e62000777565b62000e4c565b506000965086955050505050565b505060009060009056fe60806040526004361015610018575b61001661463f565b005b60003560e01c8063042e02cf146105685780630902f1ac1461055f5780630bc47ad1146105565780630c340a241461054d57806318160ddd14610544578063189bb2f11461053b5780631b28d63e146105325780631c9f7fb9146105295780631f5954bd1461052057806323b872dd1461051757806324a3d6221461050e57806326441318146105055780632a48cf12146104fc5780632b92a07d146104f35780632d05670b146104ea5780632e04b8e7146104e1578063300e6beb146104d8578063313ce567146104cf57806332176c49146104c6578063374c49b4146104bd57806338aa813f146104b45780633b3bec2e146104ab57806341976e09146104a25780634232cd6314610499578063439e2e451461049057806344c1e5eb1461048757806344c35d071461047e57806344ff241d1461047557806359e017bd1461046c5780635a94b8d11461046357806367800b5f1461045a57806370a08231146104515780637914acc7146104485780637ac88ed11461043f5780637eb7113114610436578063804de71f1461042d5780638285ef40146104245780638d5d814c1461041b57806390323177146104125780639241a561146104095780639364e18a1461040057806394920cca146103f75780639ea99a5a146103ee5780639fa83b5a146103e5578063a1654379146103dc578063a1a1ef43146103d3578063a46fe83b146103ca578063a5b4ff79146103c1578063a9059cbb146103b8578063aba7f15e146103af578063ad14777c146103a6578063bfe69c8d1461039d578063c1ee2c1814610394578063c3b35a7e1461038b578063c3cecfd214610382578063c4d66de814610379578063c55dae6314610370578063c5fa15cf14610367578063c8c7fe6b1461035e578063cde6804114610355578063d8e5f6111461034c578063d955759d14610343578063dc4abafd1461033a578063e478795d14610331578063e4e6e77914610328578063e7dad6bd1461031f578063f2b9fdb8146103165763f3fef3a30361000e57610311611a13565b61000e565b506103116119e6565b506103116119a0565b5061031161184a565b5061031161175f565b506103116116ec565b506103116116cd565b506103116116a6565b5061031161168a565b5061031161165f565b506103116115f1565b506103116115ab565b50610311611563565b506103116114fe565b506103116114e2565b506103116114c4565b50610311611429565b5061031161137b565b5061031161133f565b506103116112f1565b506103116112b5565b50610311611276565b5061031161124f565b5061031161120e565b506103116111dd565b506103116111a1565b50610311611165565b50610311611129565b506103116110ed565b506103116110cf565b506103116110a8565b50610311611047565b5061031161100b565b50610311610fef565b50610311610fc3565b50610311610f87565b50610311610f5f565b50610311610f38565b50610311610efc565b50610311610ea6565b50610311610e60565b50610311610cd7565b50610311610c91565b50610311610c75565b50610311610c59565b50610311610c31565b50610311610bfc565b50610311610b30565b50610311610b08565b50610311610acc565b50610311610a8d565b50610311610a51565b50610311610a13565b506103116109d7565b50610311610982565b506103116108e1565b506103116108c3565b50610311610846565b506103116107fd565b50610311610794565b5061031161070e565b506103116106f1565b506103116106b5565b50610311610649565b50610311610603565b506103116105dd565b506103116105b9565b50610311610587565b6001600160a01b0381160361058257565b600080fd5b50346105825760203660031901126105825760206105af6004356105aa81610571565b612c88565b6040519015158152f35b50346105825760003660031901126105825760206105d5612984565b604051908152f35b50346105825760003660031901126105825760206001805460f81c161515604051908152f35b5034610582576000366003190112610582576040517f00000000000000000000000000000000000000000000000000000000000000006001600160a01b03168152602090f35b503461058257600036600319011261058257602066038d7ea4c680006106ac610670612204565b6106936001549161068d64ffffffffff91828560d01c1690612278565b166124e7565b506001600160401b0316906001600160681b0316611b1b565b04604051908152f35b50346105825760003660031901126105825760206040517f00000000000000000000000000000000000000000000000000000000000000008152f35b503461058257600036600319011261058257602060405160658152f35b5034610582576000806003193601126107915760015464ffffffffff8160d01c166107805764ffffffffff60d01b610744612204565b64ffffffffff60d01b1990921660d09290921b161760015580546001600160801b0319166e038d7ea4c6800000038d7ea4c68000178155604051f35b60405162dc149f60e41b8152600490fd5b80fd5b50346105825760003660031901126105825760206040517f00000000000000000000000000000000000000000000000000000000000000008152f35b908160609103126105825780356107e681610571565b91604060208301356107f781610571565b92013590565b50346105825761083b6108113660046107d0565b91907f00000000000000000000000000000000000000000000000000000000000000009133613787565b602060405160018152f35b5034610582576000366003190112610582576040517f00000000000000000000000000000000000000000000000000000000000000006001600160a01b03168152602090f35b91908260809103126105825781356108a381610571565b9160208101356108b281610571565b91606060408301356107f781610571565b5034610582576100166108d736600461088c565b9291909133613be5565b50346105825760003660031901126105825760206040517f00000000000000000000000000000000000000000000000000000000000000008152f35b9190826040910312610582576020823561093681610571565b92013561094281610571565b90565b9060018060a01b0316600052602052604060002090565b6001600160801b031690565b6001600160801b0391821681529116602082015260400190565b5034610582576109d36109b761099936600461091d565b6001600160a01b039091166000908152600660205260409020610945565b54604051918291608081901c906001600160801b031683610968565b0390f35b50346105825760003660031901126105825760206040517f00000000000000000000000000000000000000000000000000000000000000008152f35b503461058257602036600319011261058257600435610a3181610571565b60018060a01b031660005260046020526020604060002054604051908152f35b50346105825760003660031901126105825760206040517f00000000000000000000000000000000000000000000000000000000000000008152f35b503461058257600036600319011261058257602060405160ff7f0000000000000000000000000000000000000000000000000000000000000000168152f35b50346105825760003660031901126105825760206040517f00000000000000000000000000000000000000000000000000000000000000008152f35b50346105825760203660031901126105825760206105d5600435610b2b81610571565b6145f7565b50346105825760203660031901126105825760206105af600435610b5381610571565b612abf565b6001600160401b031690565b610bfa9092919260e08061010083019560ff815116845260018060a01b03806020830151166020860152604082015116604085015260018060401b036060820151166060850152610bc46080820151608086019060018060401b03169052565b60a0818101516001600160401b03169085015260c0818101516001600160401b03169085015201516001600160801b0316910152565b565b5034610582576020366003190112610582576109d3610c25600435610c2081610571565b612180565b60405191829182610b64565b50346105825760203660031901126105825760206105d5600435610c5481610571565b61285a565b503461058257610016610c6d3660046107d0565b913333613129565b503461058257610016610c893660046107d0565b913333613787565b50346105825760003660031901126105825760206040517f00000000000000000000000000000000000000000000000000000000000000008152f35b8015150361058257565b50346105825760a036600319011261058257600435610cf581610ccd565b602435610d0181610ccd565b60443591610d0e83610ccd565b60643592610d1b84610ccd565b608435610d2781610ccd565b60018060a01b03807f0000000000000000000000000000000000000000000000000000000000000000163314159081610e33575b50610e22577f3be39979091ae7ca962aa1c44e645f2df3c221b79f324afa5f44aedc8d2f690d94610e1d92610de8610da56000610d978861494c565b9060ff8080931691161b1690565b610db36001610d978a61494c565b17610dc26002610d978561494c565b17610dd16003610d978661494c565b17610de06004610d978761494c565b176001612d9c565b6040519586958693909594919260809360a0860197151586521515602086015215156040850152151560608401521515910152565b0390a1005b6040516282b42960e81b8152600490fd5b90507f00000000000000000000000000000000000000000000000000000000000000001633141538610d5b565b5034610582576000366003190112610582576040517f00000000000000000000000000000000000000000000000000000000000000006001600160a01b03168152602090f35b503461058257602036600319011261058257600435610ec481610571565b6001600160a01b0316600090815260026020526040908190205490519081906109d390608081901c906001600160801b031683610968565b50346105825760003660031901126105825760206040517f00000000000000000000000000000000000000000000000000000000000000008152f35b5034610582576000366003190112610582576020600460015460f81c161515604051908152f35b50346105825760203660031901126105825760206105d5600435610f8281610571565b614593565b50346105825760003660031901126105825760206040517f00000000000000000000000000000000000000000000000000000000000000008152f35b50346105825760403660031901126105825760206105d5600435610fe681610571565b60243590614474565b50346105825760003660031901126105825760206105d56127bf565b50346105825760003660031901126105825760206040517f00000000000000000000000000000000000000000000000000000000000000008152f35b503461058257600036600319011261058257602066038d7ea4c680006106ac61106e612204565b61108b6001549161068d64ffffffffff91828560d01c1690612278565b6001600160401b03169160681c6001600160681b03169050611b1b565b5034610582576000366003190112610582576020600860015460f81c161515604051908152f35b5034610582576100166110e336600461088c565b9291909133613129565b50346105825760003660031901126105825760206040517f00000000000000000000000000000000000000000000000000000000000000008152f35b50346105825760003660031901126105825760206040517f00000000000000000000000000000000000000000000000000000000000000008152f35b50346105825760003660031901126105825760206040517f00000000000000000000000000000000000000000000000000000000000000008152f35b50346105825760003660031901126105825760206040517f00000000000000000000000000000000000000000000000000000000000000008152f35b50346105825760203660031901126105825760206111fc6004356126a0565b6040516001600160401b039091168152f35b503461058257602060ff61124361122636600461091d565b6001600160a01b0390911660009081526003855260409020610945565b54166040519015158152f35b5034610582576000366003190112610582576020600260015460f81c161515604051908152f35b503461058257600036600319011261058257602060405160ff7f0000000000000000000000000000000000000000000000000000000000000000168152f35b50346105825760003660031901126105825760206040517f00000000000000000000000000000000000000000000000000000000000000008152f35b50346105825760403660031901126105825761083b60043561131281610571565b602435907f0000000000000000000000000000000000000000000000000000000000000000903333613787565b50346105825760003660031901126105825760206040517f00000000000000000000000000000000000000000000000000000000000000008152f35b50346105825761138c3660046107d0565b6001600160a01b03917f000000000000000000000000000000000000000000000000000000000000000083163303610e22576113e393600060209460405180978196829563095ea7b360e01b845260048401613dce565b0393165af1801561141c575b6113f557005b6100169060203d8111611415575b61140d8183611a40565b810190613435565b503d611403565b61142461284d565b6113ef565b50346105825760203660031901126105825761001660043561144a81610571565b6114526122de565b60018060a01b038116600052600560205260406000206114b96040519161147a60a084611a40565b54600c81900b83526001600160401b03606882901c8116602085015260a882901c16604084015261ffff60e882901c16606084015260f81c6080830152565b8051600c0b91612fc9565b5034610582576100166114d836600461088c565b9291909133613787565b5034610582576100166114f63660046107d0565b913333613be5565b50346105825760403660031901126105825760043561151c81610571565b602435906001600160401b03908183116105825736602384011215610582578260040135918211610582573660248360051b85010111610582576024610016930190613ff0565b50346105825760203660031901126105825760043561158181610571565b6001600160a01b03166000908152600760205260409020805463ffffffff191663ffffffff179055005b5034610582576000366003190112610582576040517f00000000000000000000000000000000000000000000000000000000000000006001600160a01b03168152602090f35b50346105825760203660031901126105825760043561160f81610571565b60018060a01b0316600052600760205260806040600020546040519063ffffffff8116825260018060401b038160201c166020830152600180841b038160601c16604083015260e01c6060820152f35b50346105825760203660031901126105825760043560ff8116810361058257610c256109d391611b68565b50346105825760206105af6116a036600461091d565b9061467e565b5034610582576000366003190112610582576020601060015460f81c161515604051908152f35b50346105825760203660031901126105825760206111fc600435612590565b50346105825760203660031901126105825760043561170a81610571565b60018060a01b0316600052600560205260a06040600020546040519080600c0b825260018060401b03808260681c1660208401528160a81c16604083015261ffff8160e81c16606083015260f81c6080820152f35b50346105825760403660031901126105825760043561177d81610571565b602435906001600160a01b037f000000000000000000000000000000000000000000000000000000000000000081163303610e22576117ba612984565b60008112908115611838575b506118265781611818847fec4431f2ba1a9382f6b0c4352b888cba6f7db91667d9f776abe5ad8ddc5401b6947f0000000000000000000000000000000000000000000000000000000000000000613de9565b6040519384521691602090a2005b60405163128bd24d60e31b8152600490fd5b6118429150614941565b8311386117c6565b50346105825760803660031901126105825760043561186881610571565b6044356064359161187883610571565b601060015460f81c1661198e5761188d612984565b60008112159081611963575b50611951576118c982337f000000000000000000000000000000000000000000000000000000000000000061344a565b6118d38282614474565b92602435841061193f578161191761193a927ff891b2a411b0e66a5f0a6ff1368670fefa287a13f541eb633a386a1a9cc7046b94611910886148a0565b9130613e71565b6040805194855260208501959095526001600160a01b0316933393918291820190565b0390a3005b60405163fa6ad35560e01b8152600490fd5b604051631d99ddbf60e01b8152600490fd5b90507f0000000000000000000000000000000000000000000000000000000000000000111538611899565b6040516313d0ff5960e31b8152600490fd5b5034610582576000366003190112610582576040517f00000000000000000000000000000000000000000000000000000000000000006001600160a01b03168152602090f35b503461058257604036600319011261058257610016600435611a0781610571565b60243590333333613129565b503461058257604036600319011261058257610016600435611a3481610571565b60243590333333613be5565b601f909101601f19168101906001600160401b03821190821017611a6357604052565b634e487b7160e01b600052604160045260246000fd5b90610bfa6040519283611a40565b60405190611a9761010083611a40565b8160e06000918281528260208201528260408201528260608201528260808201528260a08201528260c08201520152565b50634e487b7160e01b600052601260045260246000fd5b50634e487b7160e01b600052601160045260246000fd5b6001600160401b0391821691908215611b0e57160490565b611b16611ac8565b160490565b8060001904821181151516611b2e570290565b611b36611adf565b0290565b60ff16604d8111611b4c575b600a0a90565b611b54611adf565b611b46565b6001600160401b039091169052565b611b70611a87565b5060ff811660ff7f00000000000000000000000000000000000000000000000000000000000000001681101561216e5780611cfe57507f00000000000000000000000000000000000000000000000000000000000000007f00000000000000000000000000000000000000000000000000000000000000005b6001600160401b0380611c06612710670de0b6b3a7640000611af6565b1661ffff9181838560a01c1690611c1c91611b1b565b611c2590610b58565b91611c368160b087901c8616611b1b565b611c3f90610b58565b938560c01c1690611c4f91611b1b565b611c5890610b58565b938560a01c60ff16611c6990611b3a565b611c7290610b58565b91808316908760a81c1690611c8691611b1b565b611c8f9061095c565b95611c9b610100611a79565b60ff9890981688526001600160a01b039182166020890152166040870152611cc69060608701611b59565b611cd39060808601611b59565b611ce09060a08501611b59565b611ced9060c08401611b59565b6001600160801b031660e082015290565b60018103611d4e57507f00000000000000000000000000000000000000000000000000000000000000007f0000000000000000000000000000000000000000000000000000000000000000611be9565b60028103611d9e57507f00000000000000000000000000000000000000000000000000000000000000007f0000000000000000000000000000000000000000000000000000000000000000611be9565b60038103611dee57507f00000000000000000000000000000000000000000000000000000000000000007f0000000000000000000000000000000000000000000000000000000000000000611be9565b60048103611e3e57507f00000000000000000000000000000000000000000000000000000000000000007f0000000000000000000000000000000000000000000000000000000000000000611be9565b60058103611e8e57507f00000000000000000000000000000000000000000000000000000000000000007f0000000000000000000000000000000000000000000000000000000000000000611be9565b60068103611ede57507f00000000000000000000000000000000000000000000000000000000000000007f0000000000000000000000000000000000000000000000000000000000000000611be9565b60078103611f2e57507f00000000000000000000000000000000000000000000000000000000000000007f0000000000000000000000000000000000000000000000000000000000000000611be9565b60088103611f7e57507f00000000000000000000000000000000000000000000000000000000000000007f0000000000000000000000000000000000000000000000000000000000000000611be9565b60098103611fce57507f00000000000000000000000000000000000000000000000000000000000000007f0000000000000000000000000000000000000000000000000000000000000000611be9565b600a810361201e57507f00000000000000000000000000000000000000000000000000000000000000007f0000000000000000000000000000000000000000000000000000000000000000611be9565b600b810361206e57507f00000000000000000000000000000000000000000000000000000000000000007f0000000000000000000000000000000000000000000000000000000000000000611be9565b600c81036120be57507f00000000000000000000000000000000000000000000000000000000000000007f0000000000000000000000000000000000000000000000000000000000000000611be9565b600d810361210e57507f00000000000000000000000000000000000000000000000000000000000000007f0000000000000000000000000000000000000000000000000000000000000000611be9565b600e0361215c577f00000000000000000000000000000000000000000000000000000000000000007f0000000000000000000000000000000000000000000000000000000000000000611be9565b60405163971241a160e01b8152600490fd5b604051633640530560e01b8152600490fd5b90612189611a87565b5060009060ff92837f000000000000000000000000000000000000000000000000000000000000000016925b83858216106121d057604051633640530560e01b8152600490fd5b6121d981611b68565b60208101516001600160a01b038481169116146121fb575060010184166121b5565b93505050915090565b600160281b42101561221b5764ffffffffff421690565b604051633d32ffdb60e01b8152600490fd5b9060405161223c60a082611a40565b608081935480600c0b835260018060401b03808260681c1660208501528160a81c16604084015261ffff8160e81c16606084015260f81c910152565b64ffffffffff918216911681811061228e570390565b612296611adf565b0390565b6001600160681b031690565b6001600160401b03918216919081169082900381116122c3570190565b6122cb611adf565b0190565b60681c6001600160681b031690565b6122e6612204565b61231061230661230060015464ffffffffff9060d01c1690565b83612278565b64ffffffffff1690565b908161231a575050565b8161237161232a610bfa946124e7565b60008054600160401b600160801b03191660409290921b600160401b600160801b0316919091178155919082546001600160401b0319166001600160401b03909116178255565b61237c60015461229a565b7f000000000000000000000000000000000000000000000000000000000000000092906001600160681b031683811015612471575b506123c56123c06001546122cf565b61229a565b928310156123f9575b50506001805464ffffffffff60d01b191660d09390931b64ffffffffff60d01b169290921790915550565b61243a61243561246994612430612449947f0000000000000000000000000000000000000000000000000000000000000000611b1b565b612dd2565b614854565b825460c01c6122a6565b6122a6565b81546001600160c01b031660c09190911b6001600160c01b031916179055565b3880806123ce565b6124bb6124a86124356124e193612430867f0000000000000000000000000000000000000000000000000000000000000000611b1b565b845460801c6001600160401b03166122a6565b8354600160801b600160c01b03191660809190911b600160801b600160c01b0316178355565b386123b1565b6000546001600160401b03604082901c8116939291811691908161250c575b50509190565b8161255f612559612539979461256b6125719761256587612540612565996125326127bf565b9e8f612590565b169d6126a0565b169b61255f612559670de0b6b3a7640000998a93611b1b565b84611b1b565b04614854565b906122a6565b98611b1b565b913880612506565b811981116122c3570190565b81811061228e570390565b7f00000000000000000000000000000000000000000000000000000000000000008082116126195750612435670de0b6b3a76400006125f2610942937f0000000000000000000000000000000000000000000000000000000000000000611b1b565b047f0000000000000000000000000000000000000000000000000000000000000000612579565b610942916124359161268c670de0b6b3a76400009161265c836125f2837f0000000000000000000000000000000000000000000000000000000000000000611b1b565b93818110612693575b037f0000000000000000000000000000000000000000000000000000000000000000611b1b565b0490612579565b61269b611adf565b612665565b7f00000000000000000000000000000000000000000000000000000000000000008082116127295750612435670de0b6b3a7640000612702610942937f0000000000000000000000000000000000000000000000000000000000000000611b1b565b047f0000000000000000000000000000000000000000000000000000000000000000612579565b610942916124359161268c670de0b6b3a76400009161276c83612702837f0000000000000000000000000000000000000000000000000000000000000000611b1b565b9381811061279c575b037f0000000000000000000000000000000000000000000000000000000000000000611b1b565b6127a4611adf565b612775565b81156127b3570490565b6127bb611ac8565b0490565b60005460015466038d7ea4c6800090612801906001600160681b036001600160401b03846127f1828816848616611b1b565b049560401c169160681c16611b1b565b048161280e575050600090565b670de0b6b3a764000090806000190482118115151661282c57020490565b612834611adf565b020490565b51906001600160501b038216820361058257565b506040513d6000823e3d90fd5b604051633fabe5a360e21b81529060a090829060049082906001600160a01b03165afa9081156128f8575b6000916128ac575b50600081131561289a5790565b60405163fd1ee34960e01b8152600490fd5b9060a0823d82116128f0575b816128c560a09383611a40565b8101031261079157506128d781612839565b506128e9608060208301519201612839565b503861288d565b3d91506128b8565b61290061284d565b612885565b90816020910312610582575190565b600082128015600160ff1b840183121661293e575b6001600160ff1b03830182131661228e570390565b612946611adf565b612929565b6000811280156001600160ff1b03839003841316612977575b600160ff1b8290038312166122c3570190565b61297f611adf565b612964565b61094261298f612204565b6129b26129ad6123066001549364ffffffffff8560d01c1690612278565b6124e7565b6040516370a0823160e01b8152306004820152929091906020846024816001600160a01b037f0000000000000000000000000000000000000000000000000000000000000000165afa938415612ab2575b600094612a6a575b5091612a5e612a58612a5893612a51612a649666038d7ea4c680009260018060401b0384612a448260018060681b039416848616611b1b565b0497169160681c16611b1b565b04956148f5565b916148f5565b90612914565b9061294b565b612a6493919450612a58612a5893612a51612a9e612a5e9460203d8111612aab575b612a968183611a40565b810190612905565b9794965050935050612a0b565b503d612a8c565b612aba61284d565b612a03565b90612ad5612ace836005610945565b54600c0b90565b906000928383600c0b1215612c7f57612b65612b0c612b06612afb846005979697610945565b5460e81c61ffff1690565b936146bb565b612b357f000000000000000000000000000000000000000000000000000000000000000061285a565b7f00000000000000000000000000000000000000000000000000000000000000006001600160401b031691612e1d565b90849360ff95867f000000000000000000000000000000000000000000000000000000000000000016955b8781169087821015612c715790889161ffff600180931b891616612bb6575b0116612b90565b9590915082811215612c655790612c5f8992612a64612c5a88612c54612c4f6080612c47612c168f612bf5612bed612c0992611b68565b976006610945565b60208801516001600160a01b031690610945565b546001600160801b031690565b6040860151612c2d906001600160a01b031661285a565b612c3a6060880151610b58565b91600180861b0316612dfd565b930151610b58565b610b58565b90612dbf565b6148f5565b95612baf565b50955050945050505090565b505094509450509050121590565b50915050600190565b90612c97612ace836005610945565b906000928383600c0b1215612d9757612cbd612b0c612b06612afb846005979697610945565b90849360ff95867f000000000000000000000000000000000000000000000000000000000000000016955b8781169087821015612d8a5790889161ffff600180931b891616612d0e575b0116612ce8565b9590915082811215612d7e5790612d788992612a64612c5a88612c54612c4f60a0612c47612d458f612bf5612bed612c0992611b68565b6040860151612d5c906001600160a01b031661285a565b612d696060880151610b58565b916001600160801b0316612dfd565b95612d07565b50509450945050505090565b5050945094505090501290565b509050565b80546001600160f81b031660f89290921b6001600160f81b031916919091179055565b670de0b6b3a7640000916127bb91611b1b565b6127a9907f000000000000000000000000000000000000000000000000000000000000000090611b1b565b90612e0791611b1b565b6001600160401b039091169081156127b3570490565b9190612e28906148f5565b6000808413939082136001600160ff1b03858216848204841116612ee4575b600160ff1b95600085129185918316858905831216612ed7575b60008512938416828905861216612eca575b058312911616612ebd575b6001600160401b03909216929102908215612eb0575b8114600019831416612ea4570590565b612eac611adf565b0590565b612eb8611ac8565b612e94565b612ec5611adf565b612e7e565b612ed2611adf565b612e73565b612edf611adf565b612e61565b612eec611adf565b612e47565b6001600160401b03918216911681811061228e570390565b600c0b6001600160671b03198114612f22575b60000390565b612f2a611adf565b612f1c565b805461ffff60e81b191660e89290921b61ffff60e81b16919091179055565b81518154602084015160408501516001600160e81b03199092166001600160681b039093169290921760689290921b600160681b600160a81b03169190911760a89190911b600160a81b600160e81b03161781556060820151610bfa9260ff9160809190612fc09061ffff1685612f2f565b01511690612d9c565b6130d290610bfa93612fdc8451600c0b90565b600c82900b855260009182918683600c83900b81136130e9576130696130426130a894613033612c4f6130909661302d6020613025612435995460018060401b039060801c1690565b920151610b58565b90612ef1565b906001600160681b0316611b1b565b7f0000000000000000000000000000000000000000000000000000000000000000906127a9565b7f0000000000000000000000000000000000000000000000000000000000000000906127a9565b6130a260408901916124448351610b58565b90611b59565b600c0b126130d757546130cb9060801c6001600160401b03165b60208501611b59565b6005610945565b612f4e565b546130e49060c01c6130c2565b6130cb565b6130696130426131249461311f6123c061229a613119612c4f6130909961302d60206130256124359c5460c01c90565b93612f09565b611b1b565b6130a8565b939290936001805460f81c1661198e5761314661314a918661467e565b1590565b610e22576001600160a01b038181167f0000000000000000000000000000000000000000000000000000000000000000909116036131a15750610bfa92600019830361323257915061319b816145f7565b91613232565b906131af610bfa94936148a0565b92613584565b6001600160681b03918216919081169082900381116122c3570190565b80546001600160681b0319166001600160681b03909216919091179055565b6001600160681b03918216911681811061228e570390565b8054600160681b600160d01b03191660689290921b600160681b600160d01b0316919091179055565b6132e0919261326281837f000000000000000000000000000000000000000000000000000000000000000061344a565b61326a6122de565b6132ed61328061327b866005610945565b61222d565b8051600c0b906132e76132b06132a96132a461329b866146bb565b612a64896148f5565b614755565b80946133b9565b97906132d06132c98a6132c460015461229a565b6131b5565b60016131d2565b6132db6001546122cf565b6131f1565b6001613209565b86612fc9565b6040519081526001600160a01b0393841693849216907fd1cf3d156d5f8f0d50f6c122ed609cec09d35c9b9fb3fff6ea0959134dae424e90602090a36001600160681b03811661333b575050565b60008051602061495b83398151915261337261336260009361335d8554610b58565b614730565b6040519081529081906020820190565b0390a3565b600c91820b910b6000821280156001600160671b031984018312166133ac575b6001600160671b03830182131661228e570390565b6133b4611adf565b613397565b91909180600c0b83600c0b818112613428576000126133ec57506133dd9192613377565b6001600160681b031690600090565b60001361340f576133fd9192613377565b6000916001600160681b039190911690565b61341890612f09565b6001600160681b03908116921690565b5050509050600090600090565b90816020910312610582575161094281610ccd565b6040516323b872dd60e01b81526001600160a01b039283166004820152306024820152604481019390935260209183916064918391600091165af19081156134cd575b6000916134af575b501561349d57565b60405163073d1efd60e51b8152600490fd5b6134c7915060203d81116114155761140d8183611a40565b38613495565b6134d561284d565b61348d565b906040516134e9604082611a40565b91546001600160801b038116835260801c6020830152565b6001600160801b03918216919081169082900381116122c3570190565b80546001600160801b0319166001600160801b03909216919091179055565b90602060018060801b0391613555838251168561351e565b0151825490911660809190911b6001600160801b031916179055565b6001600160801b03909116815260200190565b909290916001600160801b039061359e828416858361344a565b6135a781612180565b906135bb6135b6826002610945565b6134da565b926135df6135d2866135cd875161095c565b613501565b6001600160801b03168552565b6135e9845161095c565b906135ff6135fa60e086015161095c565b61095c565b9116116136a957613684613672856136a49461367e7ffa56f7b24f17183d81894d3ac2ee654e3c26388d17a28dbd9549b8114304e1f497613679876136538e61365f613658612c0985613653856006610945565b610945565b9889613501565b98899561366d856002610945565b61353d565b6006610945565b61351e565b896136bb565b6040516001600160a01b0391821696821695909116939091829182613571565b0390a4565b604051637ac7b99d60e11b8152600490fd5b909290916001600160801b0390811615808061377c575b1561371d575050506137056136fd6136ee610bfa945160ff1690565b600160ff9091161b61ffff1690565b916005610945565b90613716825461ffff9060e81c1690565b1790612f2f565b159182613771575b505061372f575050565b60ff610bfa92600161ffff92839251161b16199160018060a01b03166000526005602052604060002091613769835461ffff9060e81c1690565b161690612f2f565b161590503880613725565b5081831615156136d2565b93929093600260015460f81c1661198e576131466137a5918661467e565b610e22576001600160a01b038481168382161461381d57807f000000000000000000000000000000000000000000000000000000000000000016908216146000146138095750610bfa92600019830361384057915061380382614593565b91613840565b90613817610bfa94936148a0565b92613ad9565b60405163e397a99b60e01b8152600490fd5b600160ff1b8114612f225760000390565b91909161384b6122de565b613856816005610945565b61385f9061222d565b61386a846005610945565b6138739061222d565b92815161388090600c0b90565b93805161388d90600c0b90565b92613897866146bb565b6138a0846148f5565b6138a991612914565b926138b3856146bb565b906138bd906148f5565b6138c69161294b565b906138d084614755565b6138da8193614755565b9788936138e691613a74565b986138f191976133b9565b98878a6001546139009061229a565b9061390a916131b5565b90613914916131f1565b61391f9060016131d2565b60015461392b906122cf565b90613935916131b5565b9061393f916131f1565b61394a906001613209565b6139549187612fc9565b61395e9187612fc9565b60008112613a0b575b506001600160681b03918183166139c3575b50508116613985575050565b60008051602061495b8339815191526133726139a760009361335d8554610b58565b6040519081526001600160a01b03909416939081906020820190565b60008051602061495b833981519152613a016139e560009461335d8654610b58565b6040519081526001600160a01b03909316929081906020820190565b0390a33880613979565b613a149061382f565b7f000000000000000000000000000000000000000000000000000000000000000011613a6257613a4661314683612abf565b613a505738613967565b604051630a62fbdb60e11b8152600490fd5b604051637139da2360e11b8152600490fd5b919082600c0b81600c0b81811361342857600013613a9757506133dd9192613377565b600012613aa8576133fd9192613377565b613ab190612f09565b6001600160681b03928316921690565b6001600160801b03918216911681811061228e570390565b6001600160a01b0380821660008181526006602052604090206001600160801b03959194919391908690613b0e908690610945565b54168382169687600052600660205285604060002090613b2d91610945565b5416613b398983613ac1565b613b438a83613501565b928188613b51886006610945565b90613b5b91610945565b90613b659161351e565b8388613b72876006610945565b90613b7c91610945565b90613b869161351e565b613b8f88612180565b91613b9b9183886136bb565b613ba4936136bb565b613bad90612abf565b15613a50577f29db89d45e1a802b4d55e202984fce9faf1d30aedf86503ff1ea0ed9ebb64201916136a4604051928392169682613571565b93929093600460015460f81c1661198e57613146613c03918661467e565b610e22576001600160a01b038181167f000000000000000000000000000000000000000000000000000000000000000090911603613c5a5750610bfa926000198303613c6e579150613c5482614593565b91613c6e565b90613c68610bfa94936148a0565b92613e71565b90916132e092613c7c6122de565b613c8a61327b846005610945565b613ce4613c988251600c0b90565b613cad613ca4826146bb565b612a5e876148f5565b926132e7613cc4613cbd86614755565b8094613a74565b613cd96132c9836132db60019e959e5461229a565b6132c46001546122cf565b60008112613d89575b50613d1982827f0000000000000000000000000000000000000000000000000000000000000000613de9565b6040519182526001600160a01b0392831692169082907f9b1bfa7fa9ee420a16e124f794c35ac9f90472acc99140eb2f6447c714cad8eb90602090a36001600160681b038216613d67575050565b60008051602061495b83398151915261337261336260009461335d8654610b58565b613d929061382f565b7f000000000000000000000000000000000000000000000000000000000000000011613a6257613dc461314684612abf565b613a505738613ced565b6001600160a01b039091168152602081019190915260400190565b91613e0f92602092600060405180968195829463a9059cbb60e01b845260048401613dce565b03926001600160a01b03165af1908115613e64575b600091613e46575b5015613e3457565b60405163cefaffeb60e01b8152600490fd5b613e5e915060203d81116114155761140d8183611a40565b38613e2c565b613e6c61284d565b613e24565b6001600160a01b038082166000818152600660205260408120909695919491936001600160801b03918290613ea7908790610945565b5416613eb38882613ac1565b80878781169b8c81526002602052604081208c8882541690613ed491613ac1565b613edd9161351e565b8a815260066020526040902090613ef391610945565b90613efd9161351e565b613f0687612180565b91613f1192846136bb565b613f1a90612abf565b15613a50577fd6d480d5b3068db003533b170d67561494d72e3bf9fa40a266471351ebba9e169382613f4e92881691613de9565b6136a4604051928392169582613571565b9190811015613f6f5760051b0190565b634e487b7160e01b600052603260045260246000fd5b3561094281610571565b90604051613f9e608082611a40565b915463ffffffff81168352602081811c6001600160401b031690840152606081811c6001600160801b0316604085015260e09190911c90830152565b60019063ffffffff8091169081146122c3570190565b9291909260016008815460f81c1661198e575a9461400c6122de565b60005b84811061410b575050506140b6906140af61409061408b614035610bfa97985a90612585565b61408461407261404e614049886007610945565b613f8f565b986124356140686140638c5163ffffffff1690565b613fda565b63ffffffff168b52565b6130a260208a01916124448351610b58565b4890611b1b565b6148a0565b6140a260408601916135cd835161095c565b6001600160801b03169052565b6007610945565b815160208084015160408501516060958601516001600160e01b031960e09190911b16600160601b600160e01b039190961b1663ffffffff909316600160201b600160601b039190921b161717919091179055565b8061412961412361411e86948987613f5f565b613f85565b8661412f565b0161400f565b9161413c61314683612c88565b614462579061414f61327b826005610945565b9061415b8251600c0b90565b93614165856146bb565b936060906141778286015161ffff1690565b6141a07f000000000000000000000000000000000000000000000000000000000000000061285a565b91600092839860ff9a8b7f0000000000000000000000000000000000000000000000000000000000000000169a5b8c8116908c82101561434c57908d91898c8c61ffff600180961b8c16166141fa575b50505001166141ce565b90919a61420684611b68565b60208101519091906001600160a01b031660069181806142268886610945565b9061423091610945565b546001600160801b031693816142468983610945565b9061425091610945565b600061425b9161351e565b3061426591610945565b9061426f91610945565b83815461427b9061095c565b9061428591613501565b61428e9161351e565b604084810151909f906001600160a01b03166142a99061285a565b908501516142b690610b58565b6142c9916001600160801b038616612dfd565b9360c001516142d790610b58565b6142e090610b58565b6142ea9085612dbf565b6142f391612579565b9d516001600160801b0392909216825260208201929092526001600160a01b0391821693821692909116907f9850ab1af75177e4a9201c65a2cf7976d5d28e40ef63494b44366f86b2f9412e90604090a4898c8c6141f0565b5050909198614424939b507f1547a878dc89ad3c367b6338b4be6a65a5dd74fb77ae044da1e8747ef1f4f62f98979a50614430965061442994506143ce6143c8612c5a8c6143c360018060401b037f000000000000000000000000000000000000000000000000000000000000000016809b611b1b565b6127a9565b8461294b565b918860008412614459575b6132d061441161441f946132e09461440c60006144076132c9976130cb6143ff8d614755565b809783612fc9565b612f2f565b6133b9565b6132c460019492945461229a565b612914565b614941565b9485612dfd565b6040805194855260208501919091526001600160a01b0391821694909116929081908101613372565b600093506143d9565b604051636ef5bcdd60e11b8152600490fd5b9061453c61448461094293612180565b61450760606145326144a160018060a01b0360408601511661285a565b60c08501516001600160401b0394670de0b6b3a764000092909183906144f69088908116808410614586575b8303167f0000000000000000000000000000000000000000000000000000000000000000611b1b565b04808410614579575b830390611b1b565b049561311f7f000000000000000000000000000000000000000000000000000000000000000061285a565b9201511690611b1b565b90801561456c575b7f000000000000000000000000000000000000000000000000000000000000000091046127a9565b614574611ac8565b614544565b614581611adf565b6144ff565b61458e611adf565b6144cd565b6145b661459e612204565b61068d64ffffffffff918260015460d01c1690612278565b506001600160a01b03909116600090815260056020526040812054600c0b9190808313156145f157506145eb61094292614918565b90614730565b91505090565b61460261459e612204565b6001600160a01b03909216600090815260056020526040812054600c0b929150808312156145f157506145eb61463a61094293612f09565b614918565b50600036818037808036817f00000000000000000000000000000000000000000000000000000000000000005af43d82803e1561467a573d90f35b3d90fd5b6001600160a01b0380831691169081149190821561469b57505090565b60ff9250906146b69160005260036020526040600020610945565b541690565b6000600c82900b126146fb576000546109429166038d7ea4c68000916146f5916001600160401b03909116906001600160681b0316611b1b565b046148f5565b61472b612c5a6109429261471c60018060401b0360005460401c1691612f09565b6001600160681b031690614730565b61382f565b66038d7ea4c68000916127bb916001600160401b0316906001600160681b0316611b1b565b6000811261477b5760005461094291614776916001600160401b0316614804565b6148c6565b6147d86147766109429261479c60018060401b0360005460401c169161382f565b6147c1826000199266038d7ea4c68000908085048211811515166147f7575b02612579565b600181106147ea575b82156147dd575b010461487a565b612f09565b6147e5611ac8565b6147d1565b6147f2611adf565b6147ca565b6147ff611adf565b6147bb565b906109429166038d7ea4c68000908260001904821183151516614847575b6001600160401b031691821561483a575b020461487a565b614842611ac8565b614833565b61484f611adf565b614822565b6001600160401b0390818111614868571690565b6040516372a1cb5160e11b8152600490fd5b6001600160681b039081811161488e571690565b604051630dc7925560e11b8152600490fd5b6001600160801b03908181116148b4571690565b60405163762ea71160e11b8152600490fd5b6001600160681b03166001600160671b0381116148e357600c0b90565b604051639369ae3560e01b8152600490fd5b6001600160ff1b0381116149065790565b60405163e7e828ad60e01b8152600490fd5b600081600c0b1261492f576001600160681b031690565b60405163363b64b760e11b8152600490fd5b6000811261492f5790565b60009015610942575060019056feddf252ad1be2c89b69c2b068fc378daa952ba7f163c4a11628f55a4df523b3efa26469706673582212202581e299813c764272c72559ead5227dd49ec270e6948494e8726097912f891c64736f6c634300080f0033",
  "linkReferences": {},
  "deployedLinkReferences": {}
}