{
  "_format": "hh-sol-artifact-1",
  "contractName": "SimplePriceFeed",
  "sourceName": "contracts/test/SimplePriceFeed.sol",
  "abi": [
    {
      "inputs": [
        {
          "internalType": "int256",
          "name": "initialPrice",
          "type": "int256"
        },
        {
          "internalType": "uint8",
          "name": "decimals_",
          "type": "uint8"
        }
      ],
      "stateMutability": "nonpayable",
      "type": "constructor"
    },
    {
      "inputs": [],
      "name": "decimals",
      "outputs": [
        {
          "internalType": "uint8",
          "name": "",
          "type": "uint8"
        }
      ],
      "stateMutability": "view",
      "type": "function"
    },
    {
      "inputs": [],
      "name": "description",
      "outputs": [
        {
          "internalType": "string",
          "name": "",
          "type": "string"
        }
      ],
      "stateMutability": "view",
      "type": "function"
    },
    {
      "inputs": [
        {
          "internalType": "uint80",
          "name": "_roundId",
          "type": "uint80"
        }
      ],
      "name": "getRoundData",
      "outputs": [
        {
          "internalType": "uint80",
          "name": "roundId",
          "type": "uint80"
        },
        {
          "internalType": "int256",
          "name": "answer",
          "type": "int256"
        },
        {
          "internalType": "uint256",
          "name": "startedAt",
          "type": "uint256"
        },
        {
          "internalType": "uint256",
          "name": "updatedAt",
          "type": "uint256"
        },
        {
          "internalType": "uint80",
          "name": "answeredInRound",
          "type": "uint80"
        }
      ],
      "stateMutability": "view",
      "type": "function"
    },
    {
      "inputs": [],
      "name": "latestRoundData",
      "outputs": [
        {
          "internalType": "uint80",
          "name": "roundId",
          "type": "uint80"
        },
        {
          "internalType": "int256",
          "name": "answer",
          "type": "int256"
        },
        {
          "internalType": "uint256",
          "name": "startedAt",
          "type": "uint256"
        },
        {
          "internalType": "uint256",
          "name": "updatedAt",
          "type": "uint256"
        },
        {
          "internalType": "uint80",
          "name": "answeredInRound",
          "type": "uint80"
        }
      ],
      "stateMutability": "view",
      "type": "function"
    },
    {
      "inputs": [],
      "name": "price",
      "outputs": [
        {
          "internalType": "int256",
          "name": "",
          "type": "int256"
        }
      ],
      "stateMutability": "view",
      "type": "function"
    },
    {
      "inputs": [
        {
          "internalType": "int256",
          "name": "price_",
          "type": "int256"
        }
      ],
      "name": "setPrice",
      "outputs": [],
      "stateMutability": "nonpayable",
      "type": "function"
    },
    {
      "inputs": [],
      "name": "version",
      "outputs": [
        {
          "internalType": "uint256",
          "name": "",
          "type": "uint256"
        }
      ],
      "stateMutability": "view",
      "type": "function"
    }
  ],
  "bytecode": "0x60a0806040523461007157601f61031f38819003918201601f19168301916001600160401b0383118484101761007657808492604094855283398101031261007157602081519101519060ff8216820361007157600055608052604051610292908161008d8239608051816102050152f35b600080fd5b634e487b7160e01b600052604160045260246000fdfe60806040818152600436101561001457600080fd5b600091823560e01c908163313ce567146101ec5750806354fd4d50146101d15780637284e4161461010d5780639a6fc8f5146100d0578063a035b1fe146100b4578063f7a308061461009a5763feaf968c1461006f57600080fd5b346100965781600319360112610096576100928280805493519485948186610229565b0390f35b5080fd5b503461009657602036600319011261009657600435825551f35b5034610096578160031936011261009657602091549051908152f35b50903461010a57602036600319011261010a57600435906001600160501b038216820361010a578080806100929354955195869586610229565b80fd5b50346100965781600319360112610096578051918282016001600160401b038111848210176101bd578293919352601f81526020907f4d6f636b20436861696e6c696e6b2070726963652061676772656761746f7200828201528251938285938452825192838286015282915b8483106101a55750508210610199575b50601f01601f19168101030190f35b8382840101523861018a565b8183018101518884018801528795509182019161017a565b634e487b7160e01b82526041600452602482fd5b50346100965781600319360112610096576020905160018152f35b83903461009657816003193601126100965760209060ff7f0000000000000000000000000000000000000000000000000000000000000000168152f35b6001600160501b039182168152602081019290925260408201929092526060810192909252909116608082015260a0019056fea2646970667358221220d774d9a0da83f87b8a22910a9976e505ab983954e4d53c4251f48ae04c44ca2164736f6c634300080f0033",
  "linkReferences": {},
  "deployedLinkReferences": {}
}