{
  "_format": "hh-sol-artifact-1",
  "contractName": "BaseBridgeReceiver",
  "sourceName": "contracts/bridges/BaseBridgeReceiver.sol",
  "abi": [
    {
      "inputs": [],
      "name": "AlreadyInitialized",
      "type": "error"
    },
    {
      "inputs": [],
      "name": "BadData",
      "type": "error"
    },
    {
      "inputs": [],
      "name": "InvalidProposalId",
      "type": "error"
    },
    {
      "inputs": [],
      "name": "ProposalNotQueued",
      "type": "error"
    },
    {
      "inputs": [],
      "name": "TransactionAlreadyQueued",
      "type": "error"
    },
    {
      "inputs": [],
      "name": "Unauthorized",
      "type": "error"
    },
    {
      "anonymous": false,
      "inputs": [
        {
          "indexed": true,
          "internalType": "address",
          "name": "govTimelock",
          "type": "address"
        },
        {
          "indexed": true,
          "internalType": "address",
          "name": "localTimelock",
          "type": "address"
        }
      ],
      "name": "Initialized",
      "type": "event"
    },
    {
      "anonymous": false,
      "inputs": [
        {
          "indexed": true,
          "internalType": "address",
          "name": "oldGovTimelock",
          "type": "address"
        },
        {
          "indexed": true,
          "internalType": "address",
          "name": "newGovTimelock",
          "type": "address"
        }
      ],
      "name": "NewGovTimelock",
      "type": "event"
    },
    {
      "anonymous": false,
      "inputs": [
        {
          "indexed": true,
          "internalType": "address",
          "name": "oldLocalTimelock",
          "type": "address"
        },
        {
          "indexed": true,
          "internalType": "address",
          "name": "newLocalTimelock",
          "type": "address"
        }
      ],
      "name": "NewLocalTimelock",
      "type": "event"
    },
    {
      "anonymous": false,
      "inputs": [
        {
          "indexed": true,
          "internalType": "address",
          "name": "messageSender",
          "type": "address"
        },
        {
          "indexed": false,
          "internalType": "uint256",
          "name": "id",
          "type": "uint256"
        },
        {
          "indexed": false,
          "internalType": "address[]",
          "name": "targets",
          "type": "address[]"
        },
        {
          "indexed": false,
          "internalType": "uint256[]",
          "name": "values",
          "type": "uint256[]"
        },
        {
          "indexed": false,
          "internalType": "string[]",
          "name": "signatures",
          "type": "string[]"
        },
        {
          "indexed": false,
          "internalType": "bytes[]",
          "name": "calldatas",
          "type": "bytes[]"
        },
        {
          "indexed": false,
          "internalType": "uint256",
          "name": "eta",
          "type": "uint256"
        }
      ],
      "name": "ProposalCreated",
      "type": "event"
    },
    {
      "anonymous": false,
      "inputs": [
        {
          "indexed": false,
          "internalType": "uint256",
          "name": "id",
          "type": "uint256"
        }
      ],
      "name": "ProposalExecuted",
      "type": "event"
    },
    {
      "inputs": [],
      "name": "acceptLocalTimelockAdmin",
      "outputs": [],
      "stateMutability": "nonpayable",
      "type": "function"
    },
    {
      "inputs": [
        {
          "internalType": "uint256",
          "name": "proposalId",
          "type": "uint256"
        }
      ],
      "name": "executeProposal",
      "outputs": [],
      "stateMutability": "nonpayable",
      "type": "function"
    },
    {
      "inputs": [],
      "name": "govTimelock",
      "outputs": [
        {
          "internalType": "address",
          "name": "",
          "type": "address"
        }
      ],
      "stateMutability": "view",
      "type": "function"
    },
    {
      "inputs": [
        {
          "internalType": "address",
          "name": "_govTimelock",
          "type": "address"
        },
        {
          "internalType": "address",
          "name": "_localTimelock",
          "type": "address"
        }
      ],
      "name": "initialize",
      "outputs": [],
      "stateMutability": "nonpayable",
      "type": "function"
    },
    {
      "inputs": [],
      "name": "initialized",
      "outputs": [
        {
          "internalType": "bool",
          "name": "",
          "type": "bool"
        }
      ],
      "stateMutability": "view",
      "type": "function"
    },
    {
      "inputs": [],
      "name": "localTimelock",
      "outputs": [
        {
          "internalType": "address",
          "name": "",
          "type": "address"
        }
      ],
      "stateMutability": "view",
      "type": "function"
    },
    {
      "inputs": [],
      "name": "proposalCount",
      "outputs": [
        {
          "internalType": "uint256",
          "name": "",
          "type": "uint256"
        }
      ],
      "stateMutability": "view",
      "type": "function"
    },
    {
      "inputs": [
        {
          "internalType": "uint256",
          "name": "",
          "type": "uint256"
        }
      ],
      "name": "proposals",
      "outputs": [
        {
          "internalType": "uint256",
          "name": "id",
          "type": "uint256"
        },
        {
          "internalType": "uint256",
          "name": "eta",
          "type": "uint256"
        },
        {
          "internalType": "bool",
          "name": "executed",
          "type": "bool"
        }
      ],
      "stateMutability": "view",
      "type": "function"
    },
    {
      "inputs": [
        {
          "internalType": "address",
          "name": "newTimelock",
          "type": "address"
        }
      ],
      "name": "setGovTimelock",
      "outputs": [],
      "stateMutability": "nonpayable",
      "type": "function"
    },
    {
      "inputs": [
        {
          "internalType": "address",
          "name": "newTimelock",
          "type": "address"
        }
      ],
      "name": "setLocalTimelock",
      "outputs": [],
      "stateMutability": "nonpayable",
      "type": "function"
    },
    {
      "inputs": [
        {
          "internalType": "uint256",
          "name": "proposalId",
          "type": "uint256"
        }
      ],
      "name": "state",
      "outputs": [
        {
          "internalType": "enum BaseBridgeReceiver.ProposalState",
          "name": "",
          "type": "uint8"
        }
      ],
      "stateMutability": "view",
      "type": "function"
    }
  ],
  "bytecode": "0x6080806040523461001657610a53908161001c8239f35b600080fdfe608060408181526004918236101561001657600080fd5b600092833560e01c918263013cf08b1461061e575081630d61b5191461038b578163158ef93e1461036457816322086dbe1461033c5781632e4d4c55146102cc5781633e4f49e614610288578163485cc955146101e7578163824343dd146101be578163ac3c5ae71461013d578163d0d5c28b146100bf575063da35c6641461009e57600080fd5b346100bb57816003193601126100bb576020906002549051908152f35b5080fd5b839150346100bb57816003193601126100bb576001546001600160a01b0316903382900361013057813b1561012c578351630e18b68160e01b81529183918391829084905af180156101225761011457509051f35b8161011e91610660565b9051f35b83513d84823e3d90fd5b8280fd5b83516282b42960e81b8152fd5b9190503461012c57602036600319011261012c5781356001600160a01b0381811692918390036101ba57600154908116938433036101ad57506001600160a01b031916821760015551917f471e0d9475381e45e60c59cd48b4d67f510d1c2f1295a58a26cd723adf0b74d68484a3f35b82516282b42960e81b8152fd5b8480fd5b5050346100bb57816003193601126100bb5760015490516001600160a01b039091168152602090f35b90503461012c578160031936011261012c576001600160a01b038135818116939192908490036101ba576024359283168093036101ba576001549060ff8260a01c1661027b575084546001600160a01b031916841785556001600160a81b0319168217600160a01b1760015551917f3cd5ec01b1ae7cfec6ca1863e2cd6aa25d6d1702825803ff2b7cc95010fffdc28484a3f35b825162dc149f60e41b8152fd5b8383346100bb5760203660031901126100bb576102a5833561079b565b90519160038210156102b957602083838152f35b634e487b7160e01b815260218452602490fd5b90503461012c57602036600319011261012c576001600160a01b03813581811692908390036101ba5781600154163303610130575083546001600160a01b0319811683178555925192167f55c56ed7a8742b72f9c25278fe194a97d92f752f9522e65c54b9a33f8b3f1b998484a3f35b5050346100bb57816003193601126100bb57905490516001600160a01b039091168152602090f35b5050346100bb57816003193601126100bb5760209060ff60015460a01c1690519015158152f35b8383346100bb57602060031993818536011261061a578035906103ad8261079b565b9060039182811015610607576105f957828697929752868452848620916006830160019384918260ff19825416179055889982820190600283018184019260058886019501955b610427575b8c8c7f712ae1383f79ac853f8d882153778e0260ef8f03b504e2866e0593e04d2b291f8d8d8351908152a151f35b8d819d9c9b9a999d5411156105ee57868e8d8f828f838e8394928e8e8e8e8e89988f600160a01b60019003809254169b61046091610699565b905490841b1c169861047191610699565b9054911b1c9a61048091610699565b509761048b91610699565b5090549151998a9788968795630825f38f60e01b875286015260249a8b8601526044850160a0905260a485016104c0916106c7565b908482030160648501526104d3916106c7565b90608483015203925af180156105e257610516575b50506000198e14610503578c809e9d999a9b9c9d019d6103f4565b634e487b7160e01b8c526011885260248cfd5b3d808f843e6105258184610660565b82018c838203126105c65782516001600160401b03938482116105dd570190601f928184840112156105dd5782519485116105ca57508e5192610570908501601f19168f0184610660565b8383528d84830101116105c657918c918f9384905b8382106105a75750821061059b575b50506104e8565b0101528b8a3880610594565b92945083818495939501015182828601015201918f9391928e93610585565b8e80fd5b90508f60418d634e487b7160e01b835252fd5b508f80fd5b8e8e51903d90823e3d90fd5b88999a9b9c506103f9565b845163599fb1a360e01b8152fd5b634e487b7160e01b875260218252602487fd5b8380fd5b9291503461061a57602036600319011261061a57606093829135815260036020522080549060ff60066005830154920154169184526020840152151590820152f35b601f909101601f19168101906001600160401b0382119082101761068357604052565b634e487b7160e01b600052604160045260246000fd5b80548210156106b15760005260206000200190600090565b634e487b7160e01b600052603260045260246000fd5b80546000939260018083169383821c93851561077a575b6020958686108114610764578585529081156107455750600114610704575b5050505050565b90939495506000929192528360002092846000945b838610610731575050505001019038808080806106fd565b805485870183015294019385908201610719565b60ff19168685015250505090151560051b0101915038808080806106fd565b634e487b7160e01b600052602260045260246000fd5b93607f16936106de565b6001600160401b0381116106835760051b60200190565b60025481118015610a15575b610a035760009081526020906003825260408082208151936107ca60e086610660565b815485526001948583018451808285829454938481520190895285892092895b8b888383106109e5575050505061080392500382610660565b82820152600283018451808285829454938481520190895285892092895b8b888383106109d0575050505061083a92500382610660565b8482015260038301805461084d81610784565b9161085a87519384610660565b81835287528387208790898685015b878585106109ae57505050505050606082015260048301805461088b81610784565b9161089887519384610660565b8183528752838720879089868086015b858510610983575050505050509060c091608082015260ff60066005860154958660a0850152015416151591829101526000146108e9575050505050600290565b845483516360d143f160e11b815291908190839060049082906001600160a01b03165afa93841561097a5750849361094a575b50508119811161093657014210610931575090565b905090565b634e487b7160e01b83526011600452602483fd5b9080929350813d8311610973575b6109628183610660565b8101031261012c575190388061091c565b503d610958565b513d86823e3d90fd5b9082918b5161099d8161099681896106c7565b0382610660565b815201920192019190868b916108a8565b82918b516109c08161099681896106c7565b8152019201920191908a90610869565b86548552958101958795509093019201610821565b86546001600160a01b031685529581019587955090930192016107ea565b604051630992f7ad60e01b8152600490fd5b5080156107a756fea26469706673582212209a452b03e2c99f8f84934b2e040e8cf140a3e59fbdc1d4b0eb88eb271b83c09864736f6c634300080f0033",
  "linkReferences": {},
  "deployedLinkReferences": {}
}