{
  "_format": "hh-sol-artifact-1",
  "contractName": "PolygonBridgeReceiver",
  "sourceName": "contracts/bridges/polygon/PolygonBridgeReceiver.sol",
  "abi": [
    {
      "inputs": [
        {
          "internalType": "address",
          "name": "_fxChild",
          "type": "address"
        }
      ],
      "stateMutability": "nonpayable",
      "type": "constructor"
    },
    {
      "inputs": [],
      "name": "AlreadyInitialized",
      "type": "error"
    },
    {
      "inputs": [],
      "name": "BadData",
      "type": "error"
    },
    {
      "inputs": [],
      "name": "InvalidChild",
      "type": "error"
    },
    {
      "inputs": [],
      "name": "InvalidProposalId",
      "type": "error"
    },
    {
      "inputs": [],
      "name": "ProposalNotQueued",
      "type": "error"
    },
    {
      "inputs": [],
      "name": "TransactionAlreadyQueued",
      "type": "error"
    },
    {
      "inputs": [],
      "name": "Unauthorized",
      "type": "error"
    },
    {
      "anonymous": false,
      "inputs": [
        {
          "indexed": true,
          "internalType": "address",
          "name": "govTimelock",
          "type": "address"
        },
        {
          "indexed": true,
          "internalType": "address",
          "name": "localTimelock",
          "type": "address"
        }
      ],
      "name": "Initialized",
      "type": "event"
    },
    {
      "anonymous": false,
      "inputs": [
        {
          "indexed": true,
          "internalType": "address",
          "name": "oldFxChild",
          "type": "address"
        },
        {
          "indexed": true,
          "internalType": "address",
          "name": "newFxChild",
          "type": "address"
        }
      ],
      "name": "NewFxChild",
      "type": "event"
    },
    {
      "anonymous": false,
      "inputs": [
        {
          "indexed": true,
          "internalType": "address",
          "name": "oldGovTimelock",
          "type": "address"
        },
        {
          "indexed": true,
          "internalType": "address",
          "name": "newGovTimelock",
          "type": "address"
        }
      ],
      "name": "NewGovTimelock",
      "type": "event"
    },
    {
      "anonymous": false,
      "inputs": [
        {
          "indexed": true,
          "internalType": "address",
          "name": "oldLocalTimelock",
          "type": "address"
        },
        {
          "indexed": true,
          "internalType": "address",
          "name": "newLocalTimelock",
          "type": "address"
        }
      ],
      "name": "NewLocalTimelock",
      "type": "event"
    },
    {
      "anonymous": false,
      "inputs": [
        {
          "indexed": true,
          "internalType": "address",
          "name": "messageSender",
          "type": "address"
        },
        {
          "indexed": false,
          "internalType": "uint256",
          "name": "id",
          "type": "uint256"
        },
        {
          "indexed": false,
          "internalType": "address[]",
          "name": "targets",
          "type": "address[]"
        },
        {
          "indexed": false,
          "internalType": "uint256[]",
          "name": "values",
          "type": "uint256[]"
        },
        {
          "indexed": false,
          "internalType": "string[]",
          "name": "signatures",
          "type": "string[]"
        },
        {
          "indexed": false,
          "internalType": "bytes[]",
          "name": "calldatas",
          "type": "bytes[]"
        },
        {
          "indexed": false,
          "internalType": "uint256",
          "name": "eta",
          "type": "uint256"
        }
      ],
      "name": "ProposalCreated",
      "type": "event"
    },
    {
      "anonymous": false,
      "inputs": [
        {
          "indexed": false,
          "internalType": "uint256",
          "name": "id",
          "type": "uint256"
        }
      ],
      "name": "ProposalExecuted",
      "type": "event"
    },
    {
      "inputs": [],
      "name": "acceptLocalTimelockAdmin",
      "outputs": [],
      "stateMutability": "nonpayable",
      "type": "function"
    },
    {
      "inputs": [
        {
          "internalType": "address",
          "name": "newFxChild",
          "type": "address"
        }
      ],
      "name": "changeFxChild",
      "outputs": [],
      "stateMutability": "nonpayable",
      "type": "function"
    },
    {
      "inputs": [
        {
          "internalType": "uint256",
          "name": "proposalId",
          "type": "uint256"
        }
      ],
      "name": "executeProposal",
      "outputs": [],
      "stateMutability": "nonpayable",
      "type": "function"
    },
    {
      "inputs": [],
      "name": "fxChild",
      "outputs": [
        {
          "internalType": "address",
          "name": "",
          "type": "address"
        }
      ],
      "stateMutability": "view",
      "type": "function"
    },
    {
      "inputs": [],
      "name": "govTimelock",
      "outputs": [
        {
          "internalType": "address",
          "name": "",
          "type": "address"
        }
      ],
      "stateMutability": "view",
      "type": "function"
    },
    {
      "inputs": [
        {
          "internalType": "address",
          "name": "_govTimelock",
          "type": "address"
        },
        {
          "internalType": "address",
          "name": "_localTimelock",
          "type": "address"
        }
      ],
      "name": "initialize",
      "outputs": [],
      "stateMutability": "nonpayable",
      "type": "function"
    },
    {
      "inputs": [],
      "name": "initialized",
      "outputs": [
        {
          "internalType": "bool",
          "name": "",
          "type": "bool"
        }
      ],
      "stateMutability": "view",
      "type": "function"
    },
    {
      "inputs": [],
      "name": "localTimelock",
      "outputs": [
        {
          "internalType": "address",
          "name": "",
          "type": "address"
        }
      ],
      "stateMutability": "view",
      "type": "function"
    },
    {
      "inputs": [
        {
          "internalType": "uint256",
          "name": "stateId",
          "type": "uint256"
        },
        {
          "internalType": "address",
          "name": "messageSender",
          "type": "address"
        },
        {
          "internalType": "bytes",
          "name": "data",
          "type": "bytes"
        }
      ],
      "name": "processMessageFromRoot",
      "outputs": [],
      "stateMutability": "nonpayable",
      "type": "function"
    },
    {
      "inputs": [],
      "name": "proposalCount",
      "outputs": [
        {
          "internalType": "uint256",
          "name": "",
          "type": "uint256"
        }
      ],
      "stateMutability": "view",
      "type": "function"
    },
    {
      "inputs": [
        {
          "internalType": "uint256",
          "name": "",
          "type": "uint256"
        }
      ],
      "name": "proposals",
      "outputs": [
        {
          "internalType": "uint256",
          "name": "id",
          "type": "uint256"
        },
        {
          "internalType": "uint256",
          "name": "eta",
          "type": "uint256"
        },
        {
          "internalType": "bool",
          "name": "executed",
          "type": "bool"
        }
      ],
      "stateMutability": "view",
      "type": "function"
    },
    {
      "inputs": [
        {
          "internalType": "address",
          "name": "newTimelock",
          "type": "address"
        }
      ],
      "name": "setGovTimelock",
      "outputs": [],
      "stateMutability": "nonpayable",
      "type": "function"
    },
    {
      "inputs": [
        {
          "internalType": "address",
          "name": "newTimelock",
          "type": "address"
        }
      ],
      "name": "setLocalTimelock",
      "outputs": [],
      "stateMutability": "nonpayable",
      "type": "function"
    },
    {
      "inputs": [
        {
          "internalType": "uint256",
          "name": "proposalId",
          "type": "uint256"
        }
      ],
      "name": "state",
      "outputs": [
        {
          "internalType": "enum BaseBridgeReceiver.ProposalState",
          "name": "",
          "type": "uint8"
        }
      ],
      "stateMutability": "view",
      "type": "function"
    }
  ],
  "bytecode": "0x6080806040523461007857601f61195c38819003918201601f19168301916001600160401b0383118484101761007d5780849260209460405283398101031261007857516001600160a01b0381169081900361007857600480546001600160a01b0319169190911790556040516118c890816100948239f35b600080fd5b634e487b7160e01b600052604160045260246000fdfe60e080604052600436101561001357600080fd5b60008060c052803560e01c918263013cf08b146112d257505080630d61b519146110d2578063158ef93e146110aa57806322086dbe146110815780632e4d4c551461100d5780633e4f49e614610fc6578063450d11f014610f9b578063485cc95514610ef35780634b72f5c114610e7b578063824343dd14610e505780639a7c4b71146101e6578063ac3c5ae714610172578063d0d5c28b146100e85763da35c664146100bf57600080fd5b346100e25760c051806003193601126100df576020600254604051908152f35b80fd5b60c05180fd5b346100e25760c051806003193601126100df576001546001600160a01b03163381900361016157803b156100e25760405190630e18b68160e01b82528160048160c05180945af1801561015457610142575b60c051604051f35b60c05161014e91611318565b8061013a565b6040513d60c051823e3d90fd5b6040516282b42960e81b8152600490fd5b346100e25760203660031901126100e2576001600160a01b03600435818116908190036100e25760015491821691823303610161576001600160a01b031916811760015560405160c051929091907f471e0d9475381e45e60c59cd48b4d67f510d1c2f1295a58a26cd723adf0b74d68484a3f35b346100e25760603660031901126100e2576024356001600160a01b03811681036100e2576001600160401b03604435116100e2573660236044350112156100e257600460443501356001600160401b0381116100e25760443501903660248301116100e2576004546001600160a01b03163303610e3e5760c051546001600160a01b03908116908216036101615760806044358303126100e257604435602401356001600160401b0381116100e25760443501602483016043820112156100e2576024810135906102c56102b9836114c4565b6040518060a052611318565b8160a05152602060a05101906044829360051b820101906024860182116100e257604401915b818310610e1e575050506044803501356001600160401b0381116100e2576044350192602481016043850112156100e25760248401359361032b856114c4565b906103396040519283611318565b858252602082016044819760051b830101916024850183116100e257604401905b828210610e0e5750505060443560640135926001600160401b0384116100e25760248301604385604435010112156100e2576024846044350101359361039f856114c4565b946103ad6040519687611318565b8086526020860191826024870160448460051b848235010101116100e25760448281350101905b60448460051b8482350101018210610db9575050505060443560840135936001600160401b0385116100e25760248101604386604435010112156100e2576104236024866044350101356114c4565b946104316040519687611318565b604480358201602481810135808a5260208a016080819052949391860160059190911b90920101116100e25760448181350101915b604480358301602481013560051b01018310610d665750505050825160a0515103610d5457845160a0515103610d5457835160a0515103610d5457600154604051630d48571f60e31b815290602090829060049082906001600160a01b03165afa80156101545760c05190610d20575b6104e19150426114db565b9560c0515b60a051805160ff831610156106b1576020868861056f8b6105618e6105506105446105388b61052b60018060a01b03600154169c60ff60018060a01b03931690611796565b51169860ff8d1690611796565b519460ff8c1690611796565b519560ff8b1690611796565b5160405195869489860198896117cf565b03601f198101835282611318565b51902060246040518094819363f2b0653760e01b8352600483015260c051905af19081156101545760c05191610676575b506106645760015460a05189916020916001600160a01b0391821691906105cb9060ff871690611796565b5116906105db60ff86168a611796565b516105e960ff87168d611796565b519261061a6105fb60ff89168e611796565b519660405197889687958695633a66f90160e01b8752600487016117cf565b039160c051905af1801561015457610639575b5060010160ff166104e6565b602090813d831161065d575b61064f8183611318565b810103126100e2578961062d565b503d610645565b6040516333108cbb60e01b8152600490fd5b90506020813d6020116106a9575b8161069160209383611318565b810103126100e2575180151581036100e2578a6105a0565b3d9150610684565b8386848b8a8e8d8b6106c4600254611351565b80600255604051906106d760e083611318565b808252602082019060a05182528960408401528460608401528660808401528760a084015260c05160c084015260c05152600360205260c0516040812091835183555190815190600160401b8211610cc357506020600184019261074083855481875586611828565b019160c0515260c051916020832083915b838310610cf05750505050604083015180519091600160401b8211610cc357506020600284019261078783855481875586611828565b019160c0515260c051916020832083915b838310610cda57505050506060830151805191600160401b8311610cc357506003830154826003850155808310610c37575b5060c080516003850190525160208082209392015b828210610b5457505050506080820151805190600160401b8211610ab0576004830154826004850155808310610ac8575b5060c080516004850190525160208082209392015b8282106109c7575050505060069060a083015160058201550160c0820151151560ff8019835416911617905551966040519760c0890190895260c060208a015260a0515180915260e08901929060c0515b8181106109a85750505060209088830360408a0152519182815201929060c0515b81811061099257505050858203606087015251808252602082019160208260051b820101979260c051915b838310610965575050505050838503608085015251808552602085019060208160051b870101956080519260c051915b8383106109385760a088018690526001600160a01b0387167f216ba108683905cf17ff4c7b04b9711edbdf8ebf5cc06eeecee4b5d5e7c3c6d2898b038aa260c051604051f35b9091929397602080610956600193601f198682030187528c516117aa565b9a0193019301919392906108f2565b9091929398602080610983600193601f198682030187528d516117aa565b9b0193019301919392906108c2565b8251855260209485019490920191600101610897565b82516001600160a01b0316855260209485019490920191600101610876565b80518051906001600160401b038211610ab0576109ee826109e888546113f4565b8861184d565b60c0519086602092601f8511600114610a42575050928260019493602093869560c05192610a37575b5050600019600383901b1c191690841b1787555b01940191019092610825565b015190503880610a17565b5260c051602081209291905b601f1985168110610a98575083602093600196938796938794601f19811610610a7f575b505050811b018755610a2b565b015160001960f88460031b161c19169055388080610a72565b91926020600181928685015181550194019201610a4e565b634e487b7160e01b60c051526041600452602460c051fd5b6004840160c05152602060c05120908382015b8183018110610aeb575050610810565b8080610af9600193546113f4565b80610b07575b505001610adb565b601f908181118514610b235750505060c05181555b8038610aff565b610b43908360c051528560c0519360208520920160051c82019101611811565b5260c0516020812081835555610b1c565b80518051906001600160401b038211610ab057610b75826109e888546113f4565b60c0519086602092601f8511600114610bc9575050928260019493602093869560c05192610bbe575b5050600019600383901b1c191690841b1787555b019401910190926107df565b015190503880610b9e565b5260c051602081209291905b601f1985168110610c1f575083602093600196938796938794601f19811610610c06575b505050811b018755610bb2565b015160001960f88460031b161c19169055388080610bf9565b91926020600181928685015181550194019201610bd5565b6003840160c05152602060c05120908382015b8183018110610c5a5750506107ca565b8080610c68600193546113f4565b80610c76575b505001610c4a565b601f908181118514610c925750505060c05181555b8038610c6e565b610cb2908360c051528560c0519360208520920160051c82019101611811565b5260c0516020812081835555610c8b565b634e487b7160e01b9052604160045260c051602490fd5b6001602082829351855501920192019190610798565b805182546001600160a01b0319166001600160a01b03919091161782556001928301929190910190602001610751565b506020813d602011610d4c575b81610d3a60209383611318565b810103126100e2576104e190516104d6565b3d9150610d2d565b60405163a554dcdf60e01b8152600490fd5b82356001600160401b0381116100e257602485016063828560443501010112156100e2576020918291610dae906024880190604480358801909101908101359060640161175a565b815201920191610466565b8135906001600160401b0382116100e257602489016063838660443501010112156100e2576044916020918291610e019060248d01908635890101808701359060640161175a565b81520192019190506103d4565b813581526020918201910161035a565b82356001600160a01b03811681036100e2578152602092830192016102eb565b60405163bfb8ddef60e01b8152600490fd5b346100e25760c051806003193601126100df576001546040516001600160a01b039091168152602090f35b346100e25760203660031901126100e2576004356001600160a01b03818116918290036100e2578060015416330361016157600480546001600160a01b03198116841790915560405160c0519390929091167f8c7990c8264248aa20a2ac5680607a402e741b7f53d9fd055bf648640e25bdc28484a3f35b346100e25760403660031901126100e2576001600160a01b03600435818116908190036100e2576024359182168092036100e2576001549160ff8360a01c16610f8a5760c05180546001600160a01b031916831781556001600160a81b03199093168117600160a01b17600155604051917f3cd5ec01b1ae7cfec6ca1863e2cd6aa25d6d1702825803ff2b7cc95010fffdc28484a3f35b60405162dc149f60e41b8152600490fd5b346100e25760c051806003193601126100df576004546040516001600160a01b039091168152602090f35b346100e25760203660031901126100e257610fe26004356114e7565b6040516003821015610ff5576020918152f35b634e487b7160e01b60c051526021600452602460c051fd5b346100e25760203660031901126100e2576004356001600160a01b03818116918290036100e257806001541633036101615760c05180546001600160a01b031981168417825560405191939192167f55c56ed7a8742b72f9c25278fe194a97d92f752f9522e65c54b9a33f8b3f1b998484a3f35b346100e25760c051806003193601126100df57546040516001600160a01b039091168152602090f35b346100e25760c051806003193601126100df57602060ff60015460a01c166040519015158152f35b346100e257600319602036820181136100e2576004356110f1816114e7565b9260039384811015610ff5576112c0578160c0515283835260c05190604082209060068201926001938460ff198254161790559083830190846002850191898601946005600488019701925b611174575b7f712ae1383f79ac853f8d882153778e0260ef8f03b504e2866e0593e04d2b291f8a8a604051908152a160c051604051f35b84548110156112bb5787546111ff91906001600160a01b03908116908d61119b848a611376565b9054911b1c16908d6111ad8489611376565b9054911b1c906111bd848b611376565b50926111c9858d611376565b5061120f89549160405198899788978896630825f38f60e01b88526004880152602487015260a0604487015260a486019061142e565b908a85830301606486015261142e565b90608483015260c05194859103925af191821561015457899261123d575b5061123790611351565b9061113d565b91503d8060c051843e6112508184611318565b8201918b818403126100e2578051906001600160401b0382116100e257019082601f830112156100e257815192611286846113a4565b906112946040519283611318565b8482528d85850101116100e2578a93611237938e806112b5940191016113bf565b9061122d565b611142565b60405163599fb1a360e01b8152600490fd5b34611314576020366003190112611314576040606092600435815260036020522080549060ff6006600583015492015416918352602083015215156040820152f35b5080fd5b601f909101601f19168101906001600160401b0382119082101761133b57604052565b634e487b7160e01b600052604160045260246000fd5b60001981146113605760010190565b634e487b7160e01b600052601160045260246000fd5b805482101561138e5760005260206000200190600090565b634e487b7160e01b600052603260045260246000fd5b6001600160401b03811161133b57601f01601f191660200190565b918091926000905b8282106113df5750116113d8575050565b6000910152565b915080602091830151818601520182916113c7565b90600182811c92168015611424575b602083101461140e57565b634e487b7160e01b600052602260045260246000fd5b91607f1691611403565b906000929180549161143f836113f4565b9182825260019384811690816000146114a15750600114611461575b50505050565b90919394506000526020928360002092846000945b83861061148d57505050500101903880808061145b565b805485870183015294019385908201611476565b9294505050602093945060ff191683830152151560051b0101903880808061145b565b6001600160401b03811161133b5760051b60200190565b81198111611360570190565b60025481118015611752575b6117405760009081526020906003825260408082209080519361151760e086611318565b825485526001948584018351808285829454938481520190895285892092895b8b88838310611722575050505061155092500382611318565b82820152600284018351808285829454938481520190895285892092895b8b8883831061170d575050505061158792500382611318565b8382015260038401805461159a816114c4565b916115a786519384611318565b81835287528387208790898685015b878585106116eb5750505050505060608201526004840180546115d8816114c4565b916115e586519384611318565b8183528752838720879089868086015b8585106116c0575050505050509060c091608082015260ff60066005870154968760a085015201541615159182910152600014611636575050505050600290565b845482516360d143f160e11b815291908190839060049082906001600160a01b03165afa9283156116b757508492611683575b5050611674916114db565b421061167e575090565b905090565b90809250813d83116116b0575b61169a8183611318565b810103126116ac575161167438611669565b8280fd5b503d611690565b513d86823e3d90fd5b9082918a516116da816116d3818961142e565b0382611318565b815201920192019190868b916115f5565b82918a516116fd816116d3818961142e565b8152019201920191908a906115b6565b8654855295810195879550909301920161156e565b86546001600160a01b03168552958101958795509093019201611537565b604051630992f7ad60e01b8152600490fd5b5080156114f3565b929192611766826113a4565b916117746040519384611318565b829481845281830111611791578281602093846000960137010152565b600080fd5b805182101561138e5760209160051b010190565b906020916117c3815180928185528580860191016113bf565b601f01601f1916010190565b9594939060809361180c936117fe9260018060a01b03168952602089015260a0604089015260a08801906117aa565b9086820360608801526117aa565b930152565b81811061181c575050565b60008155600101611811565b9181811061183557505050565b61184b9260005260206000209182019101611811565b565b9190601f811161185c57505050565b61184b926000526020600020906020601f840160051c83019310611888575b601f0160051c0190611811565b909150819061187b56fea26469706673582212209d1d1ef691f4899b3bac9562c0ef5d6982654bb274e648fd95563aed6fadebee64736f6c634300080f0033",
  "linkReferences": {},
  "deployedLinkReferences": {}
}