{
  "_format": "hh-sol-artifact-1",
  "contractName": "CometStorage",
  "sourceName": "contracts/CometStorage.sol",
  "abi": [
    {
      "inputs": [
        {
          "internalType": "address",
          "name": "",
          "type": "address"
        },
        {
          "internalType": "address",
          "name": "",
          "type": "address"
        }
      ],
      "name": "isAllowed",
      "outputs": [
        {
          "internalType": "bool",
          "name": "",
          "type": "bool"
        }
      ],
      "stateMutability": "view",
      "type": "function"
    },
    {
      "inputs": [
        {
          "internalType": "address",
          "name": "",
          "type": "address"
        }
      ],
      "name": "liquidatorPoints",
      "outputs": [
        {
          "internalType": "uint32",
          "name": "numAbsorbs",
          "type": "uint32"
        },
        {
          "internalType": "uint64",
          "name": "numAbsorbed",
          "type": "uint64"
        },
        {
          "internalType": "uint128",
          "name": "approxSpend",
          "type": "uint128"
        },
        {
          "internalType": "uint32",
          "name": "_reserved",
          "type": "uint32"
        }
      ],
      "stateMutability": "view",
      "type": "function"
    },
    {
      "inputs": [
        {
          "internalType": "address",
          "name": "",
          "type": "address"
        }
      ],
      "name": "totalsCollateral",
      "outputs": [
        {
          "internalType": "uint128",
          "name": "totalSupplyAsset",
          "type": "uint128"
        },
        {
          "internalType": "uint128",
          "name": "_reserved",
          "type": "uint128"
        }
      ],
      "stateMutability": "view",
      "type": "function"
    },
    {
      "inputs": [
        {
          "internalType": "address",
          "name": "",
          "type": "address"
        }
      ],
      "name": "userBasic",
      "outputs": [
        {
          "internalType": "int104",
          "name": "principal",
          "type": "int104"
        },
        {
          "internalType": "uint64",
          "name": "baseTrackingIndex",
          "type": "uint64"
        },
        {
          "internalType": "uint64",
          "name": "baseTrackingAccrued",
          "type": "uint64"
        },
        {
          "internalType": "uint16",
          "name": "assetsIn",
          "type": "uint16"
        },
        {
          "internalType": "uint8",
          "name": "_reserved",
          "type": "uint8"
        }
      ],
      "stateMutability": "view",
      "type": "function"
    },
    {
      "inputs": [
        {
          "internalType": "address",
          "name": "",
          "type": "address"
        },
        {
          "internalType": "address",
          "name": "",
          "type": "address"
        }
      ],
      "name": "userCollateral",
      "outputs": [
        {
          "internalType": "uint128",
          "name": "balance",
          "type": "uint128"
        },
        {
          "internalType": "uint128",
          "name": "_reserved",
          "type": "uint128"
        }
      ],
      "stateMutability": "view",
      "type": "function"
    },
    {
      "inputs": [
        {
          "internalType": "address",
          "name": "",
          "type": "address"
        }
      ],
      "name": "userNonce",
      "outputs": [
        {
          "internalType": "uint256",
          "name": "",
          "type": "uint256"
        }
      ],
      "stateMutability": "view",
      "type": "function"
    }
  ],
  "bytecode": "0x60808060405234610016576102dd908161001c8239f35b600080fdfe6080604081815260048036101561001557600080fd5b600092833560e01c9081632b92a07d14610224575080632e04b8e7146101eb57806359e017bd14610198578063a16543791461013f578063c5fa15cf146100d65763dc4abafd1461006557600080fd5b346100d25760203660031901126100d257356001600160a01b038116908190036100d25782829160a094526005602052205481519181600c0b835260018060401b03808360681c1660208501528260a81c169083015261ffff8160e81c16606083015260f81c6080820152f35b8280fd5b50346100d25760203660031901126100d257356001600160a01b038116908190036100d257828291608094526007602052205481519163ffffffff8216835260018060401b038260201c166020840152600180851b038260601c169083015260e01c6060820152f35b50346100d257816003193601126100d2576001600160a01b0390358181169081900361019457602435918216809203610194578360ff9284926020965260038652828220908252855220541690519015158152f35b8380fd5b50346100d25760203660031901126100d257356001600160a01b038116908190036100d25782526002602052908190205490519081906101e790608081901c906001600160801b03168361028d565b0390f35b50346100d25760203660031901126100d25780356001600160a01b03811690819003610194579282916020948252845220549051908152f35b92919050346101945781600319360112610194576001600160a01b039035818116908190036102895760243591821680920361028957845260066020908152828520918552529091205481906101e790608081901c906001600160801b03168361028d565b8480fd5b6001600160801b039182168152911660208201526040019056fea26469706673582212208bfc915ee33953bd844850349ffbeb01442bdee8bb21d0dfb9ed2c3e027f49f764736f6c634300080f0033",
  "linkReferences": {},
  "deployedLinkReferences": {}
}