{
  "_format": "hh-sol-artifact-1",
  "contractName": "FaucetWETH",
  "sourceName": "contracts/test/FaucetWETH.sol",
  "abi": [
    {
      "inputs": [
        {
          "internalType": "uint256",
          "name": "_initialAmount",
          "type": "uint256"
        },
        {
          "internalType": "string",
          "name": "_tokenName",
          "type": "string"
        },
        {
          "internalType": "uint8",
          "name": "_decimalUnits",
          "type": "uint8"
        },
        {
          "internalType": "string",
          "name": "_tokenSymbol",
          "type": "string"
        }
      ],
      "stateMutability": "nonpayable",
      "type": "constructor"
    },
    {
      "anonymous": false,
      "inputs": [
        {
          "indexed": true,
          "internalType": "address",
          "name": "src",
          "type": "address"
        },
        {
          "indexed": true,
          "internalType": "address",
          "name": "guy",
          "type": "address"
        },
        {
          "indexed": false,
          "internalType": "uint256",
          "name": "wad",
          "type": "uint256"
        }
      ],
      "name": "Approval",
      "type": "event"
    },
    {
      "anonymous": false,
      "inputs": [
        {
          "indexed": true,
          "internalType": "address",
          "name": "dst",
          "type": "address"
        },
        {
          "indexed": false,
          "internalType": "uint256",
          "name": "wad",
          "type": "uint256"
        }
      ],
      "name": "Deposit",
      "type": "event"
    },
    {
      "anonymous": false,
      "inputs": [
        {
          "indexed": true,
          "internalType": "address",
          "name": "src",
          "type": "address"
        },
        {
          "indexed": true,
          "internalType": "address",
          "name": "dst",
          "type": "address"
        },
        {
          "indexed": false,
          "internalType": "uint256",
          "name": "wad",
          "type": "uint256"
        }
      ],
      "name": "Transfer",
      "type": "event"
    },
    {
      "anonymous": false,
      "inputs": [
        {
          "indexed": true,
          "internalType": "address",
          "name": "src",
          "type": "address"
        },
        {
          "indexed": false,
          "internalType": "uint256",
          "name": "wad",
          "type": "uint256"
        }
      ],
      "name": "Withdrawal",
      "type": "event"
    },
    {
      "inputs": [
        {
          "internalType": "address",
          "name": "_owner",
          "type": "address"
        },
        {
          "internalType": "uint256",
          "name": "value",
          "type": "uint256"
        }
      ],
      "name": "allocateTo",
      "outputs": [],
      "stateMutability": "nonpayable",
      "type": "function"
    },
    {
      "inputs": [
        {
          "internalType": "address",
          "name": "",
          "type": "address"
        },
        {
          "internalType": "address",
          "name": "",
          "type": "address"
        }
      ],
      "name": "allowance",
      "outputs": [
        {
          "internalType": "uint256",
          "name": "",
          "type": "uint256"
        }
      ],
      "stateMutability": "view",
      "type": "function"
    },
    {
      "inputs": [
        {
          "internalType": "address",
          "name": "guy",
          "type": "address"
        },
        {
          "internalType": "uint256",
          "name": "wad",
          "type": "uint256"
        }
      ],
      "name": "approve",
      "outputs": [
        {
          "internalType": "bool",
          "name": "",
          "type": "bool"
        }
      ],
      "stateMutability": "nonpayable",
      "type": "function"
    },
    {
      "inputs": [
        {
          "internalType": "address",
          "name": "",
          "type": "address"
        }
      ],
      "name": "balanceOf",
      "outputs": [
        {
          "internalType": "uint256",
          "name": "",
          "type": "uint256"
        }
      ],
      "stateMutability": "view",
      "type": "function"
    },
    {
      "inputs": [],
      "name": "decimals",
      "outputs": [
        {
          "internalType": "uint8",
          "name": "",
          "type": "uint8"
        }
      ],
      "stateMutability": "view",
      "type": "function"
    },
    {
      "inputs": [],
      "name": "deposit",
      "outputs": [],
      "stateMutability": "payable",
      "type": "function"
    },
    {
      "inputs": [],
      "name": "name",
      "outputs": [
        {
          "internalType": "string",
          "name": "",
          "type": "string"
        }
      ],
      "stateMutability": "view",
      "type": "function"
    },
    {
      "inputs": [],
      "name": "symbol",
      "outputs": [
        {
          "internalType": "string",
          "name": "",
          "type": "string"
        }
      ],
      "stateMutability": "view",
      "type": "function"
    },
    {
      "inputs": [],
      "name": "totalSupply",
      "outputs": [
        {
          "internalType": "uint256",
          "name": "",
          "type": "uint256"
        }
      ],
      "stateMutability": "view",
      "type": "function"
    },
    {
      "inputs": [
        {
          "internalType": "address",
          "name": "dst",
          "type": "address"
        },
        {
          "internalType": "uint256",
          "name": "wad",
          "type": "uint256"
        }
      ],
      "name": "transfer",
      "outputs": [
        {
          "internalType": "bool",
          "name": "",
          "type": "bool"
        }
      ],
      "stateMutability": "nonpayable",
      "type": "function"
    },
    {
      "inputs": [
        {
          "internalType": "address",
          "name": "src",
          "type": "address"
        },
        {
          "internalType": "address",
          "name": "dst",
          "type": "address"
        },
        {
          "internalType": "uint256",
          "name": "wad",
          "type": "uint256"
        }
      ],
      "name": "transferFrom",
      "outputs": [
        {
          "internalType": "bool",
          "name": "",
          "type": "bool"
        }
      ],
      "stateMutability": "nonpayable",
      "type": "function"
    },
    {
      "inputs": [
        {
          "internalType": "uint256",
          "name": "wad",
          "type": "uint256"
        }
      ],
      "name": "withdraw",
      "outputs": [],
      "stateMutability": "nonpayable",
      "type": "function"
    },
    {
      "stateMutability": "payable",
      "type": "receive"
    }
  ],
  "bytecode": "0x6080604052346100de5761092c80380380610019816100e3565b92833981016080828203126100de5760208201516001600160401b03908181116100de578261004991850161011e565b50604083015160ff8116036100de5760608301519081116100de5761006e920161011e565b50610086600d61007f600054610199565b60006101d3565b601a6c2bb930b83832b21022ba3432b960991b016000556100b460046100ad600154610199565b60016101d3565b6008630ae8aa8960e31b016001556002805460ff1916601217905560405161070490816102288239f35b600080fd5b6040519190601f01601f191682016001600160401b0381118382101761010857604052565b634e487b7160e01b600052604160045260246000fd5b81601f820112156100de578051906001600160401b0382116101085760209061014f601f8401601f191683016100e3565b938385528284830101116100de5782906000905b838383106101815750501161017757505090565b6000918301015290565b81935082819392010151828288010152018391610163565b90600182811c921680156101c9575b60208310146101b357565b634e487b7160e01b600052602260045260246000fd5b91607f16916101a8565b90601f81116101e157505050565b600091825260208220906020601f850160051c8301941061021d575b601f0160051c01915b82811061021257505050565b818155600101610206565b90925082906101fd56fe60406080815260049081361015610028575b5050361561001e57600080fd5b61002661055b565b005b600091823560e01c806306fdde03146103bc57806308bca56614610361578063095ea7b3146102ec57806318160ddd146102d157806323b872dd1461028e5780632e1a7d4d146101f6578063313ce567146101d457806370a082311461019b57806395d89b411461016c578063a9059cbb1461012c578063d0e30db0146101105763dd62ed3e146100b95750610011565b3461010c578160031936011261010c576001600160a01b039080358281169081900361010857602435928316809303610108579184918493602096528552828220908252845220549051908152f35b8480fd5b8280fd5b5050816003193601126101285761012561055b565b51f35b5080fd5b503461010c578160031936011261010c5735916001600160a01b0383168303610169575061016060209260243590336105af565b90519015158152f35b80fd5b50503461012857816003193601126101285761018c6101979260016103d7565b9051918291826104e2565b0390f35b503461010c57602036600319011261010c57356001600160a01b0381169081900361010c57828291602094526003845220549051908152f35b50503461012857816003193601126101285760209060ff600254169051908152f35b503461010c57602036600319011261010c5735338352600360205280828420541061010c5733835260036020528183206102318282546105a4565b90558280828015610284575b8280929181923390f1156102795781519081527f7fcf532c15f0a6db0bd6d0e038bea71d30d808c7d98cb3bf7268a95bf5081b6560203392a251f35b5051903d90823e3d90fd5b6108fc915061023d565b503461010c57606036600319011261010c5735916001600160a01b03908184168403610169576024359182168203610169575060209261016091604435916105af565b50503461012857816003193601126101285751478152602090f35b503461010c578160031936011261010c5780356001600160a01b038116919082900361035d57926020938360243592839233825287528181208582528752205582519081527f8c5be1e5ebec7d5bd14f71427d1e84f3dd0314c0f7b2291e5b200ac8c7c3b925843392a35160018152f35b8380fd5b503461010c578160031936011261010c57356001600160a01b0381169081900361010c57602435818452600360205282842061039e828254610539565b905582519081526000805160206106af83398151915260203092a351f35b50503461012857816003193601126101285761018c82610197935b906104cc5760405190600090805490600182811c918184169384156104c2575b60209485851081146104ae578488529081156104905750600114610454575b50505050819003601f01601f191681016001600160401b0381118282101761043e5760405290565b634e487b7160e01b600052604160045260246000fd5b909293506000528260002091836000935b83851061047c575050505082010138808080610416565b805487860183015293019284908201610465565b60ff191687860152505050151560051b830101905038808080610416565b634e487b7160e01b87526022600452602487fd5b92607f16926103f7565b634e487b7160e01b600052600060045260246000fd5b919091602080825283519081818401526000945b828610610523575050806040939411610516575b601f01601f1916010190565b600083828401015261050a565b85810182015184870160400152948101946104f6565b81198111610545570190565b634e487b7160e01b600052601160045260246000fd5b3360005260036020526040600020610574348254610539565b90556040513481527fe1fffcc4923d04b559f4d29a8bfc6cda04eb5b0d3c460751c2402c5c5cc9109c60203392a2565b818110610545570390565b91909160018060a01b03809116916000938385526020926003845260409183838820541061068c573386141580610690575b610633575b9180916000805160206106af833981519152959493878952600386528289206106108682546105a4565b905516968781526003855220610627838254610539565b905551908152a3600190565b85875260048552828720338852855283838820541061068c579180916000805160206106af83398151915295949387895260048652828920338a52865282892061067e8682546105a4565b9055915091929394506105e6565b8680fd5b508587526004855282872033885285528287205460001914156105e156feddf252ad1be2c89b69c2b068fc378daa952ba7f163c4a11628f55a4df523b3efa2646970667358221220d7b162535df69a50bf81b7600514f8197fa112644e354143a5802f2a3a2d9e9864736f6c634300080f0033",
  "linkReferences": {},
  "deployedLinkReferences": {}
}