{
  "_format": "hh-sol-artifact-1",
  "contractName": "CometHarness",
  "sourceName": "contracts/test/CometHarness.sol",
  "abi": [
    {
      "inputs": [
        {
          "components": [
            {
              "internalType": "address",
              "name": "governor",
              "type": "address"
            },
            {
              "internalType": "address",
              "name": "pauseGuardian",
              "type": "address"
            },
            {
              "internalType": "address",
              "name": "baseToken",
              "type": "address"
            },
            {
              "internalType": "address",
              "name": "baseTokenPriceFeed",
              "type": "address"
            },
            {
              "internalType": "address",
              "name": "extensionDelegate",
              "type": "address"
            },
            {
              "internalType": "uint64",
              "name": "supplyKink",
              "type": "uint64"
            },
            {
              "internalType": "uint64",
              "name": "supplyPerYearInterestRateSlopeLow",
              "type": "uint64"
            },
            {
              "internalType": "uint64",
              "name": "supplyPerYearInterestRateSlopeHigh",
              "type": "uint64"
            },
            {
              "internalType": "uint64",
              "name": "supplyPerYearInterestRateBase",
              "type": "uint64"
            },
            {
              "internalType": "uint64",
              "name": "borrowKink",
              "type": "uint64"
            },
            {
              "internalType": "uint64",
              "name": "borrowPerYearInterestRateSlopeLow",
              "type": "uint64"
            },
            {
              "internalType": "uint64",
              "name": "borrowPerYearInterestRateSlopeHigh",
              "type": "uint64"
            },
            {
              "internalType": "uint64",
              "name": "borrowPerYearInterestRateBase",
              "type": "uint64"
            },
            {
              "internalType": "uint64",
              "name": "storeFrontPriceFactor",
              "type": "uint64"
            },
            {
              "internalType": "uint64",
              "name": "trackingIndexScale",
              "type": "uint64"
            },
            {
              "internalType": "uint64",
              "name": "baseTrackingSupplySpeed",
              "type": "uint64"
            },
            {
              "internalType": "uint64",
              "name": "baseTrackingBorrowSpeed",
              "type": "uint64"
            },
            {
              "internalType": "uint104",
              "name": "baseMinForRewards",
              "type": "uint104"
            },
            {
              "internalType": "uint104",
              "name": "baseBorrowMin",
              "type": "uint104"
            },
            {
              "internalType": "uint104",
              "name": "targetReserves",
              "type": "uint104"
            },
            {
              "components": [
                {
                  "internalType": "address",
                  "name": "asset",
                  "type": "address"
                },
                {
                  "internalType": "address",
                  "name": "priceFeed",
                  "type": "address"
                },
                {
                  "internalType": "uint8",
                  "name": "decimals",
                  "type": "uint8"
                },
                {
                  "internalType": "uint64",
                  "name": "borrowCollateralFactor",
                  "type": "uint64"
                },
                {
                  "internalType": "uint64",
                  "name": "liquidateCollateralFactor",
                  "type": "uint64"
                },
                {
                  "internalType": "uint64",
                  "name": "liquidationFactor",
                  "type": "uint64"
                },
                {
                  "internalType": "uint128",
                  "name": "supplyCap",
                  "type": "uint128"
                }
              ],
              "internalType": "struct CometConfiguration.AssetConfig[]",
              "name": "assetConfigs",
              "type": "tuple[]"
            }
          ],
          "internalType": "struct CometConfiguration.Configuration",
          "name": "config",
          "type": "tuple"
        }
      ],
      "stateMutability": "nonpayable",
      "type": "constructor"
    },
    {
      "inputs": [],
      "name": "Absurd",
      "type": "error"
    },
    {
      "inputs": [],
      "name": "AlreadyInitialized",
      "type": "error"
    },
    {
      "inputs": [],
      "name": "BadAsset",
      "type": "error"
    },
    {
      "inputs": [],
      "name": "BadDecimals",
      "type": "error"
    },
    {
      "inputs": [],
      "name": "BadDiscount",
      "type": "error"
    },
    {
      "inputs": [],
      "name": "BadMinimum",
      "type": "error"
    },
    {
      "inputs": [],
      "name": "BadPrice",
      "type": "error"
    },
    {
      "inputs": [],
      "name": "BorrowCFTooLarge",
      "type": "error"
    },
    {
      "inputs": [],
      "name": "BorrowTooSmall",
      "type": "error"
    },
    {
      "inputs": [],
      "name": "InsufficientReserves",
      "type": "error"
    },
    {
      "inputs": [],
      "name": "InvalidInt104",
      "type": "error"
    },
    {
      "inputs": [],
      "name": "InvalidInt256",
      "type": "error"
    },
    {
      "inputs": [],
      "name": "InvalidUInt104",
      "type": "error"
    },
    {
      "inputs": [],
      "name": "InvalidUInt128",
      "type": "error"
    },
    {
      "inputs": [],
      "name": "InvalidUInt64",
      "type": "error"
    },
    {
      "inputs": [],
      "name": "LiquidateCFTooLarge",
      "type": "error"
    },
    {
      "inputs": [],
      "name": "NegativeNumber",
      "type": "error"
    },
    {
      "inputs": [],
      "name": "NoSelfTransfer",
      "type": "error"
    },
    {
      "inputs": [],
      "name": "NotCollateralized",
      "type": "error"
    },
    {
      "inputs": [],
      "name": "NotForSale",
      "type": "error"
    },
    {
      "inputs": [],
      "name": "NotLiquidatable",
      "type": "error"
    },
    {
      "inputs": [],
      "name": "Paused",
      "type": "error"
    },
    {
      "inputs": [],
      "name": "SupplyCapExceeded",
      "type": "error"
    },
    {
      "inputs": [],
      "name": "TimestampTooLarge",
      "type": "error"
    },
    {
      "inputs": [],
      "name": "TooManyAssets",
      "type": "error"
    },
    {
      "inputs": [],
      "name": "TooMuchSlippage",
      "type": "error"
    },
    {
      "inputs": [],
      "name": "TransferInFailed",
      "type": "error"
    },
    {
      "inputs": [],
      "name": "TransferOutFailed",
      "type": "error"
    },
    {
      "inputs": [],
      "name": "Unauthorized",
      "type": "error"
    },
    {
      "anonymous": false,
      "inputs": [
        {
          "indexed": true,
          "internalType": "address",
          "name": "absorber",
          "type": "address"
        },
        {
          "indexed": true,
          "internalType": "address",
          "name": "borrower",
          "type": "address"
        },
        {
          "indexed": true,
          "internalType": "address",
          "name": "asset",
          "type": "address"
        },
        {
          "indexed": false,
          "internalType": "uint256",
          "name": "collateralAbsorbed",
          "type": "uint256"
        },
        {
          "indexed": false,
          "internalType": "uint256",
          "name": "usdValue",
          "type": "uint256"
        }
      ],
      "name": "AbsorbCollateral",
      "type": "event"
    },
    {
      "anonymous": false,
      "inputs": [
        {
          "indexed": true,
          "internalType": "address",
          "name": "absorber",
          "type": "address"
        },
        {
          "indexed": true,
          "internalType": "address",
          "name": "borrower",
          "type": "address"
        },
        {
          "indexed": false,
          "internalType": "uint256",
          "name": "basePaidOut",
          "type": "uint256"
        },
        {
          "indexed": false,
          "internalType": "uint256",
          "name": "usdValue",
          "type": "uint256"
        }
      ],
      "name": "AbsorbDebt",
      "type": "event"
    },
    {
      "anonymous": false,
      "inputs": [
        {
          "indexed": true,
          "internalType": "address",
          "name": "buyer",
          "type": "address"
        },
        {
          "indexed": true,
          "internalType": "address",
          "name": "asset",
          "type": "address"
        },
        {
          "indexed": false,
          "internalType": "uint256",
          "name": "baseAmount",
          "type": "uint256"
        },
        {
          "indexed": false,
          "internalType": "uint256",
          "name": "collateralAmount",
          "type": "uint256"
        }
      ],
      "name": "BuyCollateral",
      "type": "event"
    },
    {
      "anonymous": false,
      "inputs": [
        {
          "indexed": false,
          "internalType": "bool",
          "name": "supplyPaused",
          "type": "bool"
        },
        {
          "indexed": false,
          "internalType": "bool",
          "name": "transferPaused",
          "type": "bool"
        },
        {
          "indexed": false,
          "internalType": "bool",
          "name": "withdrawPaused",
          "type": "bool"
        },
        {
          "indexed": false,
          "internalType": "bool",
          "name": "absorbPaused",
          "type": "bool"
        },
        {
          "indexed": false,
          "internalType": "bool",
          "name": "buyPaused",
          "type": "bool"
        }
      ],
      "name": "PauseAction",
      "type": "event"
    },
    {
      "anonymous": false,
      "inputs": [
        {
          "indexed": true,
          "internalType": "address",
          "name": "from",
          "type": "address"
        },
        {
          "indexed": true,
          "internalType": "address",
          "name": "dst",
          "type": "address"
        },
        {
          "indexed": false,
          "internalType": "uint256",
          "name": "amount",
          "type": "uint256"
        }
      ],
      "name": "Supply",
      "type": "event"
    },
    {
      "anonymous": false,
      "inputs": [
        {
          "indexed": true,
          "internalType": "address",
          "name": "from",
          "type": "address"
        },
        {
          "indexed": true,
          "internalType": "address",
          "name": "dst",
          "type": "address"
        },
        {
          "indexed": true,
          "internalType": "address",
          "name": "asset",
          "type": "address"
        },
        {
          "indexed": false,
          "internalType": "uint256",
          "name": "amount",
          "type": "uint256"
        }
      ],
      "name": "SupplyCollateral",
      "type": "event"
    },
    {
      "anonymous": false,
      "inputs": [
        {
          "indexed": true,
          "internalType": "address",
          "name": "from",
          "type": "address"
        },
        {
          "indexed": true,
          "internalType": "address",
          "name": "to",
          "type": "address"
        },
        {
          "indexed": false,
          "internalType": "uint256",
          "name": "amount",
          "type": "uint256"
        }
      ],
      "name": "Transfer",
      "type": "event"
    },
    {
      "anonymous": false,
      "inputs": [
        {
          "indexed": true,
          "internalType": "address",
          "name": "from",
          "type": "address"
        },
        {
          "indexed": true,
          "internalType": "address",
          "name": "to",
          "type": "address"
        },
        {
          "indexed": true,
          "internalType": "address",
          "name": "asset",
          "type": "address"
        },
        {
          "indexed": false,
          "internalType": "uint256",
          "name": "amount",
          "type": "uint256"
        }
      ],
      "name": "TransferCollateral",
      "type": "event"
    },
    {
      "anonymous": false,
      "inputs": [
        {
          "indexed": true,
          "internalType": "address",
          "name": "src",
          "type": "address"
        },
        {
          "indexed": true,
          "internalType": "address",
          "name": "to",
          "type": "address"
        },
        {
          "indexed": false,
          "internalType": "uint256",
          "name": "amount",
          "type": "uint256"
        }
      ],
      "name": "Withdraw",
      "type": "event"
    },
    {
      "anonymous": false,
      "inputs": [
        {
          "indexed": true,
          "internalType": "address",
          "name": "src",
          "type": "address"
        },
        {
          "indexed": true,
          "internalType": "address",
          "name": "to",
          "type": "address"
        },
        {
          "indexed": true,
          "internalType": "address",
          "name": "asset",
          "type": "address"
        },
        {
          "indexed": false,
          "internalType": "uint256",
          "name": "amount",
          "type": "uint256"
        }
      ],
      "name": "WithdrawCollateral",
      "type": "event"
    },
    {
      "anonymous": false,
      "inputs": [
        {
          "indexed": true,
          "internalType": "address",
          "name": "to",
          "type": "address"
        },
        {
          "indexed": false,
          "internalType": "uint256",
          "name": "amount",
          "type": "uint256"
        }
      ],
      "name": "WithdrawReserves",
      "type": "event"
    },
    {
      "stateMutability": "payable",
      "type": "fallback"
    },
    {
      "inputs": [
        {
          "internalType": "address",
          "name": "absorber",
          "type": "address"
        },
        {
          "internalType": "address[]",
          "name": "accounts",
          "type": "address[]"
        }
      ],
      "name": "absorb",
      "outputs": [],
      "stateMutability": "nonpayable",
      "type": "function"
    },
    {
      "inputs": [],
      "name": "accrue",
      "outputs": [],
      "stateMutability": "nonpayable",
      "type": "function"
    },
    {
      "inputs": [
        {
          "internalType": "address",
          "name": "account",
          "type": "address"
        }
      ],
      "name": "accrueAccount",
      "outputs": [],
      "stateMutability": "nonpayable",
      "type": "function"
    },
    {
      "inputs": [
        {
          "internalType": "address",
          "name": "manager",
          "type": "address"
        },
        {
          "internalType": "address",
          "name": "asset",
          "type": "address"
        },
        {
          "internalType": "uint256",
          "name": "amount",
          "type": "uint256"
        }
      ],
      "name": "approveThis",
      "outputs": [],
      "stateMutability": "nonpayable",
      "type": "function"
    },
    {
      "inputs": [
        {
          "internalType": "address",
          "name": "account",
          "type": "address"
        }
      ],
      "name": "balanceOf",
      "outputs": [
        {
          "internalType": "uint256",
          "name": "",
          "type": "uint256"
        }
      ],
      "stateMutability": "view",
      "type": "function"
    },
    {
      "inputs": [],
      "name": "baseBorrowMin",
      "outputs": [
        {
          "internalType": "uint256",
          "name": "",
          "type": "uint256"
        }
      ],
      "stateMutability": "view",
      "type": "function"
    },
    {
      "inputs": [],
      "name": "baseMinForRewards",
      "outputs": [
        {
          "internalType": "uint256",
          "name": "",
          "type": "uint256"
        }
      ],
      "stateMutability": "view",
      "type": "function"
    },
    {
      "inputs": [],
      "name": "baseScale",
      "outputs": [
        {
          "internalType": "uint256",
          "name": "",
          "type": "uint256"
        }
      ],
      "stateMutability": "view",
      "type": "function"
    },
    {
      "inputs": [],
      "name": "baseToken",
      "outputs": [
        {
          "internalType": "address",
          "name": "",
          "type": "address"
        }
      ],
      "stateMutability": "view",
      "type": "function"
    },
    {
      "inputs": [],
      "name": "baseTokenPriceFeed",
      "outputs": [
        {
          "internalType": "address",
          "name": "",
          "type": "address"
        }
      ],
      "stateMutability": "view",
      "type": "function"
    },
    {
      "inputs": [],
      "name": "baseTrackingBorrowSpeed",
      "outputs": [
        {
          "internalType": "uint256",
          "name": "",
          "type": "uint256"
        }
      ],
      "stateMutability": "view",
      "type": "function"
    },
    {
      "inputs": [],
      "name": "baseTrackingSupplySpeed",
      "outputs": [
        {
          "internalType": "uint256",
          "name": "",
          "type": "uint256"
        }
      ],
      "stateMutability": "view",
      "type": "function"
    },
    {
      "inputs": [
        {
          "internalType": "address",
          "name": "account",
          "type": "address"
        }
      ],
      "name": "borrowBalanceOf",
      "outputs": [
        {
          "internalType": "uint256",
          "name": "",
          "type": "uint256"
        }
      ],
      "stateMutability": "view",
      "type": "function"
    },
    {
      "inputs": [],
      "name": "borrowKink",
      "outputs": [
        {
          "internalType": "uint256",
          "name": "",
          "type": "uint256"
        }
      ],
      "stateMutability": "view",
      "type": "function"
    },
    {
      "inputs": [],
      "name": "borrowPerSecondInterestRateBase",
      "outputs": [
        {
          "internalType": "uint256",
          "name": "",
          "type": "uint256"
        }
      ],
      "stateMutability": "view",
      "type": "function"
    },
    {
      "inputs": [],
      "name": "borrowPerSecondInterestRateSlopeHigh",
      "outputs": [
        {
          "internalType": "uint256",
          "name": "",
          "type": "uint256"
        }
      ],
      "stateMutability": "view",
      "type": "function"
    },
    {
      "inputs": [],
      "name": "borrowPerSecondInterestRateSlopeLow",
      "outputs": [
        {
          "internalType": "uint256",
          "name": "",
          "type": "uint256"
        }
      ],
      "stateMutability": "view",
      "type": "function"
    },
    {
      "inputs": [
        {
          "internalType": "address",
          "name": "asset",
          "type": "address"
        },
        {
          "internalType": "uint256",
          "name": "minAmount",
          "type": "uint256"
        },
        {
          "internalType": "uint256",
          "name": "baseAmount",
          "type": "uint256"
        },
        {
          "internalType": "address",
          "name": "recipient",
          "type": "address"
        }
      ],
      "name": "buyCollateral",
      "outputs": [],
      "stateMutability": "nonpayable",
      "type": "function"
    },
    {
      "inputs": [],
      "name": "decimals",
      "outputs": [
        {
          "internalType": "uint8",
          "name": "",
          "type": "uint8"
        }
      ],
      "stateMutability": "view",
      "type": "function"
    },
    {
      "inputs": [],
      "name": "extensionDelegate",
      "outputs": [
        {
          "internalType": "address",
          "name": "",
          "type": "address"
        }
      ],
      "stateMutability": "view",
      "type": "function"
    },
    {
      "inputs": [
        {
          "internalType": "uint8",
          "name": "i",
          "type": "uint8"
        }
      ],
      "name": "getAssetInfo",
      "outputs": [
        {
          "components": [
            {
              "internalType": "uint8",
              "name": "offset",
              "type": "uint8"
            },
            {
              "internalType": "address",
              "name": "asset",
              "type": "address"
            },
            {
              "internalType": "address",
              "name": "priceFeed",
              "type": "address"
            },
            {
              "internalType": "uint64",
              "name": "scale",
              "type": "uint64"
            },
            {
              "internalType": "uint64",
              "name": "borrowCollateralFactor",
              "type": "uint64"
            },
            {
              "internalType": "uint64",
              "name": "liquidateCollateralFactor",
              "type": "uint64"
            },
            {
              "internalType": "uint64",
              "name": "liquidationFactor",
              "type": "uint64"
            },
            {
              "internalType": "uint128",
              "name": "supplyCap",
              "type": "uint128"
            }
          ],
          "internalType": "struct CometCore.AssetInfo",
          "name": "",
          "type": "tuple"
        }
      ],
      "stateMutability": "view",
      "type": "function"
    },
    {
      "inputs": [
        {
          "internalType": "address",
          "name": "asset",
          "type": "address"
        }
      ],
      "name": "getAssetInfoByAddress",
      "outputs": [
        {
          "components": [
            {
              "internalType": "uint8",
              "name": "offset",
              "type": "uint8"
            },
            {
              "internalType": "address",
              "name": "asset",
              "type": "address"
            },
            {
              "internalType": "address",
              "name": "priceFeed",
              "type": "address"
            },
            {
              "internalType": "uint64",
              "name": "scale",
              "type": "uint64"
            },
            {
              "internalType": "uint64",
              "name": "borrowCollateralFactor",
              "type": "uint64"
            },
            {
              "internalType": "uint64",
              "name": "liquidateCollateralFactor",
              "type": "uint64"
            },
            {
              "internalType": "uint64",
              "name": "liquidationFactor",
              "type": "uint64"
            },
            {
              "internalType": "uint128",
              "name": "supplyCap",
              "type": "uint128"
            }
          ],
          "internalType": "struct CometCore.AssetInfo",
          "name": "",
          "type": "tuple"
        }
      ],
      "stateMutability": "view",
      "type": "function"
    },
    {
      "inputs": [
        {
          "internalType": "address",
          "name": "account",
          "type": "address"
        }
      ],
      "name": "getAssetList",
      "outputs": [
        {
          "internalType": "address[]",
          "name": "result",
          "type": "address[]"
        }
      ],
      "stateMutability": "view",
      "type": "function"
    },
    {
      "inputs": [
        {
          "internalType": "uint256",
          "name": "utilization",
          "type": "uint256"
        }
      ],
      "name": "getBorrowRate",
      "outputs": [
        {
          "internalType": "uint64",
          "name": "",
          "type": "uint64"
        }
      ],
      "stateMutability": "view",
      "type": "function"
    },
    {
      "inputs": [],
      "name": "getNow",
      "outputs": [
        {
          "internalType": "uint40",
          "name": "",
          "type": "uint40"
        }
      ],
      "stateMutability": "view",
      "type": "function"
    },
    {
      "inputs": [
        {
          "internalType": "address",
          "name": "priceFeed",
          "type": "address"
        }
      ],
      "name": "getPrice",
      "outputs": [
        {
          "internalType": "uint256",
          "name": "",
          "type": "uint256"
        }
      ],
      "stateMutability": "view",
      "type": "function"
    },
    {
      "inputs": [],
      "name": "getReserves",
      "outputs": [
        {
          "internalType": "int256",
          "name": "",
          "type": "int256"
        }
      ],
      "stateMutability": "view",
      "type": "function"
    },
    {
      "inputs": [
        {
          "internalType": "uint256",
          "name": "utilization",
          "type": "uint256"
        }
      ],
      "name": "getSupplyRate",
      "outputs": [
        {
          "internalType": "uint64",
          "name": "",
          "type": "uint64"
        }
      ],
      "stateMutability": "view",
      "type": "function"
    },
    {
      "inputs": [],
      "name": "getUtilization",
      "outputs": [
        {
          "internalType": "uint256",
          "name": "",
          "type": "uint256"
        }
      ],
      "stateMutability": "view",
      "type": "function"
    },
    {
      "inputs": [],
      "name": "governor",
      "outputs": [
        {
          "internalType": "address",
          "name": "",
          "type": "address"
        }
      ],
      "stateMutability": "view",
      "type": "function"
    },
    {
      "inputs": [
        {
          "internalType": "address",
          "name": "owner",
          "type": "address"
        },
        {
          "internalType": "address",
          "name": "manager",
          "type": "address"
        }
      ],
      "name": "hasPermission",
      "outputs": [
        {
          "internalType": "bool",
          "name": "",
          "type": "bool"
        }
      ],
      "stateMutability": "view",
      "type": "function"
    },
    {
      "inputs": [],
      "name": "initializeStorage",
      "outputs": [],
      "stateMutability": "nonpayable",
      "type": "function"
    },
    {
      "inputs": [],
      "name": "isAbsorbPaused",
      "outputs": [
        {
          "internalType": "bool",
          "name": "",
          "type": "bool"
        }
      ],
      "stateMutability": "view",
      "type": "function"
    },
    {
      "inputs": [
        {
          "internalType": "address",
          "name": "",
          "type": "address"
        },
        {
          "internalType": "address",
          "name": "",
          "type": "address"
        }
      ],
      "name": "isAllowed",
      "outputs": [
        {
          "internalType": "bool",
          "name": "",
          "type": "bool"
        }
      ],
      "stateMutability": "view",
      "type": "function"
    },
    {
      "inputs": [
        {
          "internalType": "address",
          "name": "account",
          "type": "address"
        }
      ],
      "name": "isBorrowCollateralized",
      "outputs": [
        {
          "internalType": "bool",
          "name": "",
          "type": "bool"
        }
      ],
      "stateMutability": "view",
      "type": "function"
    },
    {
      "inputs": [],
      "name": "isBuyPaused",
      "outputs": [
        {
          "internalType": "bool",
          "name": "",
          "type": "bool"
        }
      ],
      "stateMutability": "view",
      "type": "function"
    },
    {
      "inputs": [
        {
          "internalType": "address",
          "name": "account",
          "type": "address"
        }
      ],
      "name": "isLiquidatable",
      "outputs": [
        {
          "internalType": "bool",
          "name": "",
          "type": "bool"
        }
      ],
      "stateMutability": "view",
      "type": "function"
    },
    {
      "inputs": [],
      "name": "isSupplyPaused",
      "outputs": [
        {
          "internalType": "bool",
          "name": "",
          "type": "bool"
        }
      ],
      "stateMutability": "view",
      "type": "function"
    },
    {
      "inputs": [],
      "name": "isTransferPaused",
      "outputs": [
        {
          "internalType": "bool",
          "name": "",
          "type": "bool"
        }
      ],
      "stateMutability": "view",
      "type": "function"
    },
    {
      "inputs": [],
      "name": "isWithdrawPaused",
      "outputs": [
        {
          "internalType": "bool",
          "name": "",
          "type": "bool"
        }
      ],
      "stateMutability": "view",
      "type": "function"
    },
    {
      "inputs": [
        {
          "internalType": "address",
          "name": "",
          "type": "address"
        }
      ],
      "name": "liquidatorPoints",
      "outputs": [
        {
          "internalType": "uint32",
          "name": "numAbsorbs",
          "type": "uint32"
        },
        {
          "internalType": "uint64",
          "name": "numAbsorbed",
          "type": "uint64"
        },
        {
          "internalType": "uint128",
          "name": "approxSpend",
          "type": "uint128"
        },
        {
          "internalType": "uint32",
          "name": "_reserved",
          "type": "uint32"
        }
      ],
      "stateMutability": "view",
      "type": "function"
    },
    {
      "inputs": [],
      "name": "nowOverride",
      "outputs": [
        {
          "internalType": "uint256",
          "name": "",
          "type": "uint256"
        }
      ],
      "stateMutability": "view",
      "type": "function"
    },
    {
      "inputs": [],
      "name": "numAssets",
      "outputs": [
        {
          "internalType": "uint8",
          "name": "",
          "type": "uint8"
        }
      ],
      "stateMutability": "view",
      "type": "function"
    },
    {
      "inputs": [
        {
          "internalType": "bool",
          "name": "supplyPaused",
          "type": "bool"
        },
        {
          "internalType": "bool",
          "name": "transferPaused",
          "type": "bool"
        },
        {
          "internalType": "bool",
          "name": "withdrawPaused",
          "type": "bool"
        },
        {
          "internalType": "bool",
          "name": "absorbPaused",
          "type": "bool"
        },
        {
          "internalType": "bool",
          "name": "buyPaused",
          "type": "bool"
        }
      ],
      "name": "pause",
      "outputs": [],
      "stateMutability": "nonpayable",
      "type": "function"
    },
    {
      "inputs": [],
      "name": "pauseGuardian",
      "outputs": [
        {
          "internalType": "address",
          "name": "",
          "type": "address"
        }
      ],
      "stateMutability": "view",
      "type": "function"
    },
    {
      "inputs": [
        {
          "internalType": "address",
          "name": "asset",
          "type": "address"
        },
        {
          "internalType": "uint256",
          "name": "baseAmount",
          "type": "uint256"
        }
      ],
      "name": "quoteCollateral",
      "outputs": [
        {
          "internalType": "uint256",
          "name": "",
          "type": "uint256"
        }
      ],
      "stateMutability": "view",
      "type": "function"
    },
    {
      "inputs": [
        {
          "internalType": "address",
          "name": "account",
          "type": "address"
        },
        {
          "internalType": "int104",
          "name": "principal",
          "type": "int104"
        }
      ],
      "name": "setBasePrincipal",
      "outputs": [],
      "stateMutability": "nonpayable",
      "type": "function"
    },
    {
      "inputs": [
        {
          "internalType": "address",
          "name": "account",
          "type": "address"
        },
        {
          "internalType": "address",
          "name": "asset",
          "type": "address"
        },
        {
          "internalType": "uint128",
          "name": "balance",
          "type": "uint128"
        }
      ],
      "name": "setCollateralBalance",
      "outputs": [],
      "stateMutability": "nonpayable",
      "type": "function"
    },
    {
      "inputs": [
        {
          "internalType": "uint256",
          "name": "now_",
          "type": "uint256"
        }
      ],
      "name": "setNow",
      "outputs": [],
      "stateMutability": "nonpayable",
      "type": "function"
    },
    {
      "inputs": [
        {
          "components": [
            {
              "internalType": "uint64",
              "name": "baseSupplyIndex",
              "type": "uint64"
            },
            {
              "internalType": "uint64",
              "name": "baseBorrowIndex",
              "type": "uint64"
            },
            {
              "internalType": "uint64",
              "name": "trackingSupplyIndex",
              "type": "uint64"
            },
            {
              "internalType": "uint64",
              "name": "trackingBorrowIndex",
              "type": "uint64"
            },
            {
              "internalType": "uint104",
              "name": "totalSupplyBase",
              "type": "uint104"
            },
            {
              "internalType": "uint104",
              "name": "totalBorrowBase",
              "type": "uint104"
            },
            {
              "internalType": "uint40",
              "name": "lastAccrualTime",
              "type": "uint40"
            },
            {
              "internalType": "uint8",
              "name": "pauseFlags",
              "type": "uint8"
            }
          ],
          "internalType": "struct CometStorage.TotalsBasic",
          "name": "totals",
          "type": "tuple"
        }
      ],
      "name": "setTotalsBasic",
      "outputs": [],
      "stateMutability": "nonpayable",
      "type": "function"
    },
    {
      "inputs": [
        {
          "internalType": "address",
          "name": "asset",
          "type": "address"
        },
        {
          "components": [
            {
              "internalType": "uint128",
              "name": "totalSupplyAsset",
              "type": "uint128"
            },
            {
              "internalType": "uint128",
              "name": "_reserved",
              "type": "uint128"
            }
          ],
          "internalType": "struct CometStorage.TotalsCollateral",
          "name": "totals",
          "type": "tuple"
        }
      ],
      "name": "setTotalsCollateral",
      "outputs": [],
      "stateMutability": "nonpayable",
      "type": "function"
    },
    {
      "inputs": [],
      "name": "storeFrontPriceFactor",
      "outputs": [
        {
          "internalType": "uint256",
          "name": "",
          "type": "uint256"
        }
      ],
      "stateMutability": "view",
      "type": "function"
    },
    {
      "inputs": [
        {
          "internalType": "address",
          "name": "asset",
          "type": "address"
        },
        {
          "internalType": "uint256",
          "name": "amount",
          "type": "uint256"
        }
      ],
      "name": "supply",
      "outputs": [],
      "stateMutability": "nonpayable",
      "type": "function"
    },
    {
      "inputs": [
        {
          "internalType": "address",
          "name": "from",
          "type": "address"
        },
        {
          "internalType": "address",
          "name": "dst",
          "type": "address"
        },
        {
          "internalType": "address",
          "name": "asset",
          "type": "address"
        },
        {
          "internalType": "uint256",
          "name": "amount",
          "type": "uint256"
        }
      ],
      "name": "supplyFrom",
      "outputs": [],
      "stateMutability": "nonpayable",
      "type": "function"
    },
    {
      "inputs": [],
      "name": "supplyKink",
      "outputs": [
        {
          "internalType": "uint256",
          "name": "",
          "type": "uint256"
        }
      ],
      "stateMutability": "view",
      "type": "function"
    },
    {
      "inputs": [],
      "name": "supplyPerSecondInterestRateBase",
      "outputs": [
        {
          "internalType": "uint256",
          "name": "",
          "type": "uint256"
        }
      ],
      "stateMutability": "view",
      "type": "function"
    },
    {
      "inputs": [],
      "name": "supplyPerSecondInterestRateSlopeHigh",
      "outputs": [
        {
          "internalType": "uint256",
          "name": "",
          "type": "uint256"
        }
      ],
      "stateMutability": "view",
      "type": "function"
    },
    {
      "inputs": [],
      "name": "supplyPerSecondInterestRateSlopeLow",
      "outputs": [
        {
          "internalType": "uint256",
          "name": "",
          "type": "uint256"
        }
      ],
      "stateMutability": "view",
      "type": "function"
    },
    {
      "inputs": [
        {
          "internalType": "address",
          "name": "dst",
          "type": "address"
        },
        {
          "internalType": "address",
          "name": "asset",
          "type": "address"
        },
        {
          "internalType": "uint256",
          "name": "amount",
          "type": "uint256"
        }
      ],
      "name": "supplyTo",
      "outputs": [],
      "stateMutability": "nonpayable",
      "type": "function"
    },
    {
      "inputs": [],
      "name": "targetReserves",
      "outputs": [
        {
          "internalType": "uint256",
          "name": "",
          "type": "uint256"
        }
      ],
      "stateMutability": "view",
      "type": "function"
    },
    {
      "inputs": [],
      "name": "totalBorrow",
      "outputs": [
        {
          "internalType": "uint256",
          "name": "",
          "type": "uint256"
        }
      ],
      "stateMutability": "view",
      "type": "function"
    },
    {
      "inputs": [],
      "name": "totalSupply",
      "outputs": [
        {
          "internalType": "uint256",
          "name": "",
          "type": "uint256"
        }
      ],
      "stateMutability": "view",
      "type": "function"
    },
    {
      "inputs": [
        {
          "internalType": "address",
          "name": "",
          "type": "address"
        }
      ],
      "name": "totalsCollateral",
      "outputs": [
        {
          "internalType": "uint128",
          "name": "totalSupplyAsset",
          "type": "uint128"
        },
        {
          "internalType": "uint128",
          "name": "_reserved",
          "type": "uint128"
        }
      ],
      "stateMutability": "view",
      "type": "function"
    },
    {
      "inputs": [],
      "name": "trackingIndexScale",
      "outputs": [
        {
          "internalType": "uint256",
          "name": "",
          "type": "uint256"
        }
      ],
      "stateMutability": "view",
      "type": "function"
    },
    {
      "inputs": [
        {
          "internalType": "address",
          "name": "dst",
          "type": "address"
        },
        {
          "internalType": "uint256",
          "name": "amount",
          "type": "uint256"
        }
      ],
      "name": "transfer",
      "outputs": [
        {
          "internalType": "bool",
          "name": "",
          "type": "bool"
        }
      ],
      "stateMutability": "nonpayable",
      "type": "function"
    },
    {
      "inputs": [
        {
          "internalType": "address",
          "name": "dst",
          "type": "address"
        },
        {
          "internalType": "address",
          "name": "asset",
          "type": "address"
        },
        {
          "internalType": "uint256",
          "name": "amount",
          "type": "uint256"
        }
      ],
      "name": "transferAsset",
      "outputs": [],
      "stateMutability": "nonpayable",
      "type": "function"
    },
    {
      "inputs": [
        {
          "internalType": "address",
          "name": "src",
          "type": "address"
        },
        {
          "internalType": "address",
          "name": "dst",
          "type": "address"
        },
        {
          "internalType": "address",
          "name": "asset",
          "type": "address"
        },
        {
          "internalType": "uint256",
          "name": "amount",
          "type": "uint256"
        }
      ],
      "name": "transferAssetFrom",
      "outputs": [],
      "stateMutability": "nonpayable",
      "type": "function"
    },
    {
      "inputs": [
        {
          "internalType": "address",
          "name": "src",
          "type": "address"
        },
        {
          "internalType": "address",
          "name": "dst",
          "type": "address"
        },
        {
          "internalType": "uint256",
          "name": "amount",
          "type": "uint256"
        }
      ],
      "name": "transferFrom",
      "outputs": [
        {
          "internalType": "bool",
          "name": "",
          "type": "bool"
        }
      ],
      "stateMutability": "nonpayable",
      "type": "function"
    },
    {
      "inputs": [
        {
          "internalType": "address",
          "name": "account",
          "type": "address"
        },
        {
          "internalType": "address",
          "name": "asset",
          "type": "address"
        },
        {
          "internalType": "uint128",
          "name": "initialUserBalance",
          "type": "uint128"
        },
        {
          "internalType": "uint128",
          "name": "finalUserBalance",
          "type": "uint128"
        }
      ],
      "name": "updateAssetsInExternal",
      "outputs": [],
      "stateMutability": "nonpayable",
      "type": "function"
    },
    {
      "inputs": [
        {
          "internalType": "address",
          "name": "",
          "type": "address"
        }
      ],
      "name": "userBasic",
      "outputs": [
        {
          "internalType": "int104",
          "name": "principal",
          "type": "int104"
        },
        {
          "internalType": "uint64",
          "name": "baseTrackingIndex",
          "type": "uint64"
        },
        {
          "internalType": "uint64",
          "name": "baseTrackingAccrued",
          "type": "uint64"
        },
        {
          "internalType": "uint16",
          "name": "assetsIn",
          "type": "uint16"
        },
        {
          "internalType": "uint8",
          "name": "_reserved",
          "type": "uint8"
        }
      ],
      "stateMutability": "view",
      "type": "function"
    },
    {
      "inputs": [
        {
          "internalType": "address",
          "name": "",
          "type": "address"
        },
        {
          "internalType": "address",
          "name": "",
          "type": "address"
        }
      ],
      "name": "userCollateral",
      "outputs": [
        {
          "internalType": "uint128",
          "name": "balance",
          "type": "uint128"
        },
        {
          "internalType": "uint128",
          "name": "_reserved",
          "type": "uint128"
        }
      ],
      "stateMutability": "view",
      "type": "function"
    },
    {
      "inputs": [
        {
          "internalType": "address",
          "name": "",
          "type": "address"
        }
      ],
      "name": "userNonce",
      "outputs": [
        {
          "internalType": "uint256",
          "name": "",
          "type": "uint256"
        }
      ],
      "stateMutability": "view",
      "type": "function"
    },
    {
      "inputs": [
        {
          "internalType": "address",
          "name": "asset",
          "type": "address"
        },
        {
          "internalType": "uint256",
          "name": "amount",
          "type": "uint256"
        }
      ],
      "name": "withdraw",
      "outputs": [],
      "stateMutability": "nonpayable",
      "type": "function"
    },
    {
      "inputs": [
        {
          "internalType": "address",
          "name": "src",
          "type": "address"
        },
        {
          "internalType": "address",
          "name": "to",
          "type": "address"
        },
        {
          "internalType": "address",
          "name": "asset",
          "type": "address"
        },
        {
          "internalType": "uint256",
          "name": "amount",
          "type": "uint256"
        }
      ],
      "name": "withdrawFrom",
      "outputs": [],
      "stateMutability": "nonpayable",
      "type": "function"
    },
    {
      "inputs": [
        {
          "internalType": "address",
          "name": "to",
          "type": "address"
        },
        {
          "internalType": "uint256",
          "name": "amount",
          "type": "uint256"
        }
      ],
      "name": "withdrawReserves",
      "outputs": [],
      "stateMutability": "nonpayable",
      "type": "function"
    },
    {
      "inputs": [
        {
          "internalType": "address",
          "name": "to",
          "type": "address"
        },
        {
          "internalType": "address",
          "name": "asset",
          "type": "address"
        },
        {
          "internalType": "uint256",
          "name": "amount",
          "type": "uint256"
        }
      ],
      "name": "withdrawTo",
      "outputs": [],
      "stateMutability": "nonpayable",
      "type": "function"
    }
  ],
  "bytecode": "0x6107406040523462000389576200001f620000196200056a565b620007e3565b6040516150359081620010a482396080518181816106ba01528181610f2e015281816116b70152611b90015260a051818181610a5e0152611034015260c051818181610a16015281816116380152818161199f01528181611bf901528181611caa01528181612ec7015281816136540152818161373701528181613cb30152818161410801526141e9015260e051818181611dbc01528181612ff40152818161467f0152614a110152610100518181816110740152614b4f0152610120518181816115ee0152612a8001526101405181818161111201528181612abc0152612b260152610160518181816113250152612b5601526101805181818161149e0152612ae301526101a0518181816114260152612b9001526101c051818181610bed01528181612bcc0152612c3601526101e051818181610afb0152612c660152610200518181816112a10152612bf30152610220518181816109ae01526149d5015261024051818181610ea70152818161301a015281816132bb0152818161489f0152614a49015261026051818181611678015261354401526102805181818161076e015261297201526102a0518181816114da015261291401526102c05181818161146201526128a701526102e051818181610c6701528181613f0a0152614288015261030051818181610ce20152611d6c01526103205181610ca5015261034051818181610815015281816115b1015281816120b4015281816126ce01528181613051015281816131a901526146af0152610360518161356b0152610380518161210401526103a051816120e301526103c0518161226501526103e05181612244015261040051816122b50152610420518161229401526104405181612305015261046051816122e40152610480518161235501526104a0518161233401526104c051816123a501526104e05181612384015261050051816123f5015261052051816123d401526105405181612445015261056051816124240152610580518161249501526105a0518161247401526105c051816124e501526105e051816124c401526106005181612535015261062051816125140152610640518161258501526106605181612564015261068051816125d501526106a051816125b401526106c0518161262501526106e0518161260401526107005181612673015261072051816126520152f35b600080fd5b50634e487b7160e01b600052604160045260246000fd5b601f909101601f19168101906001600160401b03821190821017620003c957604052565b620003d36200038e565b604052565b90620003e86040519283620003a5565b565b51906001600160a01b03821682036200038957565b6001600160401b031690565b51906001600160401b03821682036200038957565b51906001600160681b03821682036200038957565b519060ff821682036200038957565b81601f8201121562000389578051906001600160401b0382116200055a575b60408051936020916200047c838660051b0187620003a5565b848652828601918360e08097028601019481861162000389578401925b858410620004ab575050505050505090565b86848303126200038957825190620004c48883620003a5565b620004cf85620003ea565b8252620004de868601620003ea565b86830152620004ef84860162000435565b848301526060620005028187016200040b565b908301526080620005158187016200040b565b9083015260a0620005288187016200040b565b9083015260c085810151929091906001600160801b038416840362000389578993889382015281520193019262000499565b620005646200038e565b62000463565b620060d98038038060405192620005828285620003a5565b8339810190602081830312620003895780516001600160401b03918282116200038957016102a080828503126200038957620005be90620003d8565b92620005ca82620003ea565b8452620005da60208301620003ea565b6020850152620005ed60408301620003ea565b60408501526200060060608301620003ea565b60608501526200061360808301620003ea565b60808501526200062660a083016200040b565b60a08501526200063960c083016200040b565b60c08501526200064c60e083016200040b565b60e0850152610100620006618184016200040b565b90850152610120620006758184016200040b565b90850152610140620006898184016200040b565b908501526101606200069d8184016200040b565b90850152610180620006b18184016200040b565b908501526101a0620006c58184016200040b565b908501526101c0620006d98184016200040b565b908501526101e0620006ed8184016200040b565b90850152610200620007018184016200040b565b908501526102206200071581840162000420565b908501526102406200072981840162000420565b908501526102606200073d81840162000420565b90850152610280928383015190811162000389576200075d920162000444565b9082015290565b9081602091031262000389576200077b9062000435565b90565b506040513d6000823e3d90fd5b50634e487b7160e01b600052601260045260246000fd5b8115620007ad570490565b620007b76200078b565b0490565b6001600160401b0391821691908215620007d457160490565b620007de6200078b565b160490565b6040818101805190929190620008109062000804906001600160a01b031681565b6001600160a01b031690565b90805180938163313ce56760e01b94858252602091829160049889915afa92831562000d7c575b60009362000d58575b5060ff8316926012841162000d48576101a0908184019460018060401b0391670de0b6b3a764000083620008758951620003ff565b161162000d3857610280948587019b600f8d51511162000d28576102208881018051909c919391906001600160681b03161562000d185790600860ff8f9493838f9160608f0197620008d562000804620008048b5160018060a01b031690565b93518094819382525afa90811562000d08575b60009162000cd4575b50160362000cc45789516001600160a01b03908116608052908a0151811660a0529051811660c05290511660e05260808701516200094b9062000945906001600160a01b0316996101009a8b5251620003ff565b620003ff565b905261032052600a0a1694610240968688526101c096620009736200094589880151620003ff565b92610260938452620f424080921062000cb557508851906200099591620007a2565b61036052516001600160681b03166001600160681b03166102c0526101e09283850151620009c390620003ff565b620009ce90620003ff565b90526102009687850151620009e390620003ff565b620009ee90620003ff565b6102a0528401516001600160681b039081166102e05290840151166103005260a083015162000a1d90620003ff565b62000a2890620003ff565b936101209485526301e13380958680938160c088015162000a4990620003ff565b9062000a5591620007bb565b62000a6090620003ff565b90610140918252828060e08a015162000a7990620003ff565b9062000a8591620007bb565b62000a9090620003ff565b9561016096875289015162000aa590620003ff565b9062000ab191620007bb565b62000abc90620003ff565b98610180998a5288015162000ad190620003ff565b62000adc90620003ff565b905286015162000aec90620003ff565b9062000af891620007bb565b62000b0390620003ff565b905283015162000b1390620003ff565b9062000b1f91620007bb565b62000b2a90620003ff565b9052015162000b3990620003ff565b9062000b4591620007bb565b62000b5090620003ff565b905281515160ff16610340528151600062000b6b9162000dc8565b6103a052610380528151600162000b829162000dc8565b6103e0526103c0528151600262000b999162000dc8565b61042052610400528151600362000bb09162000dc8565b610460526104405281519062000bc69162000dc8565b6104a052610480528051600562000bdd9162000dc8565b6104e0526104c0528051600662000bf49162000dc8565b61052052610500528051600762000c0b9162000dc8565b61056052610540528051600862000c229162000dc8565b6105a052610580528051600962000c399162000dc8565b6105e0526105c0528051600a62000c509162000dc8565b61062052610600528051600b62000c679162000dc8565b61066052610640528051600c62000c7e9162000dc8565b6106a052610680528051600d62000c959162000dc8565b6106e0526106c05251600e62000cab9162000dc8565b6107205261070052565b51630456c65960e51b81528a90fd5b8b51630456c65960e51b81528e90fd5b62000cf99150843d861162000d00575b62000cf08183620003a5565b81019062000764565b38620008f1565b503d62000ce4565b62000d126200077e565b620008e8565b8b51636e77247560e01b81528e90fd5b895163df8153c760e01b81528c90fd5b87516324dc918f60e11b81528a90fd5b8451630456c65960e51b81528790fd5b8162000d749294503d851162000d005762000cf08183620003a5565b913862000840565b62000d866200077e565b62000837565b6040519062000d9d60e083620003a5565b8160c06000918281528260208201528260408201528260608201528260808201528260a08201520152565b62000dd262000d8c565b508051821015620010995760059190911b016020015180516001600160a01b0316602082810151909391906001600160a01b031660409362000e178582015160ff1690565b926001600160a01b039081169283156200108b57169185519663313ce56760e01b90818952600860ff60049a83818d818b5afa9081156200107b575b60009162001059575b501603620010495760ff91885190815281818b81875afa91821562001039575b60009262001017575b505081861691829116036200100757606083019262000ea58451620003ff565b93608082019462000ebb620009458751620003ff565b6001600160401b03918216101562000ff757670de0b6b3a7640000809162000ee48851620003ff565b161162000fe75762000f3062000f3f62000f3062000f2a999a9b9c9d9462000f2a62000f3762000f3062000f1f61271062000f4f99620007bb565b809e819551620003ff565b620007bb565b61ffff1690565b9a51620003ff565b9762000f2a60a0860151620003ff565b9961ffff808816908716101562000fda57505060c0015162000f86916200094591600a9190910a906001600160801b0316620007a2565b60a092831b61ffff60a01b169190911760b09390931b61ffff60b01b169290921760c09690961b61ffff60c01b1695909517949290921b60ff60a01b161760a89190911b600160a81b600160e81b03161790565b5163327d763960e21b8152fd5b89516304d6b32560e41b81528b90fd5b895163327d763960e21b81528b90fd5b8651630456c65960e51b81528890fd5b620010319250803d1062000d005762000cf08183620003a5565b388062000e85565b620010436200077e565b62000e7c565b8751630456c65960e51b81528990fd5b620010749150843d861162000d005762000cf08183620003a5565b3862000e5c565b620010856200077e565b62000e53565b506000965086955050505050565b505060009060009056fe60806040526004361015610018575b610016614b42565b005b60003560e01c8063042e02cf146106085780630902f1ac146105ff5780630bc47ad1146105f65780630c340a24146105ed57806318160ddd146105e4578063189bb2f1146105db5780631aad7e2e146105d25780631c9f7fb9146105c95780631f5954bd146105c057806323b872dd146105b757806324a3d622146105ae57806326441318146105a55780632a48cf121461059c5780632b92a07d146105935780632d05670b1461058a5780632e04b8e714610581578063300e6beb14610578578063313ce5671461056f57806332176c4914610566578063374c49b41461055d57806338aa813f146105545780633b3bec2e1461054b57806341976e09146105425780634232cd6314610539578063439e2e451461053057806344c1e5eb1461052757806344c35d071461051e57806344ff241d1461051557806359e017bd1461050c5780635a94b8d1146105035780635df654d2146104fa57806367800b5f146104f157806370a08231146104e85780637914acc7146104df5780637ac88ed1146104d65780637eb71131146104cd578063804de71f146104c45780638285ef40146104bb5780638596da23146104b25780638d5d814c146104a957806390323177146104a05780639241a561146104975780639364e18a1461048e57806394920cca146104855780639ea99a5a1461047c5780639fa83b5a14610473578063a16543791461046a578063a1a1ef4314610461578063a46fe83b14610458578063a5b4ff791461044f578063a9059cbb14610446578063aba7f15e1461043d578063ad14777c14610434578063b3650a9d1461042b578063b9775b0314610422578063bbe4fd5014610419578063bfe69c8d14610410578063c1ee2c1814610407578063c3b35a7e146103fe578063c3cecfd2146103f5578063c55dae63146103ec578063c5fa15cf146103e3578063c8c7fe6b146103da578063cde68041146103d1578063d8e5f611146103c8578063d955759d146103bf578063dc4abafd146103b6578063e380ae96146103ad578063e478795d146103a4578063e4e6e7791461039b578063e7dad6bd14610392578063e9a6e59714610389578063f2b9fdb814610380578063f3fef3a314610377578063f8ba4cff1461036e5763fbad9c710361000e57610369611f44565b61000e565b50610369611f2a565b50610369611efd565b50610369611ed0565b50610369611e31565b50610369611da5565b50610369611c4f565b50610369611b64565b50610369611b4a565b50610369611ad7565b50610369611ab8565b50610369611a91565b50610369611a75565b50610369611a4a565b506103696119ce565b50610369611988565b50610369611923565b50610369611907565b506103696118e9565b5061036961184e565b50610369611823565b50610369611792565b50610369611749565b5061036961169b565b5061036961165f565b50610369611611565b506103696115d5565b50610369611596565b5061036961156f565b5061036961152e565b506103696114fd565b506103696114c1565b50610369611485565b50610369611449565b5061036961140d565b506103696113ef565b506103696113c8565b506103696113a9565b50610369611348565b5061036961130c565b506103696112f0565b506103696112c4565b50610369611288565b50610369611260565b50610369611239565b5061036961119e565b506103696110f9565b506103696110a3565b5061036961105d565b50610369610ed4565b50610369610e8e565b50610369610e72565b50610369610e56565b50610369610e2e565b50610369610df9565b50610369610d2d565b50610369610d05565b50610369610cc9565b50610369610c8a565b50610369610c4e565b50610369610c10565b50610369610bd4565b50610369610b83565b50610369610ae2565b50610369610ac4565b50610369610a47565b506103696109fe565b50610369610995565b5061036961090f565b506103696107d5565b50610369610755565b506103696106e9565b506103696106a3565b5061036961067d565b50610369610659565b50610369610627565b6001600160a01b0381160361062257565b600080fd5b503461062257602036600319011261062257602061064f60043561064a81610611565b61316b565b6040519015158152f35b5034610622576000366003190112610622576020610675612e72565b604051908152f35b50346106225760003660031901126106225760206001805460f81c161515604051908152f35b5034610622576000366003190112610622576040517f00000000000000000000000000000000000000000000000000000000000000006001600160a01b03168152602090f35b503461062257600036600319011261062257602066038d7ea4c6800061074c610710614e5d565b6107336001549161072d64ffffffffff91828560d01c169061278a565b166129d5565b506001600160401b0316906001600160681b0316612056565b04604051908152f35b50346106225760003660031901126106225760206040517f00000000000000000000000000000000000000000000000000000000000000008152f35b6020908160408183019282815285518094520193019160005b8281106107b8575050505090565b83516001600160a01b0316855293810193928101926001016107aa565b5034610622576020806003193601126106225761080c6108016004356107fa81610611565b6005610b46565b5460e81c61ffff1690565b9060008060ff807f000000000000000000000000000000000000000000000000000000000000000016915b8181168381101561087457600161ffff911b87161661085f575b61085a90614f49565b610837565b9261086c61085a91614f49565b939050610851565b50509291836108839116614f7b565b91600091825b858116828110156108fd57600161ffff911b8816166108b1575b6108ac90614f49565b610889565b926108f56108ac916108f06108d7866108c9896120a3565b01516001600160a01b031690565b6108e1838a614fad565b6001600160a01b039091169052565b614fcf565b9390506108a3565b6040518061090b8882610791565b0390f35b5034610622576000806003193601126109925760015464ffffffffff8160d01c166109815764ffffffffff60d01b610945614e5d565b64ffffffffff60d01b1990921660d09290921b161760015580546001600160801b0319166e038d7ea4c6800000038d7ea4c68000178155604051f35b60405162dc149f60e41b8152600490fd5b80fd5b50346106225760003660031901126106225760206040517f00000000000000000000000000000000000000000000000000000000000000008152f35b908160609103126106225780356109e781610611565b91604060208301356109f881610611565b92013590565b503461062257610a3c610a123660046109d1565b91907f00000000000000000000000000000000000000000000000000000000000000009133613c7b565b602060405160018152f35b5034610622576000366003190112610622576040517f00000000000000000000000000000000000000000000000000000000000000006001600160a01b03168152602090f35b9190826080910312610622578135610aa481610611565b916020810135610ab381610611565b91606060408301356109f881610611565b503461062257610016610ad8366004610a8d565b92919091336140d9565b50346106225760003660031901126106225760206040517f00000000000000000000000000000000000000000000000000000000000000008152f35b91908260409103126106225760208235610b3781610611565b920135610b4381610611565b90565b9060018060a01b0316600052602052604060002090565b6001600160801b031690565b6001600160801b0391821681529116602082015260400190565b50346106225761090b610bb8610b9a366004610b1e565b6001600160a01b039091166000908152600660205260409020610b46565b54604051918291608081901c906001600160801b031683610b69565b50346106225760003660031901126106225760206040517f00000000000000000000000000000000000000000000000000000000000000008152f35b503461062257602036600319011261062257600435610c2e81610611565b60018060a01b031660005260046020526020604060002054604051908152f35b50346106225760003660031901126106225760206040517f00000000000000000000000000000000000000000000000000000000000000008152f35b503461062257600036600319011261062257602060405160ff7f0000000000000000000000000000000000000000000000000000000000000000168152f35b50346106225760003660031901126106225760206040517f00000000000000000000000000000000000000000000000000000000000000008152f35b5034610622576020366003190112610622576020610675600435610d2881610611565b614afa565b503461062257602036600319011261062257602061064f600435610d5081610611565b612fad565b6001600160401b031690565b610df79092919260e08061010083019560ff815116845260018060a01b03806020830151166020860152604082015116604085015260018060401b036060820151166060850152610dc16080820151608086019060018060401b03169052565b60a0818101516001600160401b03169085015260c0818101516001600160401b03169085015201516001600160801b0316910152565b565b50346106225760203660031901126106225761090b610e22600435610e1d81610611565b6126bb565b60405191829182610d61565b5034610622576020366003190112610622576020610675600435610e5181610611565b612d48565b503461062257610016610e6a3660046109d1565b913333613622565b503461062257610016610e863660046109d1565b913333613c7b565b50346106225760003660031901126106225760206040517f00000000000000000000000000000000000000000000000000000000000000008152f35b8015150361062257565b50346106225760a036600319011261062257600435610ef281610eca565b602435610efe81610eca565b60443591610f0b83610eca565b60643592610f1884610eca565b608435610f2481610eca565b60018060a01b03807f0000000000000000000000000000000000000000000000000000000000000000163314159081611030575b5061101f577f3be39979091ae7ca962aa1c44e645f2df3c221b79f324afa5f44aedc8d2f690d9461101a92610fe5610fa26000610f9488614e4f565b9060ff8080931691161b1690565b610fb06001610f948a614e4f565b17610fbf6002610f9485614e4f565b17610fce6003610f9486614e4f565b17610fdd6004610f9487614e4f565b17600161327f565b6040519586958693909594919260809360a0860197151586521515602086015215156040850152151560608401521515910152565b0390a1005b6040516282b42960e81b8152600490fd5b90507f00000000000000000000000000000000000000000000000000000000000000001633141538610f58565b5034610622576000366003190112610622576040517f00000000000000000000000000000000000000000000000000000000000000006001600160a01b03168152602090f35b5034610622576020366003190112610622576004356110c181610611565b6001600160a01b03166000908152600260205260409081902054905190819061090b90608081901c906001600160801b031683610b69565b50346106225760003660031901126106225760206040517f00000000000000000000000000000000000000000000000000000000000000008152f35b50634e487b7160e01b600052604160045260246000fd5b601f909101601f19168101906001600160401b0382119082101761116f57604052565b611177611135565b604052565b90610df7604051928361114c565b35906001600160801b038216820361062257565b5034610622576060366003190112610622576004356111bc81610611565b6040366023190112610622576040516111d660408261114c565b6111e0602461118a565b81526111ec604461118a565b916020820192835260018060a01b0316600052600260205260406000209161121e60018060801b038093511684613a17565b51825490911660809190911b6001600160801b031916179055005b5034610622576000366003190112610622576020600460015460f81c161515604051908152f35b503461062257602036600319011261062257602061067560043561128381610611565b614a96565b50346106225760003660031901126106225760206040517f00000000000000000000000000000000000000000000000000000000000000008152f35b50346106225760403660031901126106225760206106756004356112e781610611565b60243590614977565b5034610622576000366003190112610622576020610675612cad565b50346106225760003660031901126106225760206040517f00000000000000000000000000000000000000000000000000000000000000008152f35b503461062257600036600319011261062257602066038d7ea4c6800061074c61136f614e5d565b61138c6001549161072d64ffffffffff91828560d01c169061278a565b6001600160401b03169160681c6001600160681b03169050612056565b5034610622576000366003190112610622576020600854604051908152f35b5034610622576000366003190112610622576020600860015460f81c161515604051908152f35b503461062257610016611403366004610a8d565b9291909133613622565b50346106225760003660031901126106225760206040517f00000000000000000000000000000000000000000000000000000000000000008152f35b50346106225760003660031901126106225760206040517f00000000000000000000000000000000000000000000000000000000000000008152f35b50346106225760003660031901126106225760206040517f00000000000000000000000000000000000000000000000000000000000000008152f35b50346106225760003660031901126106225760206040517f00000000000000000000000000000000000000000000000000000000000000008152f35b503461062257602036600319011261062257602061151c600435612b8e565b6040516001600160401b039091168152f35b503461062257602060ff611563611546366004610b1e565b6001600160a01b0390911660009081526003855260409020610b46565b54166040519015158152f35b5034610622576000366003190112610622576020600260015460f81c161515604051908152f35b503461062257600036600319011261062257602060405160ff7f0000000000000000000000000000000000000000000000000000000000000000168152f35b50346106225760003660031901126106225760206040517f00000000000000000000000000000000000000000000000000000000000000008152f35b503461062257604036600319011261062257610a3c60043561163281610611565b602435907f0000000000000000000000000000000000000000000000000000000000000000903333613c7b565b50346106225760003660031901126106225760206040517f00000000000000000000000000000000000000000000000000000000000000008152f35b5034610622576116ac3660046109d1565b6001600160a01b03917f00000000000000000000000000000000000000000000000000000000000000008316330361101f5761170393600060209460405180978196829563095ea7b360e01b8452600484016142c2565b0393165af1801561173c575b61171557005b6100169060203d8111611735575b61172d818361114c565b81019061392e565b503d611723565b611744612d3b565b61170f565b50346106225760403660031901126106225760043561176781610611565b60243580600c0b8103610622576100169160018060a01b031660005260056020526040600020613412565b5034610622576060366003190112610622576004356117b081610611565b602435906117bd82610611565b604435906001600160801b039081831683036106225761181d6100169460018060a01b038316938460005260066020526117fb826040600020610b46565b5416936000526006602052610e1d85611818836040600020610b46565b613a17565b90613baf565b503461062257600036600319011261062257602061183f614e5d565b64ffffffffff60405191168152f35b50346106225760203660031901126106225761001660043561186f81610611565b611877612807565b60018060a01b038116600052600560205260406000206118de6040519161189f60a08461114c565b54600c81900b83526001600160401b03606882901c8116602085015260a882901c16604084015261ffff60e882901c16606084015260f81c6080830152565b8051600c0b916134c9565b5034610622576100166118fd366004610a8d565b9291909133613c7b565b50346106225761001661191b3660046109d1565b9133336140d9565b50346106225760403660031901126106225760043561194181610611565b602435906001600160401b03908183116106225736602384011215610622578260040135918211610622573660248360051b850101116106225760246100169301906144f3565b5034610622576000366003190112610622576040517f00000000000000000000000000000000000000000000000000000000000000006001600160a01b03168152602090f35b5034610622576020366003190112610622576004356119ec81610611565b60018060a01b0316600052600760205260806040600020546040519063ffffffff8116825260018060401b038160201c166020830152600180841b038160601c16604083015260e01c6060820152f35b359060ff8216820361062257565b50346106225760203660031901126106225760043560ff8116810361062257610e2261090b916120a3565b503461062257602061064f611a8b366004610b1e565b90614b81565b5034610622576000366003190112610622576020601060015460f81c161515604051908152f35b503461062257602036600319011261062257602061151c600435612a7e565b503461062257602036600319011261062257600435611af581610611565b60018060a01b0316600052600560205260a06040600020546040519080600c0b825260018060401b03808260681c1660208401528160a81c16604083015261ffff8160e81c16606083015260f81c6080820152f35b503461062257602036600319011261062257600435600855005b503461062257604036600319011261062257600435611b8281610611565b602435906001600160a01b037f00000000000000000000000000000000000000000000000000000000000000008116330361101f57611bbf612e72565b60008112908115611c3d575b50611c2b5781611c1d847fec4431f2ba1a9382f6b0c4352b888cba6f7db91667d9f776abe5ad8ddc5401b6947f00000000000000000000000000000000000000000000000000000000000000006142dd565b6040519384521691602090a2005b60405163128bd24d60e31b8152600490fd5b611c479150614e44565b831138611bcb565b503461062257608036600319011261062257600435611c6d81610611565b60443560643591611c7d83610611565b601060015460f81c16611d9357611c92612e72565b60008112159081611d68575b50611d5657611cce82337f0000000000000000000000000000000000000000000000000000000000000000613943565b611cd88282614977565b926024358410611d445781611d1c611d3f927ff891b2a411b0e66a5f0a6ff1368670fefa287a13f541eb633a386a1a9cc7046b94611d1588614da3565b9130614365565b6040805194855260208501959095526001600160a01b0316933393918291820190565b0390a3005b60405163fa6ad35560e01b8152600490fd5b604051631d99ddbf60e01b8152600490fd5b90507f0000000000000000000000000000000000000000000000000000000000000000111538611c9e565b6040516313d0ff5960e31b8152600490fd5b5034610622576000366003190112610622576040517f00000000000000000000000000000000000000000000000000000000000000006001600160a01b03168152602090f35b35906001600160401b038216820361062257565b6001600160681b031690565b35906001600160681b038216820361062257565b359064ffffffffff8216820361062257565b503461062257610100806003193601126106225761001690611e56604051918261114c565b611e606004611deb565b8152611e6c6024611deb565b6020820152611e7b6044611deb565b6040820152611e8a6064611deb565b6060820152611e996084611e0b565b6080820152611ea860a4611e0b565b60a0820152611eb760c4611e1f565b60c0820152611ec660e4611a3c565b60e0820152614e9a565b503461062257604036600319011261062257610016600435611ef181610611565b60243590333333613622565b503461062257604036600319011261062257610016600435611f1e81610611565b602435903333336140d9565b503461062257600036600319011261062257610016612807565b503461062257608036600319011261062257600435611f6281610611565b60243590611f6f82610611565b6001600160801b03906044359082821682036106225760643592831683036106225761181d610016946126bb565b805464ffffffffff60d01b191660d09290921b64ffffffffff60d01b16919091179055565b60405190611fd26101008361114c565b8160e06000918281528260208201528260408201528260608201528260808201528260a08201528260c08201520152565b50634e487b7160e01b600052601260045260246000fd5b50634e487b7160e01b600052601160045260246000fd5b6001600160401b039182169190821561204957160490565b612051612003565b160490565b8060001904821181151516612069570290565b61207161201a565b0290565b60ff16604d8111612087575b600a0a90565b61208f61201a565b612081565b6001600160401b039091169052565b6120ab611fc2565b5060ff811660ff7f0000000000000000000000000000000000000000000000000000000000000000168110156126a9578061223957507f00000000000000000000000000000000000000000000000000000000000000007f00000000000000000000000000000000000000000000000000000000000000005b6001600160401b0380612141612710670de0b6b3a7640000612031565b1661ffff9181838560a01c169061215791612056565b61216090610d55565b916121718160b087901c8616612056565b61217a90610d55565b938560c01c169061218a91612056565b61219390610d55565b938560a01c60ff166121a490612075565b6121ad90610d55565b91808316908760a81c16906121c191612056565b6121ca90610b5d565b956121d661010061117c565b60ff9890981688526001600160a01b0391821660208901521660408701526122019060608701612094565b61220e9060808601612094565b61221b9060a08501612094565b6122289060c08401612094565b6001600160801b031660e082015290565b6001810361228957507f00000000000000000000000000000000000000000000000000000000000000007f0000000000000000000000000000000000000000000000000000000000000000612124565b600281036122d957507f00000000000000000000000000000000000000000000000000000000000000007f0000000000000000000000000000000000000000000000000000000000000000612124565b6003810361232957507f00000000000000000000000000000000000000000000000000000000000000007f0000000000000000000000000000000000000000000000000000000000000000612124565b6004810361237957507f00000000000000000000000000000000000000000000000000000000000000007f0000000000000000000000000000000000000000000000000000000000000000612124565b600581036123c957507f00000000000000000000000000000000000000000000000000000000000000007f0000000000000000000000000000000000000000000000000000000000000000612124565b6006810361241957507f00000000000000000000000000000000000000000000000000000000000000007f0000000000000000000000000000000000000000000000000000000000000000612124565b6007810361246957507f00000000000000000000000000000000000000000000000000000000000000007f0000000000000000000000000000000000000000000000000000000000000000612124565b600881036124b957507f00000000000000000000000000000000000000000000000000000000000000007f0000000000000000000000000000000000000000000000000000000000000000612124565b6009810361250957507f00000000000000000000000000000000000000000000000000000000000000007f0000000000000000000000000000000000000000000000000000000000000000612124565b600a810361255957507f00000000000000000000000000000000000000000000000000000000000000007f0000000000000000000000000000000000000000000000000000000000000000612124565b600b81036125a957507f00000000000000000000000000000000000000000000000000000000000000007f0000000000000000000000000000000000000000000000000000000000000000612124565b600c81036125f957507f00000000000000000000000000000000000000000000000000000000000000007f0000000000000000000000000000000000000000000000000000000000000000612124565b600d810361264957507f00000000000000000000000000000000000000000000000000000000000000007f0000000000000000000000000000000000000000000000000000000000000000612124565b600e03612697577f00000000000000000000000000000000000000000000000000000000000000007f0000000000000000000000000000000000000000000000000000000000000000612124565b60405163971241a160e01b8152600490fd5b604051633640530560e01b8152600490fd5b906126c4611fc2565b5060009060ff92837f000000000000000000000000000000000000000000000000000000000000000016925b838582161061270b57604051633640530560e01b8152600490fd5b612714816120a3565b60208101516001600160a01b03848116911614612736575060010184166126f0565b93505050915090565b9060405161274e60a08261114c565b608081935480600c0b835260018060401b03808260681c1660208501528160a81c16604084015261ffff8160e81c16606084015260f81c910152565b64ffffffffff91821691168181106127a0570390565b6127a861201a565b0390565b6001600160401b03918216919081169082900381116127c9570190565b6127d161201a565b0190565b60681c6001600160681b031690565b80546001600160c01b031660c09290921b6001600160c01b031916919091179055565b61280f614e5d565b61283961282f61282960015464ffffffffff9060d01c1690565b8361278a565b64ffffffffff1690565b9081612843575050565b8161289a612853610df7946129d5565b60008054600160401b600160801b03191660409290921b600160401b600160801b0316919091178155919082546001600160401b0319166001600160401b03909116178255565b6128a5600154611dff565b7f000000000000000000000000000000000000000000000000000000000000000092906001600160681b03168381101561295f575b506128ee6128e96001546127d5565b611dff565b92831015612901575b5050506001611f9d565b61294261293d61295794612938612951947f0000000000000000000000000000000000000000000000000000000000000000612056565b6132b5565b614d57565b825460c01c6127ac565b6127ac565b906127e4565b3880806128f7565b6129a961299661293d6129cf93612938867f0000000000000000000000000000000000000000000000000000000000000000612056565b845460801c6001600160401b03166127ac565b8354600160801b600160c01b03191660809190911b600160801b600160c01b0316178355565b386128da565b6000546001600160401b03604082901c811693929181169190816129fa575b50509190565b81612a4d612a47612a279794612a59612a5f97612a5387612a2e612a5399612a20612cad565b9e8f612a7e565b169d612b8e565b169b612a4d612a47670de0b6b3a7640000998a93612056565b84612056565b04614d57565b906127ac565b98612056565b9138806129f4565b811981116127c9570190565b8181106127a0570390565b7f0000000000000000000000000000000000000000000000000000000000000000808211612b07575061293d670de0b6b3a7640000612ae0610b43937f0000000000000000000000000000000000000000000000000000000000000000612056565b047f0000000000000000000000000000000000000000000000000000000000000000612a67565b610b439161293d91612b7a670de0b6b3a764000091612b4a83612ae0837f0000000000000000000000000000000000000000000000000000000000000000612056565b93818110612b81575b037f0000000000000000000000000000000000000000000000000000000000000000612056565b0490612a67565b612b8961201a565b612b53565b7f0000000000000000000000000000000000000000000000000000000000000000808211612c17575061293d670de0b6b3a7640000612bf0610b43937f0000000000000000000000000000000000000000000000000000000000000000612056565b047f0000000000000000000000000000000000000000000000000000000000000000612a67565b610b439161293d91612b7a670de0b6b3a764000091612c5a83612bf0837f0000000000000000000000000000000000000000000000000000000000000000612056565b93818110612c8a575b037f0000000000000000000000000000000000000000000000000000000000000000612056565b612c9261201a565b612c63565b8115612ca1570490565b612ca9612003565b0490565b60005460015466038d7ea4c6800090612cef906001600160681b036001600160401b0384612cdf828816848616612056565b049560401c169160681c16612056565b0481612cfc575050600090565b670de0b6b3a7640000908060001904821181151516612d1a57020490565b612d2261201a565b020490565b51906001600160501b038216820361062257565b506040513d6000823e3d90fd5b604051633fabe5a360e21b81529060a090829060049082906001600160a01b03165afa908115612de6575b600091612d9a575b506000811315612d885790565b60405163fd1ee34960e01b8152600490fd5b9060a0823d8211612dde575b81612db360a0938361114c565b810103126109925750612dc581612d27565b50612dd7608060208301519201612d27565b5038612d7b565b3d9150612da6565b612dee612d3b565b612d73565b90816020910312610622575190565b600082128015600160ff1b8401831216612e2c575b6001600160ff1b0383018213166127a0570390565b612e3461201a565b612e17565b6000811280156001600160ff1b03839003841316612e65575b600160ff1b8290038312166127c9570190565b612e6d61201a565b612e52565b610b43612e7d614e5d565b612ea0612e9b61282f6001549364ffffffffff8560d01c169061278a565b6129d5565b6040516370a0823160e01b8152306004820152929091906020846024816001600160a01b037f0000000000000000000000000000000000000000000000000000000000000000165afa938415612fa0575b600094612f58575b5091612f4c612f46612f4693612f3f612f529666038d7ea4c680009260018060401b0384612f328260018060681b039416848616612056565b0497169160681c16612056565b0495614df8565b91614df8565b90612e02565b90612e39565b612f5293919450612f46612f4693612f3f612f8c612f4c9460203d8111612f99575b612f84818361114c565b810190612df3565b9794965050935050612ef9565b503d612f7a565b612fa8612d3b565b612ef1565b90612fc3612fbc836005610b46565b54600c0b90565b906000928383600c0b121561316257613048612fef612fe9610801846005979697610b46565b93614bbe565b6130187f0000000000000000000000000000000000000000000000000000000000000000612d48565b7f00000000000000000000000000000000000000000000000000000000000000006001600160401b031691613300565b90849360ff95867f000000000000000000000000000000000000000000000000000000000000000016955b87811690878210156131545790889161ffff600180931b891616613099575b0116613073565b959091508281121561314857906131428992612f5261313d88613137613132608061312a6130f98f6130d86130d06130ec926120a3565b976006610b46565b60208801516001600160a01b031690610b46565b546001600160801b031690565b6040860151613110906001600160a01b0316612d48565b61311d6060880151610d55565b91600180861b03166132e0565b930151610d55565b610d55565b906132a2565b614df8565b95613092565b50955050945050505090565b505094509450509050121590565b50915050600190565b9061317a612fbc836005610b46565b906000928383600c0b121561327a576131a0612fef612fe9610801846005979697610b46565b90849360ff95867f000000000000000000000000000000000000000000000000000000000000000016955b878116908782101561326d5790889161ffff600180931b8916166131f1575b01166131cb565b9590915082811215613261579061325b8992612f5261313d8861313761313260a061312a6132288f6130d86130d06130ec926120a3565b604086015161323f906001600160a01b0316612d48565b61324c6060880151610d55565b916001600160801b03166132e0565b956131ea565b50509450945050505090565b5050945094505090501290565b509050565b80546001600160f81b031660f89290921b6001600160f81b031916919091179055565b670de0b6b3a764000091612ca991612056565b612c97907f000000000000000000000000000000000000000000000000000000000000000090612056565b906132ea91612056565b6001600160401b03909116908115612ca1570490565b919061330b90614df8565b6000808413939082136001600160ff1b038582168482048411166133c7575b600160ff1b956000851291859183168589058312166133ba575b600085129384168289058612166133ad575b0583129116166133a0575b6001600160401b03909216929102908215613393575b8114600019831416613387570590565b61338f61201a565b0590565b61339b612003565b613377565b6133a861201a565b613361565b6133b561201a565b613356565b6133c261201a565b613344565b6133cf61201a565b61332a565b6001600160401b0391821691168181106127a0570390565b600c0b6001600160671b03198114613405575b60000390565b61340d61201a565b6133ff565b80546001600160681b0319166001600160681b0392909216919091179055565b805461ffff60e81b191660e89290921b61ffff60e81b16919091179055565b60ff6080610df7936134678151600c0b85613412565b602081015184546040830151600160681b600160e81b031990911660689290921b600160681b600160a81b03169190911760a89190911b600160a81b600160e81b031617845560608101516134c09061ffff1685613432565b0151169061327f565b6135cb90610df7936134dc8451600c0b90565b600c82900b855260009182918683600c83900b81136135e2576135696135426135a8946135336131326135909661352d602061352561293d995460018060401b039060801c1690565b920151610d55565b906133d4565b906001600160681b0316612056565b7f000000000000000000000000000000000000000000000000000000000000000090612c97565b7f000000000000000000000000000000000000000000000000000000000000000090612c97565b6135a2604089019161294c8351610d55565b90612094565b600c0b126135d057546107fa9060801c6001600160401b03165b60208501612094565b613451565b546135dd9060c01c6135c2565b6107fa565b61356961354261361d946136186128e9611dff6136126131326135909961352d602061352561293d9c5460c01c90565b936133ec565b612056565b6135a8565b939290936001805460f81c16611d935761363f6136439186614b81565b1590565b61101f576001600160a01b038181167f00000000000000000000000000000000000000000000000000000000000000009091160361369a5750610df792600019830361372b57915061369481614afa565b9161372b565b906136a8610df79493614da3565b92613a7d565b6001600160681b03918216919081169082900381116127c9570190565b80546001600160681b0319166001600160681b03909216919091179055565b6001600160681b0391821691168181106127a0570390565b8054600160681b600160d01b03191660689290921b600160681b600160d01b0316919091179055565b6137d9919261375b81837f0000000000000000000000000000000000000000000000000000000000000000613943565b613763612807565b6137e6613779613774866005610b46565b61273f565b8051600c0b906137e06137a96137a261379d61379486614bbe565b612f5289614df8565b614c58565b80946138b2565b97906137c96137c28a6137bd600154611dff565b6136ae565b60016136cb565b6137d46001546127d5565b6136ea565b6001613702565b866134c9565b6040519081526001600160a01b0393841693849216907fd1cf3d156d5f8f0d50f6c122ed609cec09d35c9b9fb3fff6ea0959134dae424e90602090a36001600160681b038116613834575050565b600080516020614fe083398151915261386b61385b6000936138568554610d55565b614c33565b6040519081529081906020820190565b0390a3565b600c91820b910b6000821280156001600160671b031984018312166138a5575b6001600160671b0383018213166127a0570390565b6138ad61201a565b613890565b91909180600c0b83600c0b818112613921576000126138e557506138d69192613870565b6001600160681b031690600090565b600013613908576138f69192613870565b6000916001600160681b039190911690565b613911906133ec565b6001600160681b03908116921690565b5050509050600090600090565b908160209103126106225751610b4381610eca565b6040516323b872dd60e01b81526001600160a01b039283166004820152306024820152604481019390935260209183916064918391600091165af19081156139c6575b6000916139a8575b501561399657565b60405163073d1efd60e51b8152600490fd5b6139c0915060203d81116117355761172d818361114c565b3861398e565b6139ce612d3b565b613986565b906040516139e260408261114c565b91546001600160801b038116835260801c6020830152565b6001600160801b03918216919081169082900381116127c9570190565b80546001600160801b0319166001600160801b03909216919091179055565b90602060018060801b0391613a4e8382511685613a17565b0151825490911660809190911b6001600160801b031916179055565b6001600160801b03909116815260200190565b909290916001600160801b0390613a978284168583613943565b613aa0816126bb565b90613ab4613aaf826002610b46565b6139d3565b92613ad8613acb86613ac68751610b5d565b6139fa565b6001600160801b03168552565b613ae28451610b5d565b90613af8613af360e0860151610b5d565b610b5d565b911611613b9d57613b78613b6b85613b9894613b727ffa56f7b24f17183d81894d3ac2ee654e3c26388d17a28dbd9549b8114304e1f49761181887613b4c8e613b58613b516130ec85613b4c856006610b46565b610b46565b98896139fa565b988995613b66856002610b46565b613a36565b6006610b46565b89613baf565b6040516001600160a01b0391821696821695909116939091829182613a6a565b0390a4565b604051637ac7b99d60e11b8152600490fd5b909290916001600160801b03908116158080613c70575b15613c1157505050613bf9613bf1613be2610df7945160ff1690565b600160ff9091161b61ffff1690565b916005610b46565b90613c0a825461ffff9060e81c1690565b1790613432565b159182613c65575b5050613c23575050565b60ff610df792600161ffff92839251161b16199160018060a01b03166000526005602052604060002091613c5d835461ffff9060e81c1690565b161690613432565b161590503880613c19565b508183161515613bc6565b93929093600260015460f81c16611d935761363f613c999186614b81565b61101f576001600160a01b0384811683821614613d1157807f00000000000000000000000000000000000000000000000000000000000000001690821614600014613cfd5750610df7926000198303613d34579150613cf782614a96565b91613d34565b90613d0b610df79493614da3565b92613fcd565b60405163e397a99b60e01b8152600490fd5b600160ff1b81146134055760000390565b919091613d3f612807565b613d4a816005610b46565b613d539061273f565b613d5e846005610b46565b613d679061273f565b928151613d7490600c0b90565b938051613d8190600c0b90565b92613d8b86614bbe565b613d9484614df8565b613d9d91612e02565b92613da785614bbe565b90613db190614df8565b613dba91612e39565b90613dc484614c58565b613dce8193614c58565b978893613dda91613f68565b98613de591976138b2565b98878a600154613df490611dff565b90613dfe916136ae565b90613e08916136ea565b613e139060016136cb565b600154613e1f906127d5565b90613e29916136ae565b90613e33916136ea565b613e3e906001613702565b613e4891876134c9565b613e5291876134c9565b60008112613eff575b506001600160681b0391818316613eb7575b50508116613e79575050565b600080516020614fe083398151915261386b613e9b6000936138568554610d55565b6040519081526001600160a01b03909416939081906020820190565b600080516020614fe0833981519152613ef5613ed96000946138568654610d55565b6040519081526001600160a01b03909316929081906020820190565b0390a33880613e6d565b613f0890613d23565b7f000000000000000000000000000000000000000000000000000000000000000011613f5657613f3a61363f83612fad565b613f445738613e5b565b604051630a62fbdb60e11b8152600490fd5b604051637139da2360e11b8152600490fd5b919082600c0b81600c0b81811361392157600013613f8b57506138d69192613870565b600012613f9c576138f69192613870565b613fa5906133ec565b6001600160681b03928316921690565b6001600160801b0391821691168181106127a0570390565b6001600160a01b0380821660008181526006602052604090206001600160801b03959194919391908690614002908690610b46565b5416838216968760005260066020528560406000209061402191610b46565b541661402d8983613fb5565b6140378a836139fa565b928188614045886006610b46565b9061404f91610b46565b9061405991613a17565b8388614066876006610b46565b9061407091610b46565b9061407a91613a17565b614083886126bb565b9161408f918388613baf565b61409893613baf565b6140a190612fad565b15613f44577f29db89d45e1a802b4d55e202984fce9faf1d30aedf86503ff1ea0ed9ebb6420191613b98604051928392169682613a6a565b93929093600460015460f81c16611d935761363f6140f79186614b81565b61101f576001600160a01b038181167f00000000000000000000000000000000000000000000000000000000000000009091160361414e5750610df792600019830361416257915061414882614a96565b91614162565b9061415c610df79493614da3565b92614365565b90916137d992614170612807565b61417e613774846005610b46565b6141d861418c8251600c0b90565b6141a161419882614bbe565b612f4c87614df8565b926137e06141b86141b186614c58565b8094613f68565b6141cd6137c2836137d460019e959e54611dff565b6137bd6001546127d5565b6000811261427d575b5061420d82827f00000000000000000000000000000000000000000000000000000000000000006142dd565b6040519182526001600160a01b0392831692169082907f9b1bfa7fa9ee420a16e124f794c35ac9f90472acc99140eb2f6447c714cad8eb90602090a36001600160681b03821661425b575050565b600080516020614fe083398151915261386b61385b6000946138568654610d55565b61428690613d23565b7f000000000000000000000000000000000000000000000000000000000000000011613f56576142b861363f84612fad565b613f4457386141e1565b6001600160a01b039091168152602081019190915260400190565b9161430392602092600060405180968195829463a9059cbb60e01b8452600484016142c2565b03926001600160a01b03165af1908115614358575b60009161433a575b501561432857565b60405163cefaffeb60e01b8152600490fd5b614352915060203d81116117355761172d818361114c565b38614320565b614360612d3b565b614318565b6001600160a01b038082166000818152600660205260408120909695919491936001600160801b0391829061439b908790610b46565b54166143a78882613fb5565b80878781169b8c81526002602052604081208c88825416906143c891613fb5565b6143d191613a17565b8a8152600660205260409020906143e791610b46565b906143f191613a17565b6143fa876126bb565b916144059284613baf565b61440e90612fad565b15613f44577fd6d480d5b3068db003533b170d67561494d72e3bf9fa40a266471351ebba9e169382614442928816916142dd565b613b98604051928392169582613a6a565b50634e487b7160e01b600052603260045260246000fd5b919081101561447b575b60051b0190565b614483614453565b614474565b35610b4381610611565b906040516144a160808261114c565b915463ffffffff81168352602081811c6001600160401b031690840152606081811c6001600160801b0316604085015260e09190911c90830152565b60019063ffffffff8091169081146127c9570190565b9291909260016008815460f81c16611d93575a9461450f612807565b60005b84811061460e575050506145b9906145b261459361458e614538610df797985a90612a73565b61458761457561455161454c886007610b46565b614492565b9861293d61456b6145668c5163ffffffff1690565b6144dd565b63ffffffff168b52565b6135a260208a019161294c8351610d55565b4890612056565b614da3565b6145a56040860191613ac68351610b5d565b6001600160801b03169052565b6007610b46565b815160208084015160408501516060958601516001600160e01b031960e09190911b16600160601b600160e01b039190961b1663ffffffff909316600160201b600160601b039190921b161717919091179055565b8061462c6146266146218694898761446a565b614488565b86614632565b01614512565b9161463f61363f8361316b565b6149655790614652613774826005610b46565b9061465e8251600c0b90565b9361466885614bbe565b9360609061467a8286015161ffff1690565b6146a37f0000000000000000000000000000000000000000000000000000000000000000612d48565b91600092839860ff9a8b7f0000000000000000000000000000000000000000000000000000000000000000169a5b8c8116908c82101561484f57908d91898c8c61ffff600180961b8c16166146fd575b50505001166146d1565b90919a614709846120a3565b60208101519091906001600160a01b031660069181806147298886610b46565b9061473391610b46565b546001600160801b031693816147498983610b46565b9061475391610b46565b600061475e91613a17565b3061476891610b46565b9061477291610b46565b83815461477e90610b5d565b90614788916139fa565b61479191613a17565b604084810151909f906001600160a01b03166147ac90612d48565b908501516147b990610d55565b6147cc916001600160801b0386166132e0565b9360c001516147da90610d55565b6147e390610d55565b6147ed90856132a2565b6147f691612a67565b9d516001600160801b0392909216825260208201929092526001600160a01b0391821693821692909116907f9850ab1af75177e4a9201c65a2cf7976d5d28e40ef63494b44366f86b2f9412e90604090a4898c8c6146f3565b5050909198614927939b507f1547a878dc89ad3c367b6338b4be6a65a5dd74fb77ae044da1e8747ef1f4f62f98979a50614933965061492c94506148d16148cb61313d8c6148c660018060401b037f000000000000000000000000000000000000000000000000000000000000000016809b612056565b612c97565b84612e39565b91886000841261495c575b6137c9614914614922946137d99461490f600061490a6137c2976107fa6149028d614c58565b8097836134c9565b613432565b6138b2565b6137bd600194929454611dff565b612e02565b614e44565b94856132e0565b6040805194855260208501919091526001600160a01b039182169490911692908190810161386b565b600093506148dc565b604051636ef5bcdd60e11b8152600490fd5b90614a3f614987610b43936126bb565b614a0a6060614a356149a460018060a01b03604086015116612d48565b60c08501516001600160401b0394670de0b6b3a764000092909183906149f99088908116808410614a89575b8303167f0000000000000000000000000000000000000000000000000000000000000000612056565b04808410614a7c575b830390612056565b04956136187f0000000000000000000000000000000000000000000000000000000000000000612d48565b9201511690612056565b908015614a6f575b7f00000000000000000000000000000000000000000000000000000000000000009104612c97565b614a77612003565b614a47565b614a8461201a565b614a02565b614a9161201a565b6149d0565b614ab9614aa1614e5d565b61072d64ffffffffff918260015460d01c169061278a565b506001600160a01b03909116600090815260056020526040812054600c0b919080831315614af45750614aee610b4392614e1b565b90614c33565b91505090565b614b05614aa1614e5d565b6001600160a01b03909216600090815260056020526040812054600c0b92915080831215614af45750614aee614b3d610b43936133ec565b614e1b565b50600036818037808036817f00000000000000000000000000000000000000000000000000000000000000005af43d82803e15614b7d573d90f35b3d90fd5b6001600160a01b03808316911690811491908215614b9e57505090565b60ff925090614bb99160005260036020526040600020610b46565b541690565b6000600c82900b12614bfe57600054610b439166038d7ea4c6800091614bf8916001600160401b03909116906001600160681b0316612056565b04614df8565b614c2e61313d610b4392614c1f60018060401b0360005460401c16916133ec565b6001600160681b031690614c33565b613d23565b66038d7ea4c6800091612ca9916001600160401b0316906001600160681b0316612056565b60008112614c7e57600054610b4391614c79916001600160401b0316614d07565b614dc9565b614cdb614c79610b4392614c9f60018060401b0360005460401c1691613d23565b614cc4826000199266038d7ea4c6800090808504821181151516614cfa575b02612a67565b60018110614ced575b8215614ce0575b0104614d7d565b6133ec565b614ce8612003565b614cd4565b614cf561201a565b614ccd565b614d0261201a565b614cbe565b90610b439166038d7ea4c68000908260001904821183151516614d4a575b6001600160401b0316918215614d3d575b0204614d7d565b614d45612003565b614d36565b614d5261201a565b614d25565b6001600160401b0390818111614d6b571690565b6040516372a1cb5160e11b8152600490fd5b6001600160681b0390818111614d91571690565b604051630dc7925560e11b8152600490fd5b6001600160801b0390818111614db7571690565b60405163762ea71160e11b8152600490fd5b6001600160681b03166001600160671b038111614de657600c0b90565b604051639369ae3560e01b8152600490fd5b6001600160ff1b038111614e095790565b60405163e7e828ad60e01b8152600490fd5b600081600c0b12614e32576001600160681b031690565b60405163363b64b760e11b8152600490fd5b60008112614e325790565b60009015610b435750600190565b6008548015614e705764ffffffffff1690565b50600160281b421015614e885764ffffffffff421690565b604051633d32ffdb60e01b8152600490fd5b80516000805460208401516040808601516001600160c01b03199093166001600160401b039590951694909417931b600160401b600160801b03169290921760809290921b600160801b600160c01b03169190911790556060810151610df791614f429160c09190614f1690614f0f90610d55565b60006127e4565b614f266137c26080830151611dff565b614f366137d960a0830151611dff565b015164ffffffffff1690565b6001611f9d565b60ff6001911660ff81146127c9570190565b6020906001600160401b038111614f735760051b0190565b614483611135565b90614f8582614f5b565b614f92604051918261114c565b8281528092614fa3601f1991614f5b565b0190602036910137565b6020918151811015614fc2575b60051b010190565b614fca614453565b614fba565b60019060001981146127c957019056feddf252ad1be2c89b69c2b068fc378daa952ba7f163c4a11628f55a4df523b3efa2646970667358221220e6f406156e92b3de6745ded7935aef990187b8be228784a43e0bb68c0bf9e5fe64736f6c634300080f0033",
  "linkReferences": {},
  "deployedLinkReferences": {}
}