{
  "_format": "hh-sol-artifact-1",
  "contractName": "Dog",
  "sourceName": "contracts/test/Dog.sol",
  "abi": [
    {
      "inputs": [
        {
          "internalType": "string",
          "name": "name_",
          "type": "string"
        },
        {
          "internalType": "contract Dog",
          "name": "father_",
          "type": "address"
        },
        {
          "internalType": "contract Dog[]",
          "name": "pups_",
          "type": "address[]"
        }
      ],
      "stateMutability": "nonpayable",
      "type": "constructor"
    },
    {
      "inputs": [
        {
          "internalType": "contract Dog",
          "name": "pup",
          "type": "address"
        }
      ],
      "name": "addPup",
      "outputs": [],
      "stateMutability": "nonpayable",
      "type": "function"
    },
    {
      "inputs": [],
      "name": "father",
      "outputs": [
        {
          "internalType": "contract Dog",
          "name": "",
          "type": "address"
        }
      ],
      "stateMutability": "view",
      "type": "function"
    },
    {
      "inputs": [
        {
          "internalType": "string",
          "name": "name_",
          "type": "string"
        },
        {
          "internalType": "contract Dog",
          "name": "father_",
          "type": "address"
        },
        {
          "internalType": "contract Dog[]",
          "name": "pups_",
          "type": "address[]"
        }
      ],
      "name": "initializeDog",
      "outputs": [],
      "stateMutability": "nonpayable",
      "type": "function"
    },
    {
      "inputs": [],
      "name": "initialized",
      "outputs": [
        {
          "internalType": "bool",
          "name": "",
          "type": "bool"
        }
      ],
      "stateMutability": "view",
      "type": "function"
    },
    {
      "inputs": [],
      "name": "name",
      "outputs": [
        {
          "internalType": "string",
          "name": "",
          "type": "string"
        }
      ],
      "stateMutability": "view",
      "type": "function"
    },
    {
      "inputs": [],
      "name": "puppers",
      "outputs": [
        {
          "components": [
            {
              "internalType": "uint256",
              "name": "index",
              "type": "uint256"
            },
            {
              "internalType": "contract Dog",
              "name": "pup",
              "type": "address"
            }
          ],
          "internalType": "struct Dog.Puppers[]",
          "name": "",
          "type": "tuple[]"
        }
      ],
      "stateMutability": "nonpayable",
      "type": "function"
    },
    {
      "inputs": [
        {
          "internalType": "uint256",
          "name": "",
          "type": "uint256"
        }
      ],
      "name": "pups",
      "outputs": [
        {
          "internalType": "contract Dog",
          "name": "",
          "type": "address"
        }
      ],
      "stateMutability": "view",
      "type": "function"
    }
  ],
  "bytecode": "0x6080604052346200039c5762000ba8803803806200001d81620003ca565b92833981016060828203126200039c5781516001600160401b0392908381116200039c57810192601f928084860112156200039c578451938285116200024557602092601f19956200007585888584011601620003ca565b97818952848683830101116200039c578186916000905b828210620003b0575011620003a1575b620000aa91508601620003f0565b946040810151908282116200039c5701918381840112156200039c57825193828511620002455760059385851b908780620000e7818501620003ca565b8099815201928201019283116200039c5787809101915b8383106200038157505050506000549660ff88166200033c576001809860ff1916176000558851928311620002455787548881811c9116801562000331575b878210146200031b57828111620002d2575b50859183116001146200026d57508190879860009262000261575b5050600019600383901b1c191690861b1785555b600280546001600160a01b03199081166001600160a01b0396871617909155600095909492905b620001bb575b6040516107a29081620004068239f35b80518610156200025b57828487841b830101511660038054906801000000000000000082101562000245578982018082558210156200022f5760005285600020019086825416179055600019861462000219578680960195620001a5565b634e487b7160e01b600052601160045260246000fd5b634e487b7160e01b600052603260045260246000fd5b634e487b7160e01b600052604160045260246000fd5b620001ab565b0151905038806200016a565b82169787600052856000209860005b818110620002bc575091889991848a959410620002a2575b505050811b0185556200017e565b015160001960f88460031b161c1916905538808062000294565b828401518b55998901999287019287016200027c565b886000528660002083808601871c82019289871062000311575b01861c019089905b828110620003045750506200014f565b60008155018990620002f4565b92508192620002ec565b634e487b7160e01b600052602260045260246000fd5b90607f16906200013d565b60405162461bcd60e51b815260048101879052601360248201527f616c726561647920696e697469616c697a6564000000000000000000000000006044820152606490fd5b81906200038e84620003f0565b8152019101908790620000fe565b600080fd5b6000918901015238846200009c565b92809250818401015182828d01015201829087926200008c565b6040519190601f01601f191682016001600160401b038111838210176200024557604052565b51906001600160a01b03821682036200039c5756fe6080604081815260048036101561001557600080fd5b600092833560e01c9081630166be8a146103595750806306fdde03146102565780630bdae0c914610138578063158ef93e146101165780631c8aca3b146100e9578063380f4841146100b85763c8d228791461007057600080fd5b346100b45760203660031901126100b45735916003548310156100b1575061009b60209260036106c5565b60018060a01b0391549060031b1c169051908152f35b80fd5b8280fd5b50346100b45760203660031901126100b457356001600160a01b03811681036100b4576100e690600361072c565b51f35b50503461011257816003193601126101125760025490516001600160a01b039091168152602090f35b5080fd5b50503461011257816003193601126101125760ff602092541690519015158152f35b505034610112578160031936011261011257600390815461015881610674565b926101658351948561063b565b818452601f1961017483610674565b01855b818110610233575050845b8281106101e2575050815160208082528451818301819052919586958686019590830194505b8382106101b55786860387f35b8451805187528301516001600160a01b0316868401528796509485019493820193600191909101906101a8565b806101f061022e92846106c5565b9054865191851b1c6001600160a01b031661020b878361063b565b828252602082015261021d8288610718565b526102288187610718565b506106f3565b610182565b6020908551610242878261063b565b888152828981830152828901015201610177565b50503461011257816003193601126101125780518281600191825461027a8161068b565b8084529084811690811561033857506001146102f9575b506102a19250949294038461063b565b81519283916020808452825192838286015282915b8483106102e157505082106102d5575b50601f01601f19168101030190f35b838284010152386102c6565b818301810151888401880152879550918201916102b6565b9280915086526020908187209387915b8183106103205750506102a1935082010138610291565b85548784018501529485019486945091830191610309565b90506102a194506020925060ff191682840152151560051b82010138610291565b91905034610637576060366003190112610637578035916001600160401b039081841161063357366023850112156106335783830135918083116106205760209487601f19916103b08884601f890116018661063b565b858552602495368782840101116100b45780878a930183880137850101526001600160a01b0395843587811694919085900361061c5760443595848711610618573660238801121561061857868801359661040a88610674565b976104178c51998a61063b565b80895282848a019160051b83010191368311610614578301905b8282106105f8575050508a549760ff89166105c2576001809960ff1916178c5583519586116105b15750509083929161046a885461068b565b601f811161055d575b508092601f85116001146104fd57505089926104f2575b5050600019600383901b1c191690841b1783555b600280546001600160a01b03191691909117905584825b6104be57858551f35b81518110156104ed57806104e2856104d96104e79486610718565b5116600361072c565b6106f3565b826104b5565b858551f35b01519050388061048a565b88959392919316858c52838c20938c905b828210610544575050841161052b575b505050811b01835561049e565b015160001960f88460031b161c1916905538808061051e565b8484015186558a9790950194938401939081019061050e565b9091929350878b52818b20601f860160051c8101918387106105a7575b869594939291601f8b920160051c01915b828110610599575050610473565b8d81558796508a910161058b565b909150819061057a565b634e487b7160e01b8c52604190528afd5b6013606492848d519362461bcd60e51b855284015282015272185b1c9958591e481a5b9a5d1a585b1a5e9959606a1b6044820152fd5b81358c81168103610610578152908401908401610431565b8e80fd5b8d80fd5b8a80fd5b8980fd5b634e487b7160e01b875260418452602487fd5b8580fd5b8380fd5b601f909101601f19168101906001600160401b0382119082101761065e57604052565b634e487b7160e01b600052604160045260246000fd5b6001600160401b03811161065e5760051b60200190565b90600182811c921680156106bb575b60208310146106a557565b634e487b7160e01b600052602260045260246000fd5b91607f169161069a565b80548210156106dd5760005260206000200190600090565b634e487b7160e01b600052603260045260246000fd5b60001981146107025760010190565b634e487b7160e01b600052601160045260246000fd5b80518210156106dd5760209160051b010190565b8054600160401b81101561065e57610749916001820181556106c5565b819291549060031b9160018060a01b039283811b93849216901b1691191617905556fea2646970667358221220679c21e3e29748eca8353be11250d15a81faa32b160a06eedf7b37e901cf620f64736f6c634300080f0033",
  "linkReferences": {},
  "deployedLinkReferences": {}
}