{
  "_format": "hh-sol-artifact-1",
  "contractName": "BaseBridgeReceiverHarness",
  "sourceName": "contracts/bridges/test/BaseBridgeReceiverHarness.sol",
  "abi": [
    {
      "inputs": [],
      "name": "AlreadyInitialized",
      "type": "error"
    },
    {
      "inputs": [],
      "name": "BadData",
      "type": "error"
    },
    {
      "inputs": [],
      "name": "InvalidProposalId",
      "type": "error"
    },
    {
      "inputs": [],
      "name": "ProposalNotQueued",
      "type": "error"
    },
    {
      "inputs": [],
      "name": "TransactionAlreadyQueued",
      "type": "error"
    },
    {
      "inputs": [],
      "name": "Unauthorized",
      "type": "error"
    },
    {
      "anonymous": false,
      "inputs": [
        {
          "indexed": true,
          "internalType": "address",
          "name": "govTimelock",
          "type": "address"
        },
        {
          "indexed": true,
          "internalType": "address",
          "name": "localTimelock",
          "type": "address"
        }
      ],
      "name": "Initialized",
      "type": "event"
    },
    {
      "anonymous": false,
      "inputs": [
        {
          "indexed": true,
          "internalType": "address",
          "name": "oldGovTimelock",
          "type": "address"
        },
        {
          "indexed": true,
          "internalType": "address",
          "name": "newGovTimelock",
          "type": "address"
        }
      ],
      "name": "NewGovTimelock",
      "type": "event"
    },
    {
      "anonymous": false,
      "inputs": [
        {
          "indexed": true,
          "internalType": "address",
          "name": "oldLocalTimelock",
          "type": "address"
        },
        {
          "indexed": true,
          "internalType": "address",
          "name": "newLocalTimelock",
          "type": "address"
        }
      ],
      "name": "NewLocalTimelock",
      "type": "event"
    },
    {
      "anonymous": false,
      "inputs": [
        {
          "indexed": true,
          "internalType": "address",
          "name": "messageSender",
          "type": "address"
        },
        {
          "indexed": false,
          "internalType": "uint256",
          "name": "id",
          "type": "uint256"
        },
        {
          "indexed": false,
          "internalType": "address[]",
          "name": "targets",
          "type": "address[]"
        },
        {
          "indexed": false,
          "internalType": "uint256[]",
          "name": "values",
          "type": "uint256[]"
        },
        {
          "indexed": false,
          "internalType": "string[]",
          "name": "signatures",
          "type": "string[]"
        },
        {
          "indexed": false,
          "internalType": "bytes[]",
          "name": "calldatas",
          "type": "bytes[]"
        },
        {
          "indexed": false,
          "internalType": "uint256",
          "name": "eta",
          "type": "uint256"
        }
      ],
      "name": "ProposalCreated",
      "type": "event"
    },
    {
      "anonymous": false,
      "inputs": [
        {
          "indexed": false,
          "internalType": "uint256",
          "name": "id",
          "type": "uint256"
        }
      ],
      "name": "ProposalExecuted",
      "type": "event"
    },
    {
      "inputs": [],
      "name": "acceptLocalTimelockAdmin",
      "outputs": [],
      "stateMutability": "nonpayable",
      "type": "function"
    },
    {
      "inputs": [
        {
          "internalType": "uint256",
          "name": "proposalId",
          "type": "uint256"
        }
      ],
      "name": "executeProposal",
      "outputs": [],
      "stateMutability": "nonpayable",
      "type": "function"
    },
    {
      "inputs": [],
      "name": "govTimelock",
      "outputs": [
        {
          "internalType": "address",
          "name": "",
          "type": "address"
        }
      ],
      "stateMutability": "view",
      "type": "function"
    },
    {
      "inputs": [
        {
          "internalType": "address",
          "name": "_govTimelock",
          "type": "address"
        },
        {
          "internalType": "address",
          "name": "_localTimelock",
          "type": "address"
        }
      ],
      "name": "initialize",
      "outputs": [],
      "stateMutability": "nonpayable",
      "type": "function"
    },
    {
      "inputs": [],
      "name": "initialized",
      "outputs": [
        {
          "internalType": "bool",
          "name": "",
          "type": "bool"
        }
      ],
      "stateMutability": "view",
      "type": "function"
    },
    {
      "inputs": [],
      "name": "localTimelock",
      "outputs": [
        {
          "internalType": "address",
          "name": "",
          "type": "address"
        }
      ],
      "stateMutability": "view",
      "type": "function"
    },
    {
      "inputs": [
        {
          "internalType": "address",
          "name": "messageSender",
          "type": "address"
        },
        {
          "internalType": "bytes",
          "name": "data",
          "type": "bytes"
        }
      ],
      "name": "processMessageExternal",
      "outputs": [],
      "stateMutability": "nonpayable",
      "type": "function"
    },
    {
      "inputs": [],
      "name": "proposalCount",
      "outputs": [
        {
          "internalType": "uint256",
          "name": "",
          "type": "uint256"
        }
      ],
      "stateMutability": "view",
      "type": "function"
    },
    {
      "inputs": [
        {
          "internalType": "uint256",
          "name": "",
          "type": "uint256"
        }
      ],
      "name": "proposals",
      "outputs": [
        {
          "internalType": "uint256",
          "name": "id",
          "type": "uint256"
        },
        {
          "internalType": "uint256",
          "name": "eta",
          "type": "uint256"
        },
        {
          "internalType": "bool",
          "name": "executed",
          "type": "bool"
        }
      ],
      "stateMutability": "view",
      "type": "function"
    },
    {
      "inputs": [
        {
          "internalType": "address",
          "name": "newTimelock",
          "type": "address"
        }
      ],
      "name": "setGovTimelock",
      "outputs": [],
      "stateMutability": "nonpayable",
      "type": "function"
    },
    {
      "inputs": [
        {
          "internalType": "address",
          "name": "newTimelock",
          "type": "address"
        }
      ],
      "name": "setLocalTimelock",
      "outputs": [],
      "stateMutability": "nonpayable",
      "type": "function"
    },
    {
      "inputs": [
        {
          "internalType": "uint256",
          "name": "proposalId",
          "type": "uint256"
        }
      ],
      "name": "state",
      "outputs": [
        {
          "internalType": "enum BaseBridgeReceiver.ProposalState",
          "name": "",
          "type": "uint8"
        }
      ],
      "stateMutability": "view",
      "type": "function"
    }
  ],
  "bytecode": "0x6080806040523461001657611834908161001c8239f35b600080fdfe60e080604052600436101561001357600080fd5b600060c05260003560e01c908163013cf08b14611231575080630d61b51914611031578063158ef93e1461100957806322086dbe14610fe05780632e4d4c5514610f6c5780633e4f49e614610f25578063485cc95514610e7d578063824343dd14610e52578063ac3c5ae714610dde578063d0d5c28b14610d72578063da35c66414610d4f5763e231ac36146100a857600080fd5b34610519576040366003190112610519576004356001600160a01b0381168103610c4d576001600160401b03602435116105195736602360243501121561051957600460243501356001600160401b0381116105195760243501903660248301116105195760c051546001600160a01b0390811690821603610d3e576080602435830312610519576024803501356001600160401b0381116105195760243501602483016043820112156105195760248101359061017461016883611422565b6040518060a052611276565b8160a05152602060a05101906044829360051b8201019060248601821161051957604401915b818310610d1e57505050602435604401356001600160401b03811161051957602435019260248101604385011215610519576024840135936101db85611422565b906101e96040519283611276565b858252602082016044819760051b8301019160248501831161051957604401905b828210610d0e5750505060243560640135926001600160401b0384116105195760248301604385602435010112156105195761024c6024858135010135611422565b9361025a6040519586611276565b6024803582018082013580885260208801938493909290880160059290921b0160440111610519576044816024350101915b6024803583019081013560051b016044018310610cbd5750505060243560840135936001600160401b038511610519576024810160438660243501011215610519576102de6024868135010135611422565b946102ec6040519687611276565b602480358201808201358089526020890160808190529392850160059190911b90910160440111610519576044816024350101915b6024803583019081013560051b016044018310610c6c5750505050825160a0515103610c5a57845160a0515103610c5a57835160a0515103610c5a57600154604051630d48571f60e31b815290602090829060049082906001600160a01b03165afa80156105265760c05190610c21575b61039d915042611439565b9560c0515b60a051805160ff83161015610580576020868861042b8b61041d8e61040c6104006103f48b6103e760018060a01b03600154169c60ff60018060a01b039316906116ef565b51169860ff8d16906116ef565b519460ff8c16906116ef565b519560ff8b16906116ef565b516040519586948986019889611728565b03601f198101835282611276565b51902060246040518094819363f2b0653760e01b8352600483015260c051905af19081156105265760c05191610545575b506105335760015460a05189916020916001600160a01b0391821691906104879060ff8716906116ef565b51169061049760ff86168a6116ef565b516104a560ff87168d6116ef565b51926104d66104b760ff89168e6116ef565b519660405197889687958695633a66f90160e01b875260048701611728565b039160c051905af18015610526576104f5575b5060010160ff166103a2565b602090813d831161051f575b61050b8183611276565b8101031261051957386104e9565b60c05180fd5b503d610501565b6040513d60c051823e3d90fd5b6040516333108cbb60e01b8152600490fd5b90506020813d602011610578575b8161056060209383611276565b8101031261051957518015158103610519573861045c565b3d9150610553565b8386848b8a8e8d8b6105936002546112af565b80600255604051906105a660e083611276565b808252602082019060a05182528960408401528460608401528660808401528760a084015260c05160c084015260c05152600360205260c0516040812091835183555190815190600160401b8211610bc457506020600184019261060f83855481875586611781565b019160c0515260c051916020832083915b838310610bf15750505050604083015180519091600160401b8211610bc457506020600284019261065683855481875586611781565b019160c0515260c051916020832083915b838310610bdb57505050506060830151805191600160401b8311610bc457506003830154826003850155808310610b1f575b5060c080516003850190525160208082209392015b828210610a3c57505050506080820151805190600160401b821161097f576004830154826004850155808310610997575b5060c080516004850190525160208082209392015b828210610896575050505060069060a083015160058201550160c0820151151560ff8019835416911617905551966040519760c0890190895260c060208a015260a0515180915260e08901929060c0515b8181106108775750505060209088830360408a0152519182815201929060c0515b81811061086157505050858203606087015251808252602082019160208260051b820101979260c051915b838310610834575050505050838503608085015251808552602085019060208160051b870101956080519260c051915b8383106108075760a088018690526001600160a01b0387167f216ba108683905cf17ff4c7b04b9711edbdf8ebf5cc06eeecee4b5d5e7c3c6d2898b038aa260c051604051f35b9091929397602080610825600193601f198682030187528c51611703565b9a0193019301919392906107c1565b9091929398602080610852600193601f198682030187528d51611703565b9b019301930191939290610791565b8251855260209485019490920191600101610766565b82516001600160a01b0316855260209485019490920191600101610745565b80518051906001600160401b03821161097f576108bd826108b78854611352565b886117b9565b60c0519086602092601f8511600114610911575050928260019493602093869560c05192610906575b5050600019600383901b1c191690841b1787555b019401910190926106f4565b0151905038806108e6565b5260c051602081209291905b601f1985168110610967575083602093600196938796938794601f1981161061094e575b505050811b0187556108fa565b015160001960f88460031b161c19169055388080610941565b9192602060018192868501518155019401920161091d565b634e487b7160e01b60c051526041600452602460c051fd5b6004840160c05152602060c05120908382015b81830181106109ba5750506106df565b8080600192546109c981611352565b806109d8575b505050016109aa565b601f9081811186146109ff5750506109f4915060c051906117a6565b81555b8038806109cf565b610a219192508360c051528560c0519360208520920160051c8201910161176a565b5260c05160208120610a348282546117a6565b8355556109f7565b80518051906001600160401b03821161097f57610a5d826108b78854611352565b60c0519086602092601f8511600114610ab1575050928260019493602093869560c05192610aa6575b5050600019600383901b1c191690841b1787555b019401910190926106ae565b015190503880610a86565b5260c051602081209291905b601f1985168110610b07575083602093600196938796938794601f19811610610aee575b505050811b018755610a9a565b015160001960f88460031b161c19169055388080610ae1565b91926020600181928685015181550194019201610abd565b6003840160c05152602060c05120908382015b8183018110610b42575050610699565b808060019254610b5181611352565b80610b60575b50505001610b32565b601f908181118614610b87575050610b7c915060c051906117a6565b81555b803880610b57565b610ba99192508360c051528560c0519360208520920160051c8201910161176a565b5260c05160208120610bbc8282546117a6565b835555610b7f565b634e487b7160e01b9052604160045260c051602490fd5b6001602082829351855501920192019190610667565b805182546001600160a01b0319166001600160a01b03919091161782556001928301929190910190602001610620565b506020813d602011610c52575b81610c3b60209383611276565b81010312610c4d5761039d9051610392565b600080fd5b3d9150610c2e565b60405163a554dcdf60e01b8152600490fd5b82356001600160401b0381116105195760248501606382856024350101011215610519576020918291610cb29060248881019190358701016044810135906064016116b8565b815201920191610321565b82356001600160401b0381116105195760248801606382856024350101011215610519576020918291610d039060248b81019190358701016044810135906064016116b8565b81520192019161028c565b813581526020918201910161020a565b82356001600160a01b0381168103610c4d5781526020928301920161019a565b6040516282b42960e81b8152600490fd5b346105195760c05180600319360112610d6f576020600254604051908152f35b80fd5b346105195760c05180600319360112610d6f576001546001600160a01b031633819003610d3e57803b156105195760405190630e18b68160e01b82528160048160c05180945af1801561052657610dcc575b60c051604051f35b60c051610dd891611276565b80610dc4565b34610519576020366003190112610519576001600160a01b03600435818116908190036105195760015491821691823303610d3e576001600160a01b031916811760015560405160c051929091907f471e0d9475381e45e60c59cd48b4d67f510d1c2f1295a58a26cd723adf0b74d68484a3f35b346105195760c05180600319360112610d6f576001546040516001600160a01b039091168152602090f35b34610519576040366003190112610519576001600160a01b036004358181169081900361051957602435918216809203610519576001549160ff8360a01c16610f145760c05180546001600160a01b031916831781556001600160a81b03199093168117600160a01b17600155604051917f3cd5ec01b1ae7cfec6ca1863e2cd6aa25d6d1702825803ff2b7cc95010fffdc28484a3f35b60405162dc149f60e41b8152600490fd5b3461051957602036600319011261051957610f41600435611445565b6040516003821015610f54576020918152f35b634e487b7160e01b60c051526021600452602460c051fd5b34610519576020366003190112610519576004356001600160a01b03818116918290036105195780600154163303610d3e5760c05180546001600160a01b031981168417825560405191939192167f55c56ed7a8742b72f9c25278fe194a97d92f752f9522e65c54b9a33f8b3f1b998484a3f35b346105195760c05180600319360112610d6f57546040516001600160a01b039091168152602090f35b346105195760c05180600319360112610d6f57602060ff60015460a01c166040519015158152f35b3461051957600319602036820181136105195760043561105081611445565b9260039384811015610f545761121f578160c0515283835260c05190604082209060068201926001938460ff198254161790559083830190846002850191898601946005600488019701925b6110d3575b7f712ae1383f79ac853f8d882153778e0260ef8f03b504e2866e0593e04d2b291f8a8a604051908152a160c051604051f35b845481101561121a57875461115e91906001600160a01b03908116908d6110fa848a6112d4565b9054911b1c16908d61110c84896112d4565b9054911b1c9061111c848b6112d4565b5092611128858d6112d4565b5061116e89549160405198899788978896630825f38f60e01b88526004880152602487015260a0604487015260a486019061138c565b908a85830301606486015261138c565b90608483015260c05194859103925af191821561052657899261119c575b50611196906112af565b9061109c565b91503d8060c051843e6111af8184611276565b8201918b81840312610519578051906001600160401b03821161051957019082601f83011215610519578151926111e584611302565b906111f36040519283611276565b8482528d8585010111610519578a93611196938e806112149401910161131d565b9061118c565b6110a1565b60405163599fb1a360e01b8152600490fd5b34610c4d576020366003190112610c4d576060906004356000526003602052604060002080549060ff6006600583015492015416918352602083015215156040820152f35b601f909101601f19168101906001600160401b0382119082101761129957604052565b634e487b7160e01b600052604160045260246000fd5b60001981146112be5760010190565b634e487b7160e01b600052601160045260246000fd5b80548210156112ec5760005260206000200190600090565b634e487b7160e01b600052603260045260246000fd5b6001600160401b03811161129957601f01601f191660200190565b918091926000905b82821061133d575011611336575050565b6000910152565b91508060209183015181860152018291611325565b90600182811c92168015611382575b602083101461136c57565b634e487b7160e01b600052602260045260246000fd5b91607f1691611361565b906000929180549161139d83611352565b9182825260019384811690816000146113ff57506001146113bf575b50505050565b90919394506000526020928360002092846000945b8386106113eb5750505050010190388080806113b9565b8054858701830152940193859082016113d4565b9294505050602093945060ff191683830152151560051b010190388080806113b9565b6001600160401b0381116112995760051b60200190565b811981116112be570190565b600254811180156116b0575b61169e5760009081526020906003825260408082209080519361147560e086611276565b825485526001948584018351808285829454938481520190895285892092895b8b8883831061168057505050506114ae92500382611276565b82820152600284018351808285829454938481520190895285892092895b8b8883831061166b57505050506114e592500382611276565b838201526003840180546114f881611422565b9161150586519384611276565b81835287528387208790898685015b8785851061164957505050505050606082015260048401805461153681611422565b9161154386519384611276565b8183528752838720879089868086015b85851061161e575050505050509060c091608082015260ff60066005870154968760a085015201541615159182910152600014611594575050505050600290565b845482516360d143f160e11b815291908190839060049082906001600160a01b03165afa928315611615575084926115e1575b50506115d291611439565b42106115dc575090565b905090565b90809250813d831161160e575b6115f88183611276565b8101031261160a57516115d2386115c7565b8280fd5b503d6115ee565b513d86823e3d90fd5b9082918a5161163881611631818961138c565b0382611276565b815201920192019190868b91611553565b82918a5161165b81611631818961138c565b8152019201920191908a90611514565b865485529581019587955090930192016114cc565b86546001600160a01b03168552958101958795509093019201611495565b604051630992f7ad60e01b8152600490fd5b508015611451565b9291926116c482611302565b916116d26040519384611276565b829481845281830111610c4d578281602093846000960137010152565b80518210156112ec5760209160051b010190565b9060209161171c8151809281855285808601910161131d565b601f01601f1916010190565b95949390608093611765936117579260018060a01b03168952602089015260a0604089015260a0880190611703565b908682036060880152611703565b930152565b818110611775575050565b6000815560010161176a565b9181811061178e57505050565b6117a4926000526020600020918201910161176a565b565b8160011b916000199060031b1c19161790565b9190601f81116117c857505050565b6117a4926000526020600020906020601f840160051c830193106117f4575b601f0160051c019061176a565b90915081906117e756fea2646970667358221220c70ce0736fae6a55eceedf81d57ba5cef448261feba1c3c052f21ef9fe27d7c064736f6c634300080f0033",
  "linkReferences": {},
  "deployedLinkReferences": {}
}