{
  "_format": "hh-sol-artifact-1",
  "contractName": "Fauceteer",
  "sourceName": "contracts/test/Fauceteer.sol",
  "abi": [
    {
      "inputs": [],
      "name": "BalanceTooLow",
      "type": "error"
    },
    {
      "inputs": [],
      "name": "RequestedTooFrequently",
      "type": "error"
    },
    {
      "inputs": [],
      "name": "TransferFailed",
      "type": "error"
    },
    {
      "inputs": [
        {
          "internalType": "address",
          "name": "token",
          "type": "address"
        }
      ],
      "name": "drip",
      "outputs": [],
      "stateMutability": "nonpayable",
      "type": "function"
    },
    {
      "inputs": [
        {
          "internalType": "address",
          "name": "",
          "type": "address"
        },
        {
          "internalType": "address",
          "name": "",
          "type": "address"
        }
      ],
      "name": "lastReceived",
      "outputs": [
        {
          "internalType": "uint256",
          "name": "",
          "type": "uint256"
        }
      ],
      "stateMutability": "view",
      "type": "function"
    }
  ],
  "bytecode": "0x608080604052346100165761028c908161001c8239f35b600080fdfe6080604081815260048036101561001557600080fd5b600092833560e01c90816367a5cd061461008f575063978c5db51461003957600080fd5b3461008b578160031936011261008b576001600160a01b0390358181169081900361008757602435918216809203610087579282916020948252818552828220908252845220549051908152f35b8380fd5b8280fd5b90503461008757602090816003193601126102195782356001600160a01b0381169190829003610204576370a0823160e01b815230848201528281602481855afa90811561020f5786916101de575b5080156101ce573386528583528486208287528352848620548042106101bb5762015180904203106101ab5761271060448492338952888452878920858a52845242888a2055888851958694859363a9059cbb60e01b8552338b8601520460248401525af19182156101a157859261016a575b50501561015c575051f35b90516312171d8360e31b8152fd5b90809250813d831161019a575b610181818361021d565b8101031261008757518015158103610087573880610151565b503d610177565b84513d87823e3d90fd5b84516362e06c7b60e11b81528490fd5b634e487b7160e01b875260118552602487fd5b84516351940b3960e11b81528490fd5b90508281813d8311610208575b6101f5818361021d565b810103126102045751386100de565b8580fd5b503d6101eb565b85513d88823e3d90fd5b8480fd5b601f909101601f19168101906001600160401b0382119082101761024057604052565b634e487b7160e01b600052604160045260246000fdfea26469706673582212204f9c27ef3be48671d9e3a5beebcf71113fd49cd091430e1465f63d03713f79f464736f6c634300080f0033",
  "linkReferences": {},
  "deployedLinkReferences": {}
}